{
  "contractName": "BathBuddy",
  "abi": [
    {
      "inputs": [
        {
          "internalType": "address",
          "name": "beneficiaryAddress",
          "type": "address"
        },
        {
          "internalType": "uint64",
          "name": "startTimestamp",
          "type": "uint64"
        },
        {
          "internalType": "uint64",
          "name": "durationSeconds",
          "type": "uint64"
        }
      ],
      "stateMutability": "nonpayable",
      "type": "constructor"
    },
    {
      "anonymous": false,
      "inputs": [
        {
          "indexed": true,
          "internalType": "address",
          "name": "token",
          "type": "address"
        },
        {
          "indexed": false,
          "internalType": "uint256",
          "name": "amount",
          "type": "uint256"
        }
      ],
      "name": "ERC20Released",
      "type": "event"
    },
    {
      "anonymous": false,
      "inputs": [
        {
          "indexed": false,
          "internalType": "uint256",
          "name": "amount",
          "type": "uint256"
        }
      ],
      "name": "EtherReleased",
      "type": "event"
    },
    {
      "anonymous": false,
      "inputs": [
        {
          "indexed": true,
          "internalType": "address",
          "name": "receiver",
          "type": "address"
        },
        {
          "indexed": true,
          "internalType": "address",
          "name": "callingPool",
          "type": "address"
        },
        {
          "indexed": false,
          "internalType": "uint256",
          "name": "amountReceived",
          "type": "uint256"
        },
        {
          "indexed": false,
          "internalType": "uint256",
          "name": "shares",
          "type": "uint256"
        },
        {
          "indexed": false,
          "internalType": "contract IERC20",
          "name": "bonusToken",
          "type": "address"
        },
        {
          "indexed": false,
          "internalType": "uint256",
          "name": "releasableAmountToWholePool",
          "type": "uint256"
        }
      ],
      "name": "LogClaimBonusToken",
      "type": "event"
    },
    {
      "inputs": [],
      "name": "beneficiary",
      "outputs": [
        {
          "internalType": "address",
          "name": "",
          "type": "address"
        }
      ],
      "stateMutability": "view",
      "type": "function"
    },
    {
      "inputs": [],
      "name": "duration",
      "outputs": [
        {
          "internalType": "uint64",
          "name": "",
          "type": "uint64"
        }
      ],
      "stateMutability": "view",
      "type": "function"
    },
    {
      "inputs": [],
      "name": "start",
      "outputs": [
        {
          "internalType": "uint64",
          "name": "",
          "type": "uint64"
        }
      ],
      "stateMutability": "view",
      "type": "function"
    },
    {
      "stateMutability": "payable",
      "type": "receive"
    },
    {
      "inputs": [],
      "name": "released",
      "outputs": [
        {
          "internalType": "uint256",
          "name": "",
          "type": "uint256"
        }
      ],
      "stateMutability": "view",
      "type": "function"
    },
    {
      "inputs": [
        {
          "internalType": "address",
          "name": "token",
          "type": "address"
        }
      ],
      "name": "released",
      "outputs": [
        {
          "internalType": "uint256",
          "name": "",
          "type": "uint256"
        }
      ],
      "stateMutability": "view",
      "type": "function"
    },
    {
      "inputs": [
        {
          "internalType": "contract IERC20",
          "name": "token",
          "type": "address"
        },
        {
          "internalType": "address",
          "name": "recipient",
          "type": "address"
        },
        {
          "internalType": "uint256",
          "name": "sharesWithdrawn",
          "type": "uint256"
        },
        {
          "internalType": "uint256",
          "name": "initialTotalSupply",
          "type": "uint256"
        },
        {
          "internalType": "uint256",
          "name": "poolFee",
          "type": "uint256"
        }
      ],
      "name": "release",
      "outputs": [],
      "stateMutability": "nonpayable",
      "type": "function"
    },
    {
      "inputs": [
        {
          "internalType": "address",
          "name": "token",
          "type": "address"
        },
        {
          "internalType": "uint64",
          "name": "timestamp",
          "type": "uint64"
        }
      ],
      "name": "vestedAmount",
      "outputs": [
        {
          "internalType": "uint256",
          "name": "",
          "type": "uint256"
        }
      ],
      "stateMutability": "view",
      "type": "function"
    }
  ],
  "bytecode": "0x608060405234801561001057600080fd5b506040516107f73803806107f78339818101604052606081101561003357600080fd5b50805160208201516040909201519091906001600160a01b0383166100895760405162461bcd60e51b815260040180806020018281038252602a8152602001806107cd602a913960400191505060405180910390fd5b600280546001600160a01b0319166001600160a01b039490941693909317600160a01b600160e01b031916600160a01b6001600160401b039384160217909255600380546001600160401b031916929091169190911790556106dd806100f06000396000f3fe6080604052600436106100745760003560e01c8063810ec23b1161004e578063810ec23b1461013457806396132521146101895780639852595c1461019e578063be9a6555146101d15761007b565b80630fb5a6b4146100805780631921f0bb146100b257806338af3eed146101035761007b565b3661007b57005b600080fd5b34801561008c57600080fd5b506100956101e6565b6040805167ffffffffffffffff9092168252519081900360200190f35b3480156100be57600080fd5b50610101600480360360a08110156100d557600080fd5b506001600160a01b038135811691602081013590911690604081013590606081013590608001356101f6565b005b34801561010f57600080fd5b506101186103cf565b604080516001600160a01b039092168252519081900360200190f35b34801561014057600080fd5b506101776004803603604081101561015757600080fd5b5080356001600160a01b0316906020013567ffffffffffffffff166103de565b60408051918252519081900360200190f35b34801561019557600080fd5b5061017761046e565b3480156101aa57600080fd5b50610177600480360360208110156101c157600080fd5b50356001600160a01b0316610474565b3480156101dd57600080fd5b5061009561048f565b60035467ffffffffffffffff1681565b6002546001600160a01b0316331461023f5760405162461bcd60e51b815260040180806020018281038252603981526020018061064e6039913960400191505060405180910390fd5b600061024a86610474565b61025487426103de565b03905080156103c75760006102738461026d84886104a6565b906104ff565b9050600061028761271061026d84876104a6565b905060006102958383610566565b9050886001600160a01b031663a9059cbb89836040518363ffffffff1660e01b815260040180836001600160a01b0316815260200182815260200192505050602060405180830381600087803b1580156102ee57600080fd5b505af1158015610302573d6000803e3d6000fd5b505050506040513d602081101561031857600080fd5b50506001600160a01b038916600081815260016020908152604091829020805487019055815186815291517fc0e523490dd523c33b1878c9eb14ff46991e3f5b2cd33710918618f2a39cba1b9281900390910190a260408051828152602081018990526001600160a01b038b81168284015260608201879052915133928b16917f71ce876f95dc7ea1dc276636557ada11e0291edea7f90046a125bc3d640ba837919081900360800190a35050505b505050505050565b6002546001600160a01b031681565b60006104656103ec84610474565b604080516370a0823160e01b815230600482015290516001600160a01b038716916370a08231916024808301926020929190829003018186803b15801561043257600080fd5b505afa158015610446573d6000803e3d6000fd5b505050506040513d602081101561045c57600080fd5b505101836105c3565b90505b92915050565b60005490565b6001600160a01b031660009081526001602052604090205490565b600254600160a01b900467ffffffffffffffff1681565b6000826104b557506000610468565b828202828482816104c257fe5b04146104655760405162461bcd60e51b81526004018080602001828103825260218152602001806106876021913960400191505060405180910390fd5b6000808211610555576040805162461bcd60e51b815260206004820152601a60248201527f536166654d6174683a206469766973696f6e206279207a65726f000000000000604482015290519081900360640190fd5b81838161055e57fe5b049392505050565b6000828211156105bd576040805162461bcd60e51b815260206004820152601e60248201527f536166654d6174683a207375627472616374696f6e206f766572666c6f770000604482015290519081900360640190fd5b50900390565b60025460009067ffffffffffffffff600160a01b909104811690831610156105ed57506000610468565b60035460025467ffffffffffffffff918216600160a01b9091048216018116908316111561061c575081610468565b60035460025467ffffffffffffffff91821691600160a01b909104811684031684028161064557fe5b04905061046856fe43616c6c6572206973206e6f7420746865204261746820546f6b656e2062656e6566696369617279206f662074686573652072657761726473536166654d6174683a206d756c7469706c69636174696f6e206f766572666c6f77a2646970667358221220b1ef3aeeb18d5695d0710c3992f6aeafaf55c6b1032e1cca9f93106236d8d56164736f6c6343000706003356657374696e6757616c6c65743a2062656e6566696369617279206973207a65726f2061646472657373",
  "immutableReferences": {},
  "source": "// SPDX-License-Identifier: MIT\npragma solidity >=0.6.0 <0.8.0;\n\nimport \"./VestingWallet.sol\";\nimport \"../interfaces/IBathBuddy.sol\";\nimport \"@openzeppelin/contracts/token/ERC20/IERC20.sol\";\n\n/**\n * @title BathBuddy\n * @dev *** This contract is a lightly modified version of Vesting Wallet by OpenZeppelin\n * @dev PLEASE FIND OZ DOCUMENTATION FOR THIS CONTRACT HERE: https://docs.openzeppelin.com/contracts/4.x/api/finance#VestingWallet\n *\n * @dev The only entrypoint used in the system is the release function called by the Bath Token. Extra care should be taken to make sure only the beneficiary can ever access the funds and send them to the withdrawer (and fee to self)\n *\n * @dev This contract handles the vesting ERC20 tokens for a given beneficiary. Custody of multiple tokens\n * can be given to this contract, which will release the token to the beneficiary following a given vesting schedule.\n * The vesting schedule is customizable through the {vestedAmount} function.\n *\n * Any token transferred to this contract will follow the vesting schedule as if they were locked from the beginning.\n * Consequently, if the vesting has already started, any amount of tokens sent to this contract will (at least partly)\n * be immediately releasable.\n */\ncontract BathBuddy is IBathBuddy {\n    using SafeMath for uint256;\n\n    // Public versions of the base VestingWallet storage\n    uint256 private _released;\n    mapping(address => uint256) private _erc20Released;\n\n    // Beneficiary must be the Bath Token vault recipient that will call release() for its withdrawer\n    address public beneficiary;\n    uint64 public start;\n    uint64 public duration;\n\n    /**\n     * @dev Set the beneficiary, start timestamp and vesting duration of the vesting wallet.\n     */\n    constructor(\n        address beneficiaryAddress,\n        uint64 startTimestamp,\n        uint64 durationSeconds\n    ) {\n        require(\n            beneficiaryAddress != address(0),\n            \"VestingWallet: beneficiary is zero address\"\n        );\n        beneficiary = beneficiaryAddress;\n        start = startTimestamp;\n        duration = durationSeconds;\n    }\n\n    // OZ\n    event EtherReleased(uint256 amount);\n    event ERC20Released(address indexed token, uint256 amount);\n\n    /// @notice Log bonus token reward event\n    event LogClaimBonusToken(\n        address indexed receiver,\n        address indexed callingPool,\n        uint256 amountReceived,\n        uint256 shares,\n        IERC20 bonusToken,\n        uint256 releasableAmountToWholePool\n    );\n\n    /**\n     * @dev The contract should be able to receive Eth.\n     */\n    receive() external payable {}\n\n    /**\n     * @dev Amount of eth already released\n     */\n    function released() public view returns (uint256) {\n        return _released;\n    }\n\n    /**\n     * @dev Amount of token already released\n     */\n    function released(address token) public view returns (uint256) {\n        return _erc20Released[token];\n    }\n\n    /// @inheritdoc IBathBuddy\n    /// @dev Added and modified release function. Should be the only callable release function\n    function release(\n        IERC20 token,\n        address recipient,\n        uint256 sharesWithdrawn,\n        uint256 initialTotalSupply,\n        uint256 poolFee\n    ) external override {\n        require(\n            msg.sender == beneficiary,\n            \"Caller is not the Bath Token beneficiary of these rewards\"\n        );\n        uint256 releasable = vestedAmount(\n            address(token),\n            uint64(block.timestamp)\n        ) - released(address(token));\n        if (releasable > 0) {\n            uint256 amount = releasable.mul(sharesWithdrawn).div(\n                initialTotalSupply\n            );\n            uint256 _fee = amount.mul(poolFee).div(10000);\n\n            // If FeeTo == address(this) then the fee is effectively accrued by the pool\n            // Assume the caller is the liquidity pool and they receive the fee\n            // Keep tokens here by not transfering the _fee anywhere, it is accrued to the Bath Token's Bath Buddy\n            // token.transfer(address(this), _fee);\n\n            uint256 amountWithdrawn = amount.sub(_fee);\n            token.transfer(recipient, amountWithdrawn);\n\n            _erc20Released[address(token)] += amount;\n            emit ERC20Released(address(token), amount);\n\n            emit LogClaimBonusToken(\n                recipient,\n                msg.sender,\n                amountWithdrawn,\n                sharesWithdrawn,\n                token,\n                releasable\n            );\n        }\n    }\n\n    /**\n     * @dev Calculates the amount of tokens that has already vested. Default implementation is a linear vesting curve.\n     */\n    function vestedAmount(address token, uint64 timestamp)\n        public\n        view\n        returns (uint256)\n    {\n        return\n            _vestingSchedule(\n                IERC20(token).balanceOf(address(this)) + released(token),\n                timestamp\n            );\n    }\n\n    /**\n     * @dev Virtual implementation of the vesting formula. This returns the amount vested, as a function of time, for\n     * an asset given its total historical allocation.\n     */\n    function _vestingSchedule(uint256 totalAllocation, uint64 timestamp)\n        internal\n        view\n        returns (uint256)\n    {\n        if (timestamp < start) {\n            return 0;\n        } else if (timestamp > start + duration) {\n            return totalAllocation;\n        } else {\n            return (totalAllocation * (timestamp - start)) / duration;\n        }\n    }\n}\n",
  "sourcePath": "/Users/bghughes/workspace/2022-05-rubicon/contracts/peripheral_contracts/BathBuddy.sol",
  "compiler": {
    "name": "solc",
    "version": "0.7.6+commit.7338295f.Emscripten.clang"
  },
  "schemaVersion": "3.3.4",
  "updatedAt": "2022-05-20T22:17:11.891Z",
  "devdoc": {
    "details": "*** This contract is a lightly modified version of Vesting Wallet by OpenZeppelinPLEASE FIND OZ DOCUMENTATION FOR THIS CONTRACT HERE: https://docs.openzeppelin.com/contracts/4.x/api/finance#VestingWalletThe only entrypoint used in the system is the release function called by the Bath Token. Extra care should be taken to make sure only the beneficiary can ever access the funds and send them to the withdrawer (and fee to self)This contract handles the vesting ERC20 tokens for a given beneficiary. Custody of multiple tokens can be given to this contract, which will release the token to the beneficiary following a given vesting schedule. The vesting schedule is customizable through the {vestedAmount} function. Any token transferred to this contract will follow the vesting schedule as if they were locked from the beginning. Consequently, if the vesting has already started, any amount of tokens sent to this contract will (at least partly) be immediately releasable.",
    "kind": "dev",
    "methods": {
      "constructor": {
        "details": "Set the beneficiary, start timestamp and vesting duration of the vesting wallet."
      },
      "release(address,address,uint256,uint256,uint256)": {
        "details": "Added and modified release function. Should be the only callable release function"
      },
      "released()": {
        "details": "Amount of eth already released"
      },
      "released(address)": {
        "details": "Amount of token already released"
      },
      "vestedAmount(address,uint64)": {
        "details": "Calculates the amount of tokens that has already vested. Default implementation is a linear vesting curve."
      }
    },
    "title": "BathBuddy",
    "version": 1
  },
  "userdoc": {
    "events": {
      "LogClaimBonusToken(address,address,uint256,uint256,address,uint256)": {
        "notice": "Log bonus token reward event"
      }
    },
    "kind": "user",
    "methods": {
      "release(address,address,uint256,uint256,uint256)": {
        "notice": "Releases the withdrawer's relative share of all vested tokens directly to them with their withdrawal"
      }
    },
    "version": 1
  }
}