{
  "contractName": "BathToken",
  "abi": [
    {
      "anonymous": false,
      "inputs": [
        {
          "indexed": true,
          "internalType": "address",
          "name": "owner",
          "type": "address"
        },
        {
          "indexed": true,
          "internalType": "address",
          "name": "spender",
          "type": "address"
        },
        {
          "indexed": false,
          "internalType": "uint256",
          "name": "value",
          "type": "uint256"
        }
      ],
      "name": "Approval",
      "type": "event"
    },
    {
      "anonymous": false,
      "inputs": [
        {
          "indexed": true,
          "internalType": "address",
          "name": "caller",
          "type": "address"
        },
        {
          "indexed": true,
          "internalType": "address",
          "name": "owner",
          "type": "address"
        },
        {
          "indexed": false,
          "internalType": "uint256",
          "name": "assets",
          "type": "uint256"
        },
        {
          "indexed": false,
          "internalType": "uint256",
          "name": "shares",
          "type": "uint256"
        }
      ],
      "name": "Deposit",
      "type": "event"
    },
    {
      "anonymous": false,
      "inputs": [
        {
          "indexed": false,
          "internalType": "uint256",
          "name": "depositedAmt",
          "type": "uint256"
        },
        {
          "indexed": false,
          "internalType": "contract IERC20",
          "name": "asset",
          "type": "address"
        },
        {
          "indexed": false,
          "internalType": "uint256",
          "name": "sharesReceived",
          "type": "uint256"
        },
        {
          "indexed": false,
          "internalType": "address",
          "name": "depositor",
          "type": "address"
        },
        {
          "indexed": false,
          "internalType": "uint256",
          "name": "underlyingBalance",
          "type": "uint256"
        },
        {
          "indexed": false,
          "internalType": "uint256",
          "name": "outstandingAmount",
          "type": "uint256"
        },
        {
          "indexed": false,
          "internalType": "uint256",
          "name": "totalSupply",
          "type": "uint256"
        }
      ],
      "name": "LogDeposit",
      "type": "event"
    },
    {
      "anonymous": false,
      "inputs": [
        {
          "indexed": false,
          "internalType": "uint256",
          "name": "timeOfInit",
          "type": "uint256"
        }
      ],
      "name": "LogInit",
      "type": "event"
    },
    {
      "anonymous": false,
      "inputs": [
        {
          "indexed": false,
          "internalType": "uint256",
          "name": "orderId",
          "type": "uint256"
        },
        {
          "indexed": false,
          "internalType": "contract IERC20",
          "name": "pool_asset",
          "type": "address"
        },
        {
          "indexed": false,
          "internalType": "uint256",
          "name": "outstandingAmountToCancel",
          "type": "uint256"
        },
        {
          "indexed": false,
          "internalType": "uint256",
          "name": "underlyingBalance",
          "type": "uint256"
        },
        {
          "indexed": false,
          "internalType": "uint256",
          "name": "outstandingAmount",
          "type": "uint256"
        },
        {
          "indexed": false,
          "internalType": "uint256",
          "name": "totalSupply",
          "type": "uint256"
        }
      ],
      "name": "LogPoolCancel",
      "type": "event"
    },
    {
      "anonymous": false,
      "inputs": [
        {
          "indexed": false,
          "internalType": "uint256",
          "name": "id",
          "type": "uint256"
        },
        {
          "indexed": false,
          "internalType": "contract IERC20",
          "name": "pool_asset",
          "type": "address"
        },
        {
          "indexed": false,
          "internalType": "uint256",
          "name": "underlyingBalance",
          "type": "uint256"
        },
        {
          "indexed": false,
          "internalType": "uint256",
          "name": "outstandingAmount",
          "type": "uint256"
        },
        {
          "indexed": false,
          "internalType": "uint256",
          "name": "totalSupply",
          "type": "uint256"
        }
      ],
      "name": "LogPoolOffer",
      "type": "event"
    },
    {
      "anonymous": false,
      "inputs": [
        {
          "indexed": false,
          "internalType": "contract IERC20",
          "name": "pool_asset",
          "type": "address"
        },
        {
          "indexed": false,
          "internalType": "address",
          "name": "destination",
          "type": "address"
        },
        {
          "indexed": false,
          "internalType": "contract IERC20",
          "name": "transferAsset",
          "type": "address"
        },
        {
          "indexed": false,
          "internalType": "uint256",
          "name": "rebalAmt",
          "type": "uint256"
        },
        {
          "indexed": false,
          "internalType": "uint256",
          "name": "stratReward",
          "type": "uint256"
        },
        {
          "indexed": false,
          "internalType": "uint256",
          "name": "underlyingBalance",
          "type": "uint256"
        },
        {
          "indexed": false,
          "internalType": "uint256",
          "name": "outstandingAmount",
          "type": "uint256"
        },
        {
          "indexed": false,
          "internalType": "uint256",
          "name": "totalSupply",
          "type": "uint256"
        }
      ],
      "name": "LogRebalance",
      "type": "event"
    },
    {
      "anonymous": false,
      "inputs": [
        {
          "indexed": false,
          "internalType": "contract IERC20",
          "name": "pool_asset",
          "type": "address"
        },
        {
          "indexed": false,
          "internalType": "uint256",
          "name": "fillAmount",
          "type": "uint256"
        },
        {
          "indexed": false,
          "internalType": "uint256",
          "name": "underlyingBalance",
          "type": "uint256"
        },
        {
          "indexed": false,
          "internalType": "uint256",
          "name": "outstandingAmount",
          "type": "uint256"
        },
        {
          "indexed": false,
          "internalType": "uint256",
          "name": "totalSupply",
          "type": "uint256"
        }
      ],
      "name": "LogRemoveFilledTradeAmount",
      "type": "event"
    },
    {
      "anonymous": false,
      "inputs": [
        {
          "indexed": false,
          "internalType": "uint256",
          "name": "amountWithdrawn",
          "type": "uint256"
        },
        {
          "indexed": false,
          "internalType": "contract IERC20",
          "name": "asset",
          "type": "address"
        },
        {
          "indexed": false,
          "internalType": "uint256",
          "name": "sharesWithdrawn",
          "type": "uint256"
        },
        {
          "indexed": false,
          "internalType": "address",
          "name": "withdrawer",
          "type": "address"
        },
        {
          "indexed": false,
          "internalType": "uint256",
          "name": "fee",
          "type": "uint256"
        },
        {
          "indexed": false,
          "internalType": "address",
          "name": "feeTo",
          "type": "address"
        },
        {
          "indexed": false,
          "internalType": "uint256",
          "name": "underlyingBalance",
          "type": "uint256"
        },
        {
          "indexed": false,
          "internalType": "uint256",
          "name": "outstandingAmount",
          "type": "uint256"
        },
        {
          "indexed": false,
          "internalType": "uint256",
          "name": "totalSupply",
          "type": "uint256"
        }
      ],
      "name": "LogWithdraw",
      "type": "event"
    },
    {
      "anonymous": false,
      "inputs": [
        {
          "indexed": true,
          "internalType": "address",
          "name": "from",
          "type": "address"
        },
        {
          "indexed": true,
          "internalType": "address",
          "name": "to",
          "type": "address"
        },
        {
          "indexed": false,
          "internalType": "uint256",
          "name": "value",
          "type": "uint256"
        }
      ],
      "name": "Transfer",
      "type": "event"
    },
    {
      "anonymous": false,
      "inputs": [
        {
          "indexed": true,
          "internalType": "address",
          "name": "caller",
          "type": "address"
        },
        {
          "indexed": true,
          "internalType": "address",
          "name": "receiver",
          "type": "address"
        },
        {
          "indexed": true,
          "internalType": "address",
          "name": "owner",
          "type": "address"
        },
        {
          "indexed": false,
          "internalType": "uint256",
          "name": "assets",
          "type": "uint256"
        },
        {
          "indexed": false,
          "internalType": "uint256",
          "name": "shares",
          "type": "uint256"
        }
      ],
      "name": "Withdraw",
      "type": "event"
    },
    {
      "inputs": [],
      "name": "DOMAIN_SEPARATOR",
      "outputs": [
        {
          "internalType": "bytes32",
          "name": "",
          "type": "bytes32"
        }
      ],
      "stateMutability": "view",
      "type": "function"
    },
    {
      "inputs": [],
      "name": "PERMIT_TYPEHASH",
      "outputs": [
        {
          "internalType": "bytes32",
          "name": "",
          "type": "bytes32"
        }
      ],
      "stateMutability": "view",
      "type": "function"
    },
    {
      "inputs": [],
      "name": "RubiconMarketAddress",
      "outputs": [
        {
          "internalType": "address",
          "name": "",
          "type": "address"
        }
      ],
      "stateMutability": "view",
      "type": "function"
    },
    {
      "inputs": [
        {
          "internalType": "address",
          "name": "",
          "type": "address"
        },
        {
          "internalType": "address",
          "name": "",
          "type": "address"
        }
      ],
      "name": "allowance",
      "outputs": [
        {
          "internalType": "uint256",
          "name": "",
          "type": "uint256"
        }
      ],
      "stateMutability": "view",
      "type": "function"
    },
    {
      "inputs": [
        {
          "internalType": "address",
          "name": "",
          "type": "address"
        }
      ],
      "name": "balanceOf",
      "outputs": [
        {
          "internalType": "uint256",
          "name": "",
          "type": "uint256"
        }
      ],
      "stateMutability": "view",
      "type": "function"
    },
    {
      "inputs": [],
      "name": "bathHouse",
      "outputs": [
        {
          "internalType": "address",
          "name": "",
          "type": "address"
        }
      ],
      "stateMutability": "view",
      "type": "function"
    },
    {
      "inputs": [
        {
          "internalType": "uint256",
          "name": "",
          "type": "uint256"
        }
      ],
      "name": "bonusTokens",
      "outputs": [
        {
          "internalType": "address",
          "name": "",
          "type": "address"
        }
      ],
      "stateMutability": "view",
      "type": "function"
    },
    {
      "inputs": [],
      "name": "decimals",
      "outputs": [
        {
          "internalType": "uint8",
          "name": "",
          "type": "uint8"
        }
      ],
      "stateMutability": "view",
      "type": "function"
    },
    {
      "inputs": [],
      "name": "feeBPS",
      "outputs": [
        {
          "internalType": "uint256",
          "name": "",
          "type": "uint256"
        }
      ],
      "stateMutability": "view",
      "type": "function"
    },
    {
      "inputs": [],
      "name": "feeTo",
      "outputs": [
        {
          "internalType": "address",
          "name": "",
          "type": "address"
        }
      ],
      "stateMutability": "view",
      "type": "function"
    },
    {
      "inputs": [],
      "name": "initialized",
      "outputs": [
        {
          "internalType": "bool",
          "name": "",
          "type": "bool"
        }
      ],
      "stateMutability": "view",
      "type": "function"
    },
    {
      "inputs": [],
      "name": "name",
      "outputs": [
        {
          "internalType": "string",
          "name": "",
          "type": "string"
        }
      ],
      "stateMutability": "view",
      "type": "function"
    },
    {
      "inputs": [
        {
          "internalType": "address",
          "name": "",
          "type": "address"
        }
      ],
      "name": "nonces",
      "outputs": [
        {
          "internalType": "uint256",
          "name": "",
          "type": "uint256"
        }
      ],
      "stateMutability": "view",
      "type": "function"
    },
    {
      "inputs": [],
      "name": "outstandingAmount",
      "outputs": [
        {
          "internalType": "uint256",
          "name": "",
          "type": "uint256"
        }
      ],
      "stateMutability": "view",
      "type": "function"
    },
    {
      "inputs": [],
      "name": "rewardsVestingWallet",
      "outputs": [
        {
          "internalType": "contract IBathBuddy",
          "name": "",
          "type": "address"
        }
      ],
      "stateMutability": "view",
      "type": "function"
    },
    {
      "inputs": [],
      "name": "symbol",
      "outputs": [
        {
          "internalType": "string",
          "name": "",
          "type": "string"
        }
      ],
      "stateMutability": "view",
      "type": "function"
    },
    {
      "inputs": [],
      "name": "totalSupply",
      "outputs": [
        {
          "internalType": "uint256",
          "name": "",
          "type": "uint256"
        }
      ],
      "stateMutability": "view",
      "type": "function"
    },
    {
      "inputs": [],
      "name": "underlyingToken",
      "outputs": [
        {
          "internalType": "contract IERC20",
          "name": "",
          "type": "address"
        }
      ],
      "stateMutability": "view",
      "type": "function"
    },
    {
      "inputs": [
        {
          "internalType": "contract ERC20",
          "name": "token",
          "type": "address"
        },
        {
          "internalType": "address",
          "name": "market",
          "type": "address"
        },
        {
          "internalType": "address",
          "name": "_feeTo",
          "type": "address"
        }
      ],
      "name": "initialize",
      "outputs": [],
      "stateMutability": "nonpayable",
      "type": "function"
    },
    {
      "inputs": [
        {
          "internalType": "address",
          "name": "newRubiconMarket",
          "type": "address"
        }
      ],
      "name": "setMarket",
      "outputs": [],
      "stateMutability": "nonpayable",
      "type": "function"
    },
    {
      "inputs": [
        {
          "internalType": "address",
          "name": "newBathHouse",
          "type": "address"
        }
      ],
      "name": "setBathHouse",
      "outputs": [],
      "stateMutability": "nonpayable",
      "type": "function"
    },
    {
      "inputs": [],
      "name": "approveMarket",
      "outputs": [],
      "stateMutability": "nonpayable",
      "type": "function"
    },
    {
      "inputs": [
        {
          "internalType": "uint256",
          "name": "_feeBPS",
          "type": "uint256"
        }
      ],
      "name": "setFeeBPS",
      "outputs": [],
      "stateMutability": "nonpayable",
      "type": "function"
    },
    {
      "inputs": [
        {
          "internalType": "address",
          "name": "_feeTo",
          "type": "address"
        }
      ],
      "name": "setFeeTo",
      "outputs": [],
      "stateMutability": "nonpayable",
      "type": "function"
    },
    {
      "inputs": [
        {
          "internalType": "address",
          "name": "newBonusERC20",
          "type": "address"
        }
      ],
      "name": "setBonusToken",
      "outputs": [],
      "stateMutability": "nonpayable",
      "type": "function"
    },
    {
      "inputs": [
        {
          "internalType": "uint256",
          "name": "id",
          "type": "uint256"
        },
        {
          "internalType": "uint256",
          "name": "amt",
          "type": "uint256"
        }
      ],
      "name": "cancel",
      "outputs": [],
      "stateMutability": "nonpayable",
      "type": "function"
    },
    {
      "inputs": [
        {
          "internalType": "uint256",
          "name": "amt",
          "type": "uint256"
        }
      ],
      "name": "removeFilledTradeAmount",
      "outputs": [],
      "stateMutability": "nonpayable",
      "type": "function"
    },
    {
      "inputs": [
        {
          "internalType": "uint256",
          "name": "pay_amt",
          "type": "uint256"
        },
        {
          "internalType": "contract ERC20",
          "name": "pay_gem",
          "type": "address"
        },
        {
          "internalType": "uint256",
          "name": "buy_amt",
          "type": "uint256"
        },
        {
          "internalType": "contract ERC20",
          "name": "buy_gem",
          "type": "address"
        }
      ],
      "name": "placeOffer",
      "outputs": [
        {
          "internalType": "uint256",
          "name": "",
          "type": "uint256"
        }
      ],
      "stateMutability": "nonpayable",
      "type": "function"
    },
    {
      "inputs": [
        {
          "internalType": "address",
          "name": "destination",
          "type": "address"
        },
        {
          "internalType": "address",
          "name": "filledAssetToRebalance",
          "type": "address"
        },
        {
          "internalType": "uint256",
          "name": "stratProportion",
          "type": "uint256"
        },
        {
          "internalType": "uint256",
          "name": "rebalAmt",
          "type": "uint256"
        }
      ],
      "name": "rebalance",
      "outputs": [],
      "stateMutability": "nonpayable",
      "type": "function"
    },
    {
      "inputs": [],
      "name": "asset",
      "outputs": [
        {
          "internalType": "address",
          "name": "assetTokenAddress",
          "type": "address"
        }
      ],
      "stateMutability": "view",
      "type": "function"
    },
    {
      "inputs": [],
      "name": "totalAssets",
      "outputs": [
        {
          "internalType": "uint256",
          "name": "totalManagedAssets",
          "type": "uint256"
        }
      ],
      "stateMutability": "view",
      "type": "function"
    },
    {
      "inputs": [
        {
          "internalType": "uint256",
          "name": "assets",
          "type": "uint256"
        }
      ],
      "name": "convertToShares",
      "outputs": [
        {
          "internalType": "uint256",
          "name": "shares",
          "type": "uint256"
        }
      ],
      "stateMutability": "view",
      "type": "function"
    },
    {
      "inputs": [
        {
          "internalType": "uint256",
          "name": "shares",
          "type": "uint256"
        }
      ],
      "name": "convertToAssets",
      "outputs": [
        {
          "internalType": "uint256",
          "name": "assets",
          "type": "uint256"
        }
      ],
      "stateMutability": "view",
      "type": "function"
    },
    {
      "inputs": [
        {
          "internalType": "address",
          "name": "receiver",
          "type": "address"
        }
      ],
      "name": "maxDeposit",
      "outputs": [
        {
          "internalType": "uint256",
          "name": "maxAssets",
          "type": "uint256"
        }
      ],
      "stateMutability": "pure",
      "type": "function"
    },
    {
      "inputs": [
        {
          "internalType": "uint256",
          "name": "assets",
          "type": "uint256"
        }
      ],
      "name": "previewDeposit",
      "outputs": [
        {
          "internalType": "uint256",
          "name": "shares",
          "type": "uint256"
        }
      ],
      "stateMutability": "view",
      "type": "function"
    },
    {
      "inputs": [
        {
          "internalType": "uint256",
          "name": "assets",
          "type": "uint256"
        },
        {
          "internalType": "address",
          "name": "receiver",
          "type": "address"
        }
      ],
      "name": "deposit",
      "outputs": [
        {
          "internalType": "uint256",
          "name": "shares",
          "type": "uint256"
        }
      ],
      "stateMutability": "nonpayable",
      "type": "function"
    },
    {
      "inputs": [
        {
          "internalType": "uint256",
          "name": "assets",
          "type": "uint256"
        }
      ],
      "name": "deposit",
      "outputs": [
        {
          "internalType": "uint256",
          "name": "shares",
          "type": "uint256"
        }
      ],
      "stateMutability": "nonpayable",
      "type": "function"
    },
    {
      "inputs": [
        {
          "internalType": "address",
          "name": "receiver",
          "type": "address"
        }
      ],
      "name": "maxMint",
      "outputs": [
        {
          "internalType": "uint256",
          "name": "maxShares",
          "type": "uint256"
        }
      ],
      "stateMutability": "pure",
      "type": "function"
    },
    {
      "inputs": [
        {
          "internalType": "uint256",
          "name": "shares",
          "type": "uint256"
        }
      ],
      "name": "previewMint",
      "outputs": [
        {
          "internalType": "uint256",
          "name": "assets",
          "type": "uint256"
        }
      ],
      "stateMutability": "view",
      "type": "function"
    },
    {
      "inputs": [
        {
          "internalType": "uint256",
          "name": "shares",
          "type": "uint256"
        },
        {
          "internalType": "address",
          "name": "receiver",
          "type": "address"
        }
      ],
      "name": "mint",
      "outputs": [
        {
          "internalType": "uint256",
          "name": "assets",
          "type": "uint256"
        }
      ],
      "stateMutability": "nonpayable",
      "type": "function"
    },
    {
      "inputs": [
        {
          "internalType": "address",
          "name": "owner",
          "type": "address"
        }
      ],
      "name": "maxWithdraw",
      "outputs": [
        {
          "internalType": "uint256",
          "name": "maxAssets",
          "type": "uint256"
        }
      ],
      "stateMutability": "view",
      "type": "function"
    },
    {
      "inputs": [
        {
          "internalType": "uint256",
          "name": "assets",
          "type": "uint256"
        }
      ],
      "name": "previewWithdraw",
      "outputs": [
        {
          "internalType": "uint256",
          "name": "shares",
          "type": "uint256"
        }
      ],
      "stateMutability": "view",
      "type": "function"
    },
    {
      "inputs": [
        {
          "internalType": "uint256",
          "name": "_shares",
          "type": "uint256"
        }
      ],
      "name": "withdraw",
      "outputs": [
        {
          "internalType": "uint256",
          "name": "amountWithdrawn",
          "type": "uint256"
        }
      ],
      "stateMutability": "nonpayable",
      "type": "function"
    },
    {
      "inputs": [
        {
          "internalType": "uint256",
          "name": "assets",
          "type": "uint256"
        },
        {
          "internalType": "address",
          "name": "receiver",
          "type": "address"
        },
        {
          "internalType": "address",
          "name": "owner",
          "type": "address"
        }
      ],
      "name": "withdraw",
      "outputs": [
        {
          "internalType": "uint256",
          "name": "shares",
          "type": "uint256"
        }
      ],
      "stateMutability": "nonpayable",
      "type": "function"
    },
    {
      "inputs": [
        {
          "internalType": "address",
          "name": "owner",
          "type": "address"
        }
      ],
      "name": "maxRedeem",
      "outputs": [
        {
          "internalType": "uint256",
          "name": "maxShares",
          "type": "uint256"
        }
      ],
      "stateMutability": "view",
      "type": "function"
    },
    {
      "inputs": [
        {
          "internalType": "uint256",
          "name": "shares",
          "type": "uint256"
        }
      ],
      "name": "previewRedeem",
      "outputs": [
        {
          "internalType": "uint256",
          "name": "assets",
          "type": "uint256"
        }
      ],
      "stateMutability": "view",
      "type": "function"
    },
    {
      "inputs": [
        {
          "internalType": "uint256",
          "name": "shares",
          "type": "uint256"
        },
        {
          "internalType": "address",
          "name": "receiver",
          "type": "address"
        },
        {
          "internalType": "address",
          "name": "owner",
          "type": "address"
        }
      ],
      "name": "redeem",
      "outputs": [
        {
          "internalType": "uint256",
          "name": "assets",
          "type": "uint256"
        }
      ],
      "stateMutability": "nonpayable",
      "type": "function"
    },
    {
      "inputs": [
        {
          "internalType": "address",
          "name": "spender",
          "type": "address"
        },
        {
          "internalType": "uint256",
          "name": "value",
          "type": "uint256"
        }
      ],
      "name": "approve",
      "outputs": [
        {
          "internalType": "bool",
          "name": "",
          "type": "bool"
        }
      ],
      "stateMutability": "nonpayable",
      "type": "function"
    },
    {
      "inputs": [
        {
          "internalType": "address",
          "name": "to",
          "type": "address"
        },
        {
          "internalType": "uint256",
          "name": "value",
          "type": "uint256"
        }
      ],
      "name": "transfer",
      "outputs": [
        {
          "internalType": "bool",
          "name": "",
          "type": "bool"
        }
      ],
      "stateMutability": "nonpayable",
      "type": "function"
    },
    {
      "inputs": [
        {
          "internalType": "address",
          "name": "from",
          "type": "address"
        },
        {
          "internalType": "address",
          "name": "to",
          "type": "address"
        },
        {
          "internalType": "uint256",
          "name": "value",
          "type": "uint256"
        }
      ],
      "name": "transferFrom",
      "outputs": [
        {
          "internalType": "bool",
          "name": "",
          "type": "bool"
        }
      ],
      "stateMutability": "nonpayable",
      "type": "function"
    },
    {
      "inputs": [
        {
          "internalType": "address",
          "name": "owner",
          "type": "address"
        },
        {
          "internalType": "address",
          "name": "spender",
          "type": "address"
        },
        {
          "internalType": "uint256",
          "name": "value",
          "type": "uint256"
        },
        {
          "internalType": "uint256",
          "name": "deadline",
          "type": "uint256"
        },
        {
          "internalType": "uint8",
          "name": "v",
          "type": "uint8"
        },
        {
          "internalType": "bytes32",
          "name": "r",
          "type": "bytes32"
        },
        {
          "internalType": "bytes32",
          "name": "s",
          "type": "bytes32"
        }
      ],
      "name": "permit",
      "outputs": [],
      "stateMutability": "nonpayable",
      "type": "function"
    },
    {
      "inputs": [],
      "name": "underlyingERC20",
      "outputs": [
        {
          "internalType": "address",
          "name": "",
          "type": "address"
        }
      ],
      "stateMutability": "view",
      "type": "function"
    },
    {
      "inputs": [],
      "name": "underlyingBalance",
      "outputs": [
        {
          "internalType": "uint256",
          "name": "",
          "type": "uint256"
        }
      ],
      "stateMutability": "view",
      "type": "function"
    }
  ],
  "bytecode": "0x608060405234801561001057600080fd5b50612d12806100206000396000f3fe608060405234801561001057600080fd5b50600436106103265760003560e01c80636dcea85f116101b8578063b6b55f2511610104578063ce96cb77116100a2578063dd62ed3e1161007c578063dd62ed3e14610928578063ebbc208214610956578063ef8b30f71461097c578063f46901ed1461099957610326565b8063ce96cb771461088b578063d505accf146108b1578063d905777e1461090257610326565b8063c0c53b8b116100de578063c0c53b8b1461082e578063c2560f2a14610866578063c63d75b614610587578063c6e6f5921461086e57610326565b8063b6b55f25146107d5578063ba087652146107f2578063bd0b17221461082657610326565b806394bf804d11610171578063b2eaeaaa1161014b578063b2eaeaaa14610756578063b3d7f6b91461077c578063b42337c914610799578063b460af94146107a157610326565b806394bf804d146106f657806395d89b4114610722578063a9059cbb1461072a57610326565b80636dcea85f146105ff5780636e49db1c146106255780636e553f651461066157806370a082311461068d5780637ecebe00146106b3578063831d2678146106d957610326565b80632e1a7d4d11610277578063402d267d11610230578063604b6a9c1161020a578063604b6a9c146105d257806360c38b28146105ef57806360f71b24146105f75780636823b5231461056257610326565b8063402d267d146105875780634cdad506146105ad57806359356c5c146105ca57610326565b80632e1a7d4d1461051757806330adf81f14610534578063313ce5671461053c5780633644e5151461055a57806338d52e0f146105625780633c8f96f11461056a57610326565b80630a28a477116102e45780631a1c6e53116102be5780631a1c6e531461049557806323b872dd1461049d5780632495a599146104d3578063271e4426146104db57610326565b80630a28a47714610468578063158ef93e1461048557806318160ddd1461048d57610326565b8062efa8951461032b578063017e7e581461035057806301e1d1141461037457806306fdde031461038e57806307a2d13a1461040b578063095ea7b314610428575b600080fd5b61034e6004803603604081101561034157600080fd5b50803590602001356109bf565b005b610358610b71565b604080516001600160a01b039092168252519081900360200190f35b61037c610b80565b60408051918252519081900360200190f35b610396610b8f565b6040805160208082528351818301528351919283929083019185019080838360005b838110156103d05781810151838201526020016103b8565b50505050905090810190601f1680156103fd5780820380516001836020036101000a031916815260200191505b509250505060405180910390f35b61037c6004803603602081101561042157600080fd5b5035610c1a565b6104546004803603604081101561043e57600080fd5b506001600160a01b038135169060200135610c40565b604080519115158252519081900360200190f35b61037c6004803603602081101561047e57600080fd5b5035610c56565b610454610caa565b61037c610cb3565b61037c610cb9565b610454600480360360608110156104b357600080fd5b506001600160a01b03813581169160208101359091169060400135610cbf565b610358610d53565b61037c600480360360808110156104f157600080fd5b508035906001600160a01b03602082013581169160408101359160609091013516610d62565b61037c6004803603602081101561052d57600080fd5b5035610f90565b61037c610f9c565b610544610fc0565b6040805160ff9092168252519081900360200190f35b61037c610fc9565b610358610fcf565b6103586004803603602081101561058057600080fd5b5035610fde565b61037c6004803603602081101561059d57600080fd5b50356001600160a01b0316611008565b61037c600480360360208110156105c357600080fd5b503561100f565b61037c61104f565b61034e600480360360208110156105e857600080fd5b50356110e2565b610358611130565b61035861113f565b61034e6004803603602081101561061557600080fd5b50356001600160a01b0316611153565b61034e6004803603608081101561063b57600080fd5b506001600160a01b038135811691602081013590911690604081013590606001356111c4565b61037c6004803603604081101561067757600080fd5b50803590602001356001600160a01b0316611431565b61037c600480360360208110156106a357600080fd5b50356001600160a01b0316611444565b61037c600480360360208110156106c957600080fd5b50356001600160a01b0316611456565b61034e600480360360208110156106ef57600080fd5b5035611468565b61037c6004803603604081101561070c57600080fd5b50803590602001356001600160a01b03166115a8565b610396611608565b6104546004803603604081101561074057600080fd5b506001600160a01b038135169060200135611662565b61034e6004803603602081101561076c57600080fd5b50356001600160a01b031661166f565b61037c6004803603602081101561079257600080fd5b503561170a565b61037c611740565b61037c600480360360608110156107b757600080fd5b508035906001600160a01b0360208201358116916040013516611746565b61037c600480360360208110156107eb57600080fd5b50356117f2565b61037c6004803603606081101561080857600080fd5b508035906001600160a01b03602082013581169160400135166117fe565b610358611851565b61034e6004803603606081101561084457600080fd5b506001600160a01b038135811691602081013582169160409091013516611860565b61034e611d52565b61037c6004803603602081101561088457600080fd5b5035611e28565b61037c600480360360208110156108a157600080fd5b50356001600160a01b0316611e4d565b61034e600480360360e08110156108c757600080fd5b506001600160a01b03813581169160208101359091169060408101359060608101359060ff6080820135169060a08101359060c00135611e84565b61037c6004803603602081101561091857600080fd5b50356001600160a01b0316612086565b61037c6004803603604081101561093e57600080fd5b506001600160a01b03813581169160200135166120a1565b61034e6004803603602081101561096c57600080fd5b50356001600160a01b03166120be565b61037c6004803603602081101561099257600080fd5b5035612129565b61034e600480360360208110156109af57600080fd5b50356001600160a01b0316612134565b600480546040805163ca3a86cd60e01b81523393810193909352516001600160a01b039091169163ca3a86cd916024808301926020929190829003018186803b158015610a0b57600080fd5b505afa158015610a1f573d6000803e3d6000fd5b505050506040513d6020811015610a3557600080fd5b50511515600114610a7b576040805162461bcd60e51b81526020600482018190526024820152600080516020612cbd833981519152604482015290519081900360640190fd5b600954610a88908261219f565b600955600354604080516340e58ee560e01b81526004810185905290516101009092046001600160a01b0316916340e58ee59160248082019260009290919082900301818387803b158015610adc57600080fd5b505af1158015610af0573d6000803e3d6000fd5b50506006547f948b667935c2235a252417dceae34a9e3b516f743acdd8fc849e9ebcae16147692508491506001600160a01b031683610b2d61104f565b600954600854604080519687526001600160a01b039095166020870152858501939093526060850191909152608084015260a0830152519081900360c00190a15050565b6005546001600160a01b031681565b6000610b8a61104f565b905090565b6002805460408051602060018416156101000260001901909316849004601f81018490048402820184019092528181529291830182828015610c125780601f10610be757610100808354040283529160200191610c12565b820191906000526020600020905b815481529060010190602001808311610bf557829003601f168201915b505050505081565b6000610c3a600854610c3484610c2e610b80565b906121fc565b90612255565b92915050565b6000610c4d3384846122bc565b50600192915050565b600060085460001415610c6b57506000610ca5565b600080610c89612710610c34600754876121fc90919063ffffffff16565b9050610c95848261219f565b9150610ca082611e28565b925050505b919050565b60005460ff1681565b60085481565b60075481565b6001600160a01b0383166000908152600d6020908152604080832033845290915281205460001914610d3e576001600160a01b0384166000908152600d60209081526040808320338452909152902054610d19908361219f565b6001600160a01b0385166000908152600d602090815260408083203384529091529020555b610d4984848461231e565b5060019392505050565b6006546001600160a01b031681565b600480546040805163ca3a86cd60e01b81523393810193909352516000926001600160a01b039092169163ca3a86cd916024808301926020929190829003018186803b158015610db157600080fd5b505afa158015610dc5573d6000803e3d6000fd5b505050506040513d6020811015610ddb57600080fd5b50511515600114610e21576040805162461bcd60e51b81526020600482018190526024820152600080516020612cbd833981519152604482015290519081900360640190fd5b841580610e3557506001600160a01b038416155b80610e3e575082155b80610e5057506001600160a01b038216155b15610e5d57506000610f88565b60035460408051633869bc0560e21b8152600481018890526001600160a01b03878116602483015260448201879052858116606483015260006084830181905260a48301819052925192936101009004169163e1a6f0149160c48082019260209290919082900301818787803b158015610ed657600080fd5b505af1158015610eea573d6000803e3d6000fd5b505050506040513d6020811015610f0057600080fd5b5051600954909150610f1290876123cc565b6009556006547f360c58efcda3cbfaa91dd0fbb328656f6fa68693aa284a863dd4d659d4f9e1369082906001600160a01b0316610f4d61104f565b600954600854604080519586526001600160a01b0390941660208601528484019290925260608401526080830152519081900360a00190a190505b949350505050565b6000610c3a8233612426565b7f6e71edae12b1b97f4d1f60370fef10105fa2faae0126114a169c64845d6126c981565b60035460ff1681565b600e5481565b6006546001600160a01b031690565b60108181548110610fee57600080fd5b6000918252602090912001546001600160a01b0316905081565b5060001990565b600080611024600854610c3485610c2e61104f565b90506000611043612710610c34600754856121fc90919063ffffffff16565b9050610ca0828261219f565b600654604080516370a0823160e01b8152306004820152905160009283926001600160a01b03909116916370a0823191602480820192602092909190829003018186803b15801561109f57600080fd5b505afa1580156110b3573d6000803e3d6000fd5b505050506040513d60208110156110c957600080fd5b50516009549091506110dc9082906123cc565b91505090565b6004546001600160a01b0316331461112b5760405162461bcd60e51b8152600401808060200182810382526027815260200180612c016027913960400191505060405180910390fd5b600755565b6004546001600160a01b031681565b60035461010090046001600160a01b031681565b6004546001600160a01b0316331461119c5760405162461bcd60e51b8152600401808060200182810382526027815260200180612c016027913960400191505060405180910390fd5b600380546001600160a01b0390921661010002610100600160a81b0319909216919091179055565b600480546040805163ca3a86cd60e01b81523393810193909352516001600160a01b039091169163ca3a86cd916024808301926020929190829003018186803b15801561121057600080fd5b505afa158015611224573d6000803e3d6000fd5b505050506040513d602081101561123a57600080fd5b50511515600114611280576040805162461bcd60e51b81526020600482018190526024820152600080516020612cbd833981519152604482015290519081900360640190fd5b6000611292612710610c3485856121fc565b90506001600160a01b03841663a9059cbb866112ae858561219f565b6040518363ffffffff1660e01b815260040180836001600160a01b0316815260200182815260200192505050602060405180830381600087803b1580156112f457600080fd5b505af1158015611308573d6000803e3d6000fd5b505050506040513d602081101561131e57600080fd5b50506040805163a9059cbb60e01b81523360048201526024810183905290516001600160a01b0386169163a9059cbb9160448083019260209291908290030181600087803b15801561136f57600080fd5b505af1158015611383573d6000803e3d6000fd5b505050506040513d602081101561139957600080fd5b50506006547f9fc6dffd7a9978e1ea266a3324e9ed3e3011b1878fbe0074a699519561d7a87a906001600160a01b0316868685856113d561104f565b600954600854604080516001600160a01b03998a168152978916602089015295909716868601526060860193909352608085019190915260a084015260c083015260e08201929092529051908190036101000190a15050505050565b600061143d8383612691565b9392505050565b600c6020526000908152604090205481565b600f6020526000908152604090205481565b600480546040805163ca3a86cd60e01b81523393810193909352516001600160a01b039091169163ca3a86cd916024808301926020929190829003018186803b1580156114b457600080fd5b505afa1580156114c8573d6000803e3d6000fd5b505050506040513d60208110156114de57600080fd5b50511515600114611524576040805162461bcd60e51b81526020600482018190526024820152600080516020612cbd833981519152604482015290519081900360640190fd5b600954611531908261219f565b6009556006547fb2e3b8ff25f9ea875d9c7d1332a97a955997395e3aae7cc9a0e20ab8c7279d16906001600160a01b03168261156b61104f565b600954600854604080516001600160a01b03909616865260208601949094528484019290925260608401526080830152519081900360a00190a150565b60006115b38361170a565b905060006115c18284612691565b90508381146116015760405162461bcd60e51b8152600401808060200182810382526021815260200180612c7b6021913960400191505060405180910390fd5b5092915050565b60018054604080516020600284861615610100026000190190941693909304601f81018490048402820184019092528181529291830182828015610c125780601f10610be757610100808354040283529160200191610c12565b6000610c4d33848461231e565b6004546001600160a01b031633146116b85760405162461bcd60e51b8152600401808060200182810382526027815260200180612c016027913960400191505060405180910390fd5b601080546001810182556000919091527f1b6847dc741a1b0cd08d278845f9d819d87b734759afb55fe2de5cb82a9ae6720180546001600160a01b0319166001600160a01b0392909216919091179055565b60006008546000146117365761172e600854610c34611727610b80565b85906121fc565b90508061173a565b5080805b50919050565b60095481565b60006001600160a01b038216331461178f5760405162461bcd60e51b8152600401808060200182810382526053815260200180612c286053913960600191505060405180910390fd5b600061179a85610c56565b905060006117a88286612426565b9050858110156117e95760405162461bcd60e51b8152600401808060200182810382526035815260200180612bcc6035913960400191505060405180910390fd5b50949350505050565b6000610c3a8233612691565b60006001600160a01b03821633146118475760405162461bcd60e51b8152600401808060200182810382526053815260200180612c286053913960600191505060405180910390fd5b610f888484612426565b6011546001600160a01b031681565b60005460ff161561187057600080fd5b6000836001600160a01b03166395d89b416040518163ffffffff1660e01b815260040160006040518083038186803b1580156118ab57600080fd5b505afa1580156118bf573d6000803e3d6000fd5b505050506040513d6000823e601f3d908101601f1916820160405260208110156118e857600080fd5b810190808051604051939291908464010000000082111561190857600080fd5b90830190602082018581111561191d57600080fd5b825164010000000081118282018810171561193757600080fd5b82525081516020918201929091019080838360005b8381101561196457818101518382015260200161194c565b50505050905090810190601f1680156119915780820380516001836020036101000a031916815260200191505b506040525050506040516020018080630c4c2e8d60e31b81525060040182805190602001908083835b602083106119d95780518252601f1990920191602091820191016119ba565b6001836020036101000a03801982511681845116808217855250505050505090500191505060405160208183030381529060405290508060019080519060200190611a25929190612b2a565b50600680546001600160a01b03199081166001600160a01b038781169190911790925560038054610100600160a81b0319166101009387168402179055600480543392169190911790556040516002805446937f8b73c3c69bb8fe3d512ecc4cf759cc79239f7b179b0ffacaa9a75d522b39400f939182918491600181161590910260001901168190048015611af25780601f10611ad0576101008083540402835291820191611af2565b820191906000526020600020905b815481529060010190602001808311611ade575b505060408051918290038220828201825260018352603160f81b602093840152815180840196909652858201527fc89efdaa54c0f20c7adf612882df0950f5a951637e0307cdcb4c672f298b8bc66060860152608085018690523060a0808701919091528151808703909101815260c08601909152805190820120600e558551869460e0019350839250908401908083835b60208310611ba35780518252601f199092019160209182019101611b84565b51815160209384036101000a60001901801990921691161790526220763160e81b9190930190815260408051808303601c19018152600390920190528051611bf49550600294509201919050612b2a565b50846001600160a01b031663313ce5676040518163ffffffff1660e01b815260040160206040518083038186803b158015611c2e57600080fd5b505afa158015611c42573d6000803e3d6000fd5b505050506040513d6020811015611c5857600080fd5b50516003805460ff191660ff90921691909117908190556040805163095ea7b360e01b81526001600160a01b0361010090930483166004820152600019602482015290519187169163095ea7b3916044808201926020929091908290030181600087803b158015611cc857600080fd5b505af1158015611cdc573d6000803e3d6000fd5b505050506040513d6020811015611cf257600080fd5b50506040805142815290517f62d3d1f1d9801a81e18d50c29dbd4af6f8aa76a0859f432482ac2574e3d2a4f69181900360200190a15050600580546001600160a01b0319163017905550506003600755506000805460ff19166001179055565b6004546001600160a01b03163314611d9b5760405162461bcd60e51b8152600401808060200182810382526027815260200180612c016027913960400191505060405180910390fd5b6006546003546040805163095ea7b360e01b81526101009092046001600160a01b0390811660048401526000196024840152905192169163095ea7b3916044808201926020929091908290030181600087803b158015611dfa57600080fd5b505af1158015611e0e573d6000803e3d6000fd5b505050506040513d6020811015611e2457600080fd5b5050565b60006008546000146117365761172e611e3f610b80565b600854610c349085906121fc565b600060085460001415611e6257506000610ca5565b6001600160a01b0382166000908152600c602052604090205461143d81610c1a565b42841015611ece576040805162461bcd60e51b815260206004820152601260248201527118985d1a151bdad95b8e881156141254915160721b604482015290519081900360640190fd5b600e546001600160a01b038089166000818152600f602090815260408083208054600180820190925582517f6e71edae12b1b97f4d1f60370fef10105fa2faae0126114a169c64845d6126c98186015280840196909652958d166060860152608085018c905260a085019590955260c08085018b90528151808603909101815260e08501825280519083012061190160f01b6101008601526101028501969096526101228085019690965280518085039096018652610142840180825286519683019690962095839052610162840180825286905260ff89166101828501526101a284018890526101c28401879052519193926101e280820193601f1981019281900390910190855afa158015611fe9573d6000803e3d6000fd5b5050604051601f1901519150506001600160a01b0381161580159061201f5750886001600160a01b0316816001600160a01b0316145b612070576040805162461bcd60e51b815260206004820152601c60248201527f62617468546f6b656e3a20494e56414c49445f5349474e415455524500000000604482015290519081900360640190fd5b61207b8989896122bc565b505050505050505050565b6001600160a01b03166000908152600c602052604090205490565b600d60209081526000928352604080842090915290825290205481565b6004546001600160a01b031633146121075760405162461bcd60e51b8152600401808060200182810382526027815260200180612c016027913960400191505060405180910390fd5b600480546001600160a01b0319166001600160a01b0392909216919091179055565b6000610c3a82611e28565b6004546001600160a01b0316331461217d5760405162461bcd60e51b8152600401808060200182810382526027815260200180612c016027913960400191505060405180910390fd5b600580546001600160a01b0319166001600160a01b0392909216919091179055565b6000828211156121f6576040805162461bcd60e51b815260206004820152601e60248201527f536166654d6174683a207375627472616374696f6e206f766572666c6f770000604482015290519081900360640190fd5b50900390565b60008261220b57506000610c3a565b8282028284828161221857fe5b041461143d5760405162461bcd60e51b8152600401808060200182810382526021815260200180612c9c6021913960400191505060405180910390fd5b60008082116122ab576040805162461bcd60e51b815260206004820152601a60248201527f536166654d6174683a206469766973696f6e206279207a65726f000000000000604482015290519081900360640190fd5b8183816122b457fe5b049392505050565b6001600160a01b038084166000818152600d6020908152604080832094871680845294825291829020859055815185815291517f8c5be1e5ebec7d5bd14f71427d1e84f3dd0314c0f7b2291e5b200ac8c7c3b9259281900390910190a3505050565b6001600160a01b0383166000908152600c6020526040902054612341908261219f565b6001600160a01b038085166000908152600c6020526040808220939093559084168152205461237090826123cc565b6001600160a01b038084166000818152600c602090815260409182902094909455805185815290519193928716927fddf252ad1be2c89b69c2b068fc378daa952ba7f163c4a11628f55a4df523b3ef92918290030190a3505050565b60008282018381101561143d576040805162461bcd60e51b815260206004820152601b60248201527f536166654d6174683a206164646974696f6e206f766572666c6f770000000000604482015290519081900360640190fd5b600854600090612437838583612930565b600061244982610c3487610c2e61104f565b90506124553386612a0e565b6000612472612710610c34600754856121fc90919063ffffffff16565b6005549091506001600160a01b03161561250c576006546005546040805163a9059cbb60e01b81526001600160a01b039283166004820152602481018590529051919092169163a9059cbb9160448083019260209291908290030181600087803b1580156124df57600080fd5b505af11580156124f3573d6000803e3d6000fd5b505050506040513d602081101561250957600080fd5b50505b612516828261219f565b6006546040805163a9059cbb60e01b81526001600160a01b03898116600483015260248201859052915193975091169163a9059cbb916044808201926020929091908290030181600087803b15801561256e57600080fd5b505af1158015612582573d6000803e3d6000fd5b505050506040513d602081101561259857600080fd5b50506006546005547f7e06a1682a005aab8a0eb8e6e366e1996b23069ddcf47931669eb54d6d2ede869186916001600160a01b03918216918a9133918791166125df61104f565b60095460085460408051998a526001600160a01b0398891660208b01528981019790975294871660608901526080880193909352941660a086015260c085019390935260e084019290925261010083019190915251908190036101200190a16040805185815260208101889052815133926001600160a01b0389169284927ffbde797d201c681b91056529119e0b02407c7bb96a4a2c75c01fc9667232c8db929181900390910190a450505092915050565b60008061269c61104f565b600654604080516370a0823160e01b815230600482015290519293506000926001600160a01b03909216916370a0823191602480820192602092909190829003018186803b1580156126ed57600080fd5b505afa158015612701573d6000803e3d6000fd5b505050506040513d602081101561271757600080fd5b5051600654604080516323b872dd60e01b81523360048201523060248201526044810189905290519293506001600160a01b03909116916323b872dd916064808201926020929091908290030181600087803b15801561277657600080fd5b505af115801561278a573d6000803e3d6000fd5b505050506040513d60208110156127a057600080fd5b5050600654604080516370a0823160e01b815230600482015290516000926001600160a01b0316916370a08231916024808301926020929190829003018186803b1580156127ed57600080fd5b505afa158015612801573d6000803e3d6000fd5b505050506040513d602081101561281757600080fd5b50519050612825818361219f565b95506008546000146128525761284a83610c34600854896121fc90919063ffffffff16565b935083612857565b859350835b506128628585612a9f565b6006547f98c2489a97b81ca0e2c92a8e8c85cea665ca75cc1fee59262d8b604780bb58d69087906001600160a01b0316863361289c61104f565b600954600854604080519788526001600160a01b03968716602089015287810195909552929094166060860152608085015260a084019290925260c0830191909152519081900360e00190a160408051878152602081018690528151339283927fdcbc1c05240f31ff3ad067ef1ee35ce4997762752e3a095284754544f4c709d7929081900390910190a350505092915050565b60105415612a095760005b601054811015612a075760006010828154811061295457fe5b6000918252602090912001546011546001600160a01b03918216925016156129fe5760115460075460408051631921f0bb60e01b81526001600160a01b03858116600483015289811660248301526044820189905260648201889052608482019390935290519190921691631921f0bb9160a480830192600092919082900301818387803b1580156129e557600080fd5b505af11580156129f9573d6000803e3d6000fd5b505050505b5060010161293b565b505b505050565b6001600160a01b0382166000908152600c6020526040902054612a31908261219f565b6001600160a01b0383166000908152600c6020526040902055600854612a57908261219f565b6008556040805182815290516000916001600160a01b038516917fddf252ad1be2c89b69c2b068fc378daa952ba7f163c4a11628f55a4df523b3ef9181900360200190a35050565b600854612aac90826123cc565b6008556001600160a01b0382166000908152600c6020526040902054612ad290826123cc565b6001600160a01b0383166000818152600c602090815260408083209490945583518581529351929391927fddf252ad1be2c89b69c2b068fc378daa952ba7f163c4a11628f55a4df523b3ef9281900390910190a35050565b828054600181600116156101000203166002900490600052602060002090601f016020900481019282612b605760008555612ba6565b82601f10612b7957805160ff1916838001178555612ba6565b82800160010185558215612ba6579182015b82811115612ba6578251825591602001919060010190612b8b565b50612bb2929150612bb6565b5090565b5b80821115612bb25760008155600101612bb756fe596f752063616e6e6f742077697468647261772074686520616d6f756e74206f662061737365747320796f7520657870656374656463616c6c6572206973206e6f742062617468486f757365202d2042617468546f6b656e2e736f6c5468697320696d706c656d656e746174696f6e20646f6573206e6f7420737570706f7274206e6f6e2d73656e646572206f776e6572732066726f6d207769746864726177696e67207573657220736861726573646964206e6f74206d696e7420657870656374656420736861726520636f756e74536166654d6174683a206d756c7469706c69636174696f6e206f766572666c6f776e6f7420616e20617070726f7665642070616972202d2062617468546f6b656ea26469706673582212206049319f324730796b1541407c782f0ca055bc17257e5b31fe8a57e34a51dc0864736f6c63430007060033",
  "immutableReferences": {},
  "source": "// SPDX-License-Identifier: BUSL-1.1\n\n/// @author Rubicon DeFi Inc. - bghughes.eth\n/// @notice This contract represents a single-asset liquidity pool for Rubicon Pools\n/// @notice Any user can deposit assets into this pool and earn yield from successful strategist market making with their liquidity\n/// @notice This contract looks to both BathPairs and the BathHouse as its admin\n\npragma solidity =0.7.6;\n\nimport \"@openzeppelin/contracts/token/ERC20/ERC20.sol\";\nimport \"@openzeppelin/contracts/math/SafeMath.sol\";\nimport \"../interfaces/IBathHouse.sol\";\nimport \"../interfaces/IRubiconMarket.sol\";\nimport \"../interfaces/IBathBuddy.sol\";\n\ncontract BathToken {\n    using SafeMath for uint256;\n\n    /// *** Storage Variables ***\n\n    /// @notice The initialization status of the Bath Token\n    bool public initialized;\n\n    /// @notice  ** ERC-20 **\n    string public symbol;\n    string public name;\n    uint8 public decimals;\n\n    /// @notice The RubiconMarket.sol instance that all pool liquidity is intially directed to as market-making offers\n    address public RubiconMarketAddress;\n\n    /// @notice The Bath House admin of the Bath Token\n    address public bathHouse;\n\n    /// @notice The withdrawal fee recipient, typically the Bath Token itself\n    address public feeTo;\n\n    /// @notice The underlying ERC-20 token which is the core asset of the Bath Token vault\n    IERC20 public underlyingToken;\n\n    /// @notice The basis point fee rate that is paid on withdrawing the underlyingToken and bonusTokens\n    uint256 public feeBPS;\n\n    /// @notice ** ERC-20 **\n    uint256 public totalSupply;\n\n    /// @notice The amount of underlying deposits that are outstanding attempting market-making on the order book for yield\n    /// @dev quantity of underlyingToken that is in the orderbook that the pool still has a claim on\n    /// @dev The underlyingToken is effectively mark-to-marketed when it enters the book and it could be returned at a loss due to poor strategist performance\n    /// @dev outstandingAmount is NOT inclusive of any non-underlyingToken assets sitting on the Bath Tokens that have filled to here and are awaiting rebalancing to the underlyingToken by strategists\n    uint256 public outstandingAmount;\n\n    /// @dev Intentionally unused DEPRECATED STORAGE VARIABLE to maintain contiguous state on proxy-wrapped contracts. Consider it a beautiful scar of incremental progress \n    /// @dev Keeping deprecated variables maintains consistent network-agnostic contract abis when moving to new chains and versions\n    uint256[] deprecatedStorageArray; // Kept in to avoid storage collision bathTokens that are proxy upgraded\n\n    /// @dev Intentionally unused DEPRECATED STORAGE VARIABLE to maintain contiguous state on proxy-wrapped contracts. Consider it a beautiful scar of incremental progress \n    mapping(uint256 => uint256) deprecatedMapping; // Kept in to avoid storage collision on bathTokens that are upgraded\n    // *******************************************\n\n    /// @notice  ** ERC-20 **\n    mapping(address => uint256) public balanceOf;\n    mapping(address => mapping(address => uint256)) public allowance;\n\n    /// @notice EIP-2612\n    bytes32 public DOMAIN_SEPARATOR;\n\n    /// @notice EIP-2612\n    /// @dev keccak256(\"Permit(address owner,address spender,uint256 value,uint256 nonce,uint256 deadline)\");\n    bytes32 public constant PERMIT_TYPEHASH =\n        0x6e71edae12b1b97f4d1f60370fef10105fa2faae0126114a169c64845d6126c9;\n\n    /// @notice EIP-2612\n    mapping(address => uint256) public nonces;\n\n    /// @notice Array of Bonus ERC-20 tokens that are given as liquidity incentives to pool withdrawers\n    address[] public bonusTokens;\n\n    /// @notice Address of the OZ Vesting Wallet which acts as means to vest bonusToken incentives to pool HODLers\n    IBathBuddy public rewardsVestingWallet;\n\n    /// *** Events ***\n\n    /// @notice ** ERC-20 **\n    event Approval(\n        address indexed owner,\n        address indexed spender,\n        uint256 value\n    );\n\n    /// @notice ** ERC-20 **\n    event Transfer(address indexed from, address indexed to, uint256 value);\n\n    /// @notice Time of Bath Token instantiation\n    event LogInit(uint256 timeOfInit);\n\n    /// @notice Log details about a pool deposit\n    event LogDeposit(\n        uint256 depositedAmt,\n        IERC20 asset,\n        uint256 sharesReceived,\n        address depositor,\n        uint256 underlyingBalance,\n        uint256 outstandingAmount,\n        uint256 totalSupply\n    );\n\n    /// @notice Log details about a pool withdraw\n    event LogWithdraw(\n        uint256 amountWithdrawn,\n        IERC20 asset,\n        uint256 sharesWithdrawn,\n        address withdrawer,\n        uint256 fee,\n        address feeTo,\n        uint256 underlyingBalance,\n        uint256 outstandingAmount,\n        uint256 totalSupply\n    );\n\n    /// @notice Log details about a pool rebalance\n    event LogRebalance(\n        IERC20 pool_asset,\n        address destination,\n        IERC20 transferAsset,\n        uint256 rebalAmt,\n        uint256 stratReward,\n        uint256 underlyingBalance,\n        uint256 outstandingAmount,\n        uint256 totalSupply\n    );\n\n    /// @notice Log details about a pool order canceled in the Rubicon Market book\n    event LogPoolCancel(\n        uint256 orderId,\n        IERC20 pool_asset,\n        uint256 outstandingAmountToCancel,\n        uint256 underlyingBalance,\n        uint256 outstandingAmount,\n        uint256 totalSupply\n    );\n\n    /// @notice Log details about a pool order placed in the Rubicon Market book\n    event LogPoolOffer(\n        uint256 id,\n        IERC20 pool_asset,\n        uint256 underlyingBalance,\n        uint256 outstandingAmount,\n        uint256 totalSupply\n    );\n\n    /// @notice Log the credit to outstanding amount for funds that have been filled market-making\n    event LogRemoveFilledTradeAmount(\n        IERC20 pool_asset,\n        uint256 fillAmount,\n        uint256 underlyingBalance,\n        uint256 outstandingAmount,\n        uint256 totalSupply\n    );\n\n    /// @notice * EIP 4626 *\n    event Deposit(\n        address indexed caller,\n        address indexed owner,\n        uint256 assets,\n        uint256 shares\n    );\n\n    /// @notice * EIP 4626 *\n    event Withdraw(\n        address indexed caller,\n        address indexed receiver,\n        address indexed owner,\n        uint256 assets,\n        uint256 shares\n    );\n\n    /// *** Constructor ***\n\n    /// @notice Proxy-safe initialization of storage; the constructor\n    function initialize(\n        ERC20 token,\n        address market,\n        address _feeTo\n    ) external {\n        require(!initialized);\n        string memory _symbol = string(\n            abi.encodePacked((\"bath\"), token.symbol())\n        );\n        symbol = _symbol;\n        underlyingToken = token;\n        RubiconMarketAddress = market;\n        bathHouse = msg.sender; //NOTE: assumed admin is creator on BathHouse\n\n        uint256 chainId;\n        assembly {\n            chainId := chainid()\n        }\n        DOMAIN_SEPARATOR = keccak256(\n            abi.encode(\n                keccak256(\n                    \"EIP712Domain(string name,string version,uint256 chainId,address verifyingContract)\"\n                ),\n                keccak256(bytes(name)),\n                keccak256(bytes(\"1\")),\n                chainId,\n                address(this)\n            )\n        );\n        name = string(abi.encodePacked(_symbol, (\" v1\")));\n        decimals = token.decimals(); // v1 Change - 4626 Adherence\n\n        // Add infinite approval of Rubicon Market for this asset\n        IERC20(address(token)).approve(RubiconMarketAddress, 2**256 - 1);\n        emit LogInit(block.timestamp);\n\n        feeTo = address(this); //This contract is the fee recipient, rewarding HODLers\n        feeBPS = 3; //Fee set to 3 BPS initially\n\n        // Complete constract instantiation\n        initialized = true;\n    }\n\n    /// *** Modifiers ***\n\n    modifier onlyPair() {\n        require(\n            IBathHouse(bathHouse).isApprovedPair(msg.sender) == true,\n            \"not an approved pair - bathToken\"\n        );\n        _;\n    }\n\n    modifier onlyBathHouse() {\n        require(\n            msg.sender == bathHouse,\n            \"caller is not bathHouse - BathToken.sol\"\n        );\n        _;\n    }\n\n    /// *** External Functions - Only Bath House / Admin ***\n\n    /// @notice Admin-only function to set a Bath Token's market address\n    function setMarket(address newRubiconMarket) external onlyBathHouse {\n        RubiconMarketAddress = newRubiconMarket;\n    }\n\n    /// @notice Admin-only function to set a Bath Token's Bath House admin\n    function setBathHouse(address newBathHouse) external onlyBathHouse {\n        bathHouse = newBathHouse;\n    }\n\n    /// @notice Admin-only function to approve Bath Token's RubiconMarketAddress with the maximum integer value (infinite approval)\n    function approveMarket() external onlyBathHouse {\n        underlyingToken.approve(RubiconMarketAddress, 2**256 - 1);\n    }\n\n    /// @notice Admin-only function to set a Bath Token's feeBPS\n    function setFeeBPS(uint256 _feeBPS) external onlyBathHouse {\n        feeBPS = _feeBPS;\n    }\n\n    /// @notice Admin-only function to set a Bath Token's fee recipient, typically the pool itself\n    function setFeeTo(address _feeTo) external onlyBathHouse {\n        feeTo = _feeTo;\n    }\n\n    /// @notice Admin-only function to add a bonus token to bonusTokens for pool incentives\n    function setBonusToken(address newBonusERC20) external onlyBathHouse {\n        bonusTokens.push(newBonusERC20);\n    }\n\n    /// *** External Functions - Only Approved Bath Pair / Strategist Contract ***\n\n    /// ** Rubicon Market Functions **\n\n    /// @notice The function for a strategist to cancel an outstanding Market Offer\n    function cancel(uint256 id, uint256 amt) external onlyPair {\n        outstandingAmount = outstandingAmount.sub(amt);\n        IRubiconMarket(RubiconMarketAddress).cancel(id);\n\n        emit LogPoolCancel(\n            id,\n            IERC20(underlyingToken),\n            amt,\n            underlyingBalance(),\n            outstandingAmount,\n            totalSupply\n        );\n    }\n\n    /// @notice A function called by BathPair to maintain proper accounting of outstandingAmount\n    function removeFilledTradeAmount(uint256 amt) external onlyPair {\n        outstandingAmount = outstandingAmount.sub(amt);\n        emit LogRemoveFilledTradeAmount(\n            IERC20(underlyingToken),\n            amt,\n            underlyingBalance(),\n            outstandingAmount,\n            totalSupply\n        );\n    }\n\n    /// @notice The function that places a bid and/or ask in the orderbook for a given pair from this pool\n    function placeOffer(\n        uint256 pay_amt,\n        ERC20 pay_gem,\n        uint256 buy_amt,\n        ERC20 buy_gem\n    ) external onlyPair returns (uint256) {\n        // Place an offer in RubiconMarket\n        // If incomplete offer return 0\n        if (\n            pay_amt == 0 ||\n            pay_gem == ERC20(0) ||\n            buy_amt == 0 ||\n            buy_gem == ERC20(0)\n        ) {\n            return 0;\n        }\n\n        uint256 id = IRubiconMarket(RubiconMarketAddress).offer(\n            pay_amt,\n            pay_gem,\n            buy_amt,\n            buy_gem,\n            0,\n            false\n        );\n        outstandingAmount = outstandingAmount.add(pay_amt);\n\n        emit LogPoolOffer(\n            id,\n            IERC20(underlyingToken),\n            underlyingBalance(),\n            outstandingAmount,\n            totalSupply\n        );\n        return (id);\n    }\n\n    /// @notice This function returns filled orders to the correct liquidity pool and sends strategist rewards to the Bath Pair\n    /// @dev Sends non-underlyingToken fill elsewhere in the Pools system, typically it's sister asset within a trading pair (e.g. ETH-USDC)\n    /// @dev Strategists presently accrue rewards in the filled asset not underlyingToken\n    function rebalance(\n        address destination,\n        address filledAssetToRebalance, /* sister or fill asset */\n        uint256 stratProportion,\n        uint256 rebalAmt\n    ) external onlyPair {\n        uint256 stratReward = (stratProportion.mul(rebalAmt)).div(10000);\n        IERC20(filledAssetToRebalance).transfer(\n            destination,\n            rebalAmt.sub(stratReward)\n        );\n        IERC20(filledAssetToRebalance).transfer(msg.sender, stratReward);\n\n        emit LogRebalance(\n            IERC20(underlyingToken),\n            destination,\n            IERC20(filledAssetToRebalance),\n            rebalAmt,\n            stratReward,\n            underlyingBalance(),\n            outstandingAmount,\n            totalSupply\n        );\n    }\n\n    /// *** EIP 4626 Implementation ***\n    // https://eips.ethereum.org/EIPS/eip-4626#specification\n\n    /// @notice Withdraw your bathTokens for the underlyingToken\n    function withdraw(uint256 _shares)\n        external\n        returns (uint256 amountWithdrawn)\n    {\n        return _withdraw(_shares, msg.sender);\n    }\n\n    /// @notice * EIP 4626 *\n    function asset() public view returns (address assetTokenAddress) {\n        assetTokenAddress = address(underlyingToken);\n    }\n\n    /// @notice * EIP 4626 *\n    function totalAssets() public view returns (uint256 totalManagedAssets) {\n        return underlyingBalance();\n    }\n\n    /// @notice * EIP 4626 *\n    function convertToShares(uint256 assets)\n        public\n        view\n        returns (uint256 shares)\n    {\n        // Note: Inflationary tokens may affect this logic\n        (totalSupply == 0) ? shares = assets : shares = (\n            assets.mul(totalSupply)\n        ).div(totalAssets());\n    }\n\n    // Note: MUST NOT be inclusive of any fees that are charged against assets in the Vault.\n    /// @notice * EIP 4626 *\n    function convertToAssets(uint256 shares)\n        public\n        view\n        returns (uint256 assets)\n    {\n        assets = (totalAssets().mul(shares)).div(totalSupply);\n    }\n\n    // Note: Unused function param to adhere to standard\n    /// @notice * EIP 4626 *\n    function maxDeposit(address receiver)\n        public\n        pure\n        returns (uint256 maxAssets)\n    {\n        maxAssets = 2**256 - 1; // No limit on deposits in current implementation  = Max UINT\n    }\n\n    /// @notice * EIP 4626 *\n    function previewDeposit(uint256 assets)\n        public\n        view\n        returns (uint256 shares)\n    {\n        // The exact same logic is used, no deposit fee - only difference is deflationary token check (rare condition and probably redundant)\n        shares = convertToShares(assets);\n    }\n\n    // Single asset override to reflect old functionality\n    function deposit(uint256 assets) public returns (uint256 shares) {\n        // Note: msg.sender is the same throughout the same contract context\n        return _deposit(assets, msg.sender);\n    }\n\n    /// @notice * EIP 4626 *\n    function deposit(uint256 assets, address receiver)\n        public\n        returns (uint256 shares)\n    {\n        return _deposit(assets, receiver);\n    }\n\n    // Note: Unused function param to adhere to standard\n    /// @notice * EIP 4626 *\n    function maxMint(address receiver) public pure returns (uint256 maxShares) {\n        maxShares = 2**256 - 1; // No limit on shares that could be created via deposit in current implementation - Max UINT\n    }\n\n    // Given I want these shares, how much do I have to deposit\n    /// @notice * EIP 4626 *\n    function previewMint(uint256 shares) public view returns (uint256 assets) {\n        (totalSupply == 0) ? assets = shares : assets = (\n            shares.mul(totalAssets())\n        ).div(totalSupply);\n    }\n\n    // Mints exactly shares Vault shares to receiver by depositing amount of underlying tokens.\n    /// @notice * EIP 4626 *\n    function mint(uint256 shares, address receiver)\n        public\n        returns (uint256 assets)\n    {\n        assets = previewMint(shares);\n        uint256 _shares = _deposit(assets, receiver);\n        require(_shares == shares, \"did not mint expected share count\");\n    }\n\n    // A user can withdraw whatever they hold\n    /// @notice * EIP 4626 *\n    function maxWithdraw(address owner)\n        public\n        view\n        returns (uint256 maxAssets)\n    {\n        if (totalSupply == 0) {\n            maxAssets = 0;\n        } else {\n            uint256 ownerShares = balanceOf[owner];\n            maxAssets = convertToAssets(ownerShares);\n        }\n    }\n\n    /// @notice * EIP 4626 *\n    function previewWithdraw(uint256 assets)\n        public\n        view\n        returns (uint256 shares)\n    {\n        if (totalSupply == 0) {\n            shares = 0;\n        } else {\n            uint256 amountWithdrawn;\n            uint256 _fee = assets.mul(feeBPS).div(10000);\n            amountWithdrawn = assets.sub(_fee);\n            shares = convertToShares(amountWithdrawn);\n        }\n    }\n\n    /// @notice * EIP 4626 *\n    function withdraw(\n        uint256 assets,\n        address receiver,\n        address owner\n    ) public returns (uint256 shares) {\n        require(\n            owner == msg.sender,\n            \"This implementation does not support non-sender owners from withdrawing user shares\"\n        );\n        uint256 expectedShares = previewWithdraw(assets);\n        uint256 assetsReceived = _withdraw(expectedShares, receiver);\n        require(\n            assetsReceived >= assets,\n            \"You cannot withdraw the amount of assets you expected\"\n        );\n        shares = expectedShares;\n    }\n\n    // Constraint: msg.sender is owner of shares when withdrawing\n    /// @notice * EIP 4626 *\n    function maxRedeem(address owner) public view returns (uint256 maxShares) {\n        return balanceOf[owner];\n    }\n\n    // Constraint: msg.sender is owner of shares when withdrawing\n    /// @notice * EIP 4626 *\n    function previewRedeem(uint256 shares)\n        public\n        view\n        returns (uint256 assets)\n    {\n        uint256 r = (underlyingBalance().mul(shares)).div(totalSupply);\n        uint256 _fee = r.mul(feeBPS).div(10000);\n        assets = r.sub(_fee);\n    }\n\n    /// @notice * EIP 4626 *\n    function redeem(\n        uint256 shares,\n        address receiver,\n        address owner\n    ) public returns (uint256 assets) {\n        require(\n            owner == msg.sender,\n            \"This implementation does not support non-sender owners from withdrawing user shares\"\n        );\n        assets = _withdraw(shares, receiver);\n    }\n\n    /// *** Internal Functions ***\n\n    /// @notice Deposit assets for the user and mint Bath Token shares to receiver\n    function _deposit(uint256 assets, address receiver)\n        internal\n        returns (uint256 shares)\n    {\n        uint256 _pool = underlyingBalance();\n        uint256 _before = underlyingToken.balanceOf(address(this));\n\n        // **Assume caller is depositor**\n        underlyingToken.transferFrom(msg.sender, address(this), assets);\n        uint256 _after = underlyingToken.balanceOf(address(this));\n        assets = _after.sub(_before); // Additional check for deflationary tokens\n\n        (totalSupply == 0) ? shares = assets : shares = (\n            assets.mul(totalSupply)\n        ).div(_pool);\n\n        // Send shares to designated target\n        _mint(receiver, shares);\n        emit LogDeposit(\n            assets,\n            underlyingToken,\n            shares,\n            msg.sender,\n            underlyingBalance(),\n            outstandingAmount,\n            totalSupply\n        );\n        emit Deposit(msg.sender, msg.sender, assets, shares);\n    }\n\n    /// @notice Withdraw share for the user and send underlyingToken to receiver with any accrued yield and incentive tokens\n    function _withdraw(uint256 _shares, address receiver)\n        internal\n        returns (uint256 amountWithdrawn)\n    {\n        uint256 _initialTotalSupply = totalSupply;\n\n        // Distribute network rewards first in order to handle bonus token == underlying token case; it only releases vested tokens in this call\n        distributeBonusTokenRewards(receiver, _shares, _initialTotalSupply);\n\n        uint256 r = (underlyingBalance().mul(_shares)).div(_initialTotalSupply);\n        _burn(msg.sender, _shares);\n        uint256 _fee = r.mul(feeBPS).div(10000);\n        // If FeeTo == address(0) then the fee is effectively accrued by the pool\n        if (feeTo != address(0)) {\n            underlyingToken.transfer(feeTo, _fee);\n        }\n        amountWithdrawn = r.sub(_fee);\n        underlyingToken.transfer(receiver, amountWithdrawn);\n\n        emit LogWithdraw(\n            amountWithdrawn,\n            underlyingToken,\n            _shares,\n            msg.sender,\n            _fee,\n            feeTo,\n            underlyingBalance(),\n            outstandingAmount,\n            totalSupply\n        );\n        emit Withdraw(\n            msg.sender,\n            receiver,\n            msg.sender,\n            amountWithdrawn,\n            _shares\n        );\n    }\n\n    /// @notice Function to distibute non-underlyingToken Bath Token incentives to pool withdrawers\n    /// @dev Note that bonusTokens adhere to the same feeTo and feeBPS pattern. Fees sit on BathBuddy to act as effectively accrued to the pool.\n    function distributeBonusTokenRewards(\n        address receiver,\n        uint256 sharesWithdrawn,\n        uint256 initialTotalSupply\n    ) internal {\n        if (bonusTokens.length > 0) {\n            for (uint256 index = 0; index < bonusTokens.length; index++) {\n                IERC20 token = IERC20(bonusTokens[index]);\n                // Note: Shares already burned in Bath Token _withdraw\n\n                // Pair each bonus token with a lightly adapted OZ Vesting wallet. Each time a user withdraws, they\n                //  are released their relative share of this pool, of vested BathBuddy rewards\n                // The BathBuddy pool should accrue ERC-20 rewards just like OZ VestingWallet and simply just release the withdrawer's relative share of releaseable() tokens\n                if (rewardsVestingWallet != IBathBuddy(0)) {\n                    rewardsVestingWallet.release(\n                        (token),\n                        receiver,\n                        sharesWithdrawn,\n                        initialTotalSupply,\n                        feeBPS\n                    );\n                }\n            }\n        }\n    }\n\n    /// *** ERC - 20 Standard ***\n\n    function _mint(address to, uint256 value) internal {\n        totalSupply = totalSupply.add(value);\n        balanceOf[to] = balanceOf[to].add(value);\n        emit Transfer(address(0), to, value);\n    }\n\n    function _burn(address from, uint256 value) internal {\n        balanceOf[from] = balanceOf[from].sub(value);\n        totalSupply = totalSupply.sub(value);\n        emit Transfer(from, address(0), value);\n    }\n\n    function _approve(\n        address owner,\n        address spender,\n        uint256 value\n    ) private {\n        allowance[owner][spender] = value;\n        emit Approval(owner, spender, value);\n    }\n\n    function _transfer(\n        address from,\n        address to,\n        uint256 value\n    ) private {\n        balanceOf[from] = balanceOf[from].sub(value);\n        balanceOf[to] = balanceOf[to].add(value);\n        emit Transfer(from, to, value);\n    }\n\n    function approve(address spender, uint256 value) external returns (bool) {\n        _approve(msg.sender, spender, value);\n        return true;\n    }\n\n    function transfer(address to, uint256 value) external returns (bool) {\n        _transfer(msg.sender, to, value);\n        return true;\n    }\n\n    function transferFrom(\n        address from,\n        address to,\n        uint256 value\n    ) external returns (bool) {\n        if (allowance[from][msg.sender] != uint256(-1)) {\n            allowance[from][msg.sender] = allowance[from][msg.sender].sub(\n                value\n            );\n        }\n        _transfer(from, to, value);\n        return true;\n    }\n\n    /// @notice EIP 2612\n    function permit(\n        address owner,\n        address spender,\n        uint256 value,\n        uint256 deadline,\n        uint8 v,\n        bytes32 r,\n        bytes32 s\n    ) external {\n        require(deadline >= block.timestamp, \"bathToken: EXPIRED\");\n        bytes32 digest = keccak256(\n            abi.encodePacked(\n                \"\\x19\\x01\",\n                DOMAIN_SEPARATOR,\n                keccak256(\n                    abi.encode(\n                        PERMIT_TYPEHASH,\n                        owner,\n                        spender,\n                        value,\n                        nonces[owner]++,\n                        deadline\n                    )\n                )\n            )\n        );\n        address recoveredAddress = ecrecover(digest, v, r, s);\n        require(\n            recoveredAddress != address(0) && recoveredAddress == owner,\n            \"bathToken: INVALID_SIGNATURE\"\n        );\n        _approve(owner, spender, value);\n    }\n\n    /// *** View Functions ***\n\n    /// @notice The underlying ERC-20 that this bathToken handles\n    function underlyingERC20() external view returns (address) {\n        return address(underlyingToken);\n    }\n\n    /// @notice The best-guess total claim on assets the Bath Token has\n    /// @dev returns the amount of underlying ERC20 tokens in this pool in addition to any tokens that are outstanding in the Rubicon order book seeking market-making yield (outstandingAmount)\n    function underlyingBalance() public view returns (uint256) {\n        uint256 _pool = IERC20(underlyingToken).balanceOf(address(this));\n        return _pool.add(outstandingAmount);\n    }\n}\n",
  "sourcePath": "/Users/bghughes/workspace/2022-05-rubicon/contracts/rubiconPools/BathToken.sol",
  "compiler": {
    "name": "solc",
    "version": "0.7.6+commit.7338295f.Emscripten.clang"
  },
  "schemaVersion": "3.3.4",
  "updatedAt": "2022-05-20T22:17:11.945Z",
  "devdoc": {
    "kind": "dev",
    "methods": {
      "rebalance(address,address,uint256,uint256)": {
        "details": "Sends non-underlyingToken fill elsewhere in the Pools system, typically it's sister asset within a trading pair (e.g. ETH-USDC)Strategists presently accrue rewards in the filled asset not underlyingToken"
      },
      "underlyingBalance()": {
        "details": "returns the amount of underlying ERC20 tokens in this pool in addition to any tokens that are outstanding in the Rubicon order book seeking market-making yield (outstandingAmount)"
      }
    },
    "stateVariables": {
      "PERMIT_TYPEHASH": {
        "details": "keccak256(\"Permit(address owner,address spender,uint256 value,uint256 nonce,uint256 deadline)\");"
      },
      "deprecatedMapping": {
        "details": "Intentionally unused DEPRECATED STORAGE VARIABLE to maintain contiguous state on proxy-wrapped contracts. Consider it a beautiful scar of incremental progress "
      },
      "deprecatedStorageArray": {
        "details": "Intentionally unused DEPRECATED STORAGE VARIABLE to maintain contiguous state on proxy-wrapped contracts. Consider it a beautiful scar of incremental progress Keeping deprecated variables maintains consistent network-agnostic contract abis when moving to new chains and versions"
      },
      "outstandingAmount": {
        "details": "quantity of underlyingToken that is in the orderbook that the pool still has a claim onThe underlyingToken is effectively mark-to-marketed when it enters the book and it could be returned at a loss due to poor strategist performanceoutstandingAmount is NOT inclusive of any non-underlyingToken assets sitting on the Bath Tokens that have filled to here and are awaiting rebalancing to the underlyingToken by strategists"
      }
    },
    "version": 1
  },
  "userdoc": {
    "events": {
      "Approval(address,address,uint256)": {
        "notice": "** ERC-20 **"
      },
      "Deposit(address,address,uint256,uint256)": {
        "notice": "* EIP 4626 *"
      },
      "LogDeposit(uint256,address,uint256,address,uint256,uint256,uint256)": {
        "notice": "Log details about a pool deposit"
      },
      "LogInit(uint256)": {
        "notice": "Time of Bath Token instantiation"
      },
      "LogPoolCancel(uint256,address,uint256,uint256,uint256,uint256)": {
        "notice": "Log details about a pool order canceled in the Rubicon Market book"
      },
      "LogPoolOffer(uint256,address,uint256,uint256,uint256)": {
        "notice": "Log details about a pool order placed in the Rubicon Market book"
      },
      "LogRebalance(address,address,address,uint256,uint256,uint256,uint256,uint256)": {
        "notice": "Log details about a pool rebalance"
      },
      "LogRemoveFilledTradeAmount(address,uint256,uint256,uint256,uint256)": {
        "notice": "Log the credit to outstanding amount for funds that have been filled market-making"
      },
      "LogWithdraw(uint256,address,uint256,address,uint256,address,uint256,uint256,uint256)": {
        "notice": "Log details about a pool withdraw"
      },
      "Transfer(address,address,uint256)": {
        "notice": "** ERC-20 **"
      },
      "Withdraw(address,address,address,uint256,uint256)": {
        "notice": "* EIP 4626 *"
      }
    },
    "kind": "user",
    "methods": {
      "DOMAIN_SEPARATOR()": {
        "notice": "EIP-2612"
      },
      "PERMIT_TYPEHASH()": {
        "notice": "EIP-2612"
      },
      "RubiconMarketAddress()": {
        "notice": "The RubiconMarket.sol instance that all pool liquidity is intially directed to as market-making offers"
      },
      "approveMarket()": {
        "notice": "Admin-only function to approve Bath Token's RubiconMarketAddress with the maximum integer value (infinite approval)"
      },
      "asset()": {
        "notice": "* EIP 4626 *"
      },
      "balanceOf(address)": {
        "notice": "** ERC-20 **"
      },
      "bathHouse()": {
        "notice": "The Bath House admin of the Bath Token"
      },
      "bonusTokens(uint256)": {
        "notice": "Array of Bonus ERC-20 tokens that are given as liquidity incentives to pool withdrawers"
      },
      "cancel(uint256,uint256)": {
        "notice": "The function for a strategist to cancel an outstanding Market Offer"
      },
      "convertToAssets(uint256)": {
        "notice": "* EIP 4626 *"
      },
      "convertToShares(uint256)": {
        "notice": "* EIP 4626 *"
      },
      "deposit(uint256,address)": {
        "notice": "* EIP 4626 *"
      },
      "feeBPS()": {
        "notice": "The basis point fee rate that is paid on withdrawing the underlyingToken and bonusTokens"
      },
      "feeTo()": {
        "notice": "The withdrawal fee recipient, typically the Bath Token itself"
      },
      "initialize(address,address,address)": {
        "notice": "Proxy-safe initialization of storage; the constructor"
      },
      "initialized()": {
        "notice": "The initialization status of the Bath Token"
      },
      "maxDeposit(address)": {
        "notice": "* EIP 4626 *"
      },
      "maxMint(address)": {
        "notice": "* EIP 4626 *"
      },
      "maxRedeem(address)": {
        "notice": "* EIP 4626 *"
      },
      "maxWithdraw(address)": {
        "notice": "* EIP 4626 *"
      },
      "mint(uint256,address)": {
        "notice": "* EIP 4626 *"
      },
      "nonces(address)": {
        "notice": "EIP-2612"
      },
      "outstandingAmount()": {
        "notice": "The amount of underlying deposits that are outstanding attempting market-making on the order book for yield"
      },
      "permit(address,address,uint256,uint256,uint8,bytes32,bytes32)": {
        "notice": "EIP 2612"
      },
      "placeOffer(uint256,address,uint256,address)": {
        "notice": "The function that places a bid and/or ask in the orderbook for a given pair from this pool"
      },
      "previewDeposit(uint256)": {
        "notice": "* EIP 4626 *"
      },
      "previewMint(uint256)": {
        "notice": "* EIP 4626 *"
      },
      "previewRedeem(uint256)": {
        "notice": "* EIP 4626 *"
      },
      "previewWithdraw(uint256)": {
        "notice": "* EIP 4626 *"
      },
      "rebalance(address,address,uint256,uint256)": {
        "notice": "This function returns filled orders to the correct liquidity pool and sends strategist rewards to the Bath Pair"
      },
      "redeem(uint256,address,address)": {
        "notice": "* EIP 4626 *"
      },
      "removeFilledTradeAmount(uint256)": {
        "notice": "A function called by BathPair to maintain proper accounting of outstandingAmount"
      },
      "rewardsVestingWallet()": {
        "notice": "Address of the OZ Vesting Wallet which acts as means to vest bonusToken incentives to pool HODLers"
      },
      "setBathHouse(address)": {
        "notice": "Admin-only function to set a Bath Token's Bath House admin"
      },
      "setBonusToken(address)": {
        "notice": "Admin-only function to add a bonus token to bonusTokens for pool incentives"
      },
      "setFeeBPS(uint256)": {
        "notice": "Admin-only function to set a Bath Token's feeBPS"
      },
      "setFeeTo(address)": {
        "notice": "Admin-only function to set a Bath Token's fee recipient, typically the pool itself"
      },
      "setMarket(address)": {
        "notice": "Admin-only function to set a Bath Token's market address"
      },
      "symbol()": {
        "notice": "** ERC-20 **"
      },
      "totalAssets()": {
        "notice": "* EIP 4626 *"
      },
      "totalSupply()": {
        "notice": "** ERC-20 **"
      },
      "underlyingBalance()": {
        "notice": "The best-guess total claim on assets the Bath Token has"
      },
      "underlyingERC20()": {
        "notice": "The underlying ERC-20 that this bathToken handles"
      },
      "underlyingToken()": {
        "notice": "The underlying ERC-20 token which is the core asset of the Bath Token vault"
      },
      "withdraw(uint256)": {
        "notice": "Withdraw your bathTokens for the underlyingToken"
      },
      "withdraw(uint256,address,address)": {
        "notice": "* EIP 4626 *"
      }
    },
    "version": 1
  }
}