{
  "contractName": "BathPair",
  "abi": [
    {
      "anonymous": false,
      "inputs": [
        {
          "indexed": false,
          "internalType": "uint256",
          "name": "strategistIDScrubbed",
          "type": "uint256"
        },
        {
          "indexed": false,
          "internalType": "uint256",
          "name": "assetFill",
          "type": "uint256"
        },
        {
          "indexed": false,
          "internalType": "address",
          "name": "assetAddress",
          "type": "address"
        },
        {
          "indexed": false,
          "internalType": "address",
          "name": "bathAssetAddress",
          "type": "address"
        },
        {
          "indexed": false,
          "internalType": "uint256",
          "name": "quoteFill",
          "type": "uint256"
        },
        {
          "indexed": false,
          "internalType": "address",
          "name": "quoteAddress",
          "type": "address"
        },
        {
          "indexed": false,
          "internalType": "address",
          "name": "bathQuoteAddress",
          "type": "address"
        }
      ],
      "name": "LogScrubbedStratTrade",
      "type": "event"
    },
    {
      "anonymous": false,
      "inputs": [
        {
          "indexed": false,
          "internalType": "address",
          "name": "strategist",
          "type": "address"
        },
        {
          "indexed": false,
          "internalType": "address",
          "name": "asset",
          "type": "address"
        },
        {
          "indexed": false,
          "internalType": "uint256",
          "name": "amountOfReward",
          "type": "uint256"
        },
        {
          "indexed": false,
          "internalType": "uint256",
          "name": "timestamp",
          "type": "uint256"
        }
      ],
      "name": "LogStrategistRewardClaim",
      "type": "event"
    },
    {
      "anonymous": false,
      "inputs": [
        {
          "indexed": false,
          "internalType": "uint256",
          "name": "strategistTradeID",
          "type": "uint256"
        },
        {
          "indexed": false,
          "internalType": "bytes32",
          "name": "askId",
          "type": "bytes32"
        },
        {
          "indexed": false,
          "internalType": "bytes32",
          "name": "bidId",
          "type": "bytes32"
        },
        {
          "indexed": false,
          "internalType": "address",
          "name": "askAsset",
          "type": "address"
        },
        {
          "indexed": false,
          "internalType": "address",
          "name": "bidAsset",
          "type": "address"
        },
        {
          "indexed": false,
          "internalType": "uint256",
          "name": "timestamp",
          "type": "uint256"
        },
        {
          "indexed": false,
          "internalType": "address",
          "name": "strategist",
          "type": "address"
        }
      ],
      "name": "LogStrategistTrade",
      "type": "event"
    },
    {
      "inputs": [],
      "name": "RubiconMarketAddress",
      "outputs": [
        {
          "internalType": "address",
          "name": "",
          "type": "address"
        }
      ],
      "stateMutability": "view",
      "type": "function"
    },
    {
      "inputs": [],
      "name": "bathHouse",
      "outputs": [
        {
          "internalType": "address",
          "name": "",
          "type": "address"
        }
      ],
      "stateMutability": "view",
      "type": "function"
    },
    {
      "inputs": [],
      "name": "deprecatedStorageVarKept4Proxy",
      "outputs": [
        {
          "internalType": "uint256",
          "name": "",
          "type": "uint256"
        }
      ],
      "stateMutability": "view",
      "type": "function"
    },
    {
      "inputs": [],
      "name": "initialized",
      "outputs": [
        {
          "internalType": "bool",
          "name": "",
          "type": "bool"
        }
      ],
      "stateMutability": "view",
      "type": "function"
    },
    {
      "inputs": [
        {
          "internalType": "address",
          "name": "",
          "type": "address"
        },
        {
          "internalType": "address",
          "name": "",
          "type": "address"
        },
        {
          "internalType": "address",
          "name": "",
          "type": "address"
        },
        {
          "internalType": "uint256",
          "name": "",
          "type": "uint256"
        }
      ],
      "name": "outOffersByStrategist",
      "outputs": [
        {
          "internalType": "uint256",
          "name": "",
          "type": "uint256"
        }
      ],
      "stateMutability": "view",
      "type": "function"
    },
    {
      "inputs": [
        {
          "internalType": "address",
          "name": "",
          "type": "address"
        },
        {
          "internalType": "address",
          "name": "",
          "type": "address"
        }
      ],
      "name": "strategist2Fills",
      "outputs": [
        {
          "internalType": "uint256",
          "name": "",
          "type": "uint256"
        }
      ],
      "stateMutability": "view",
      "type": "function"
    },
    {
      "inputs": [
        {
          "internalType": "uint256",
          "name": "",
          "type": "uint256"
        }
      ],
      "name": "strategistTrades",
      "outputs": [
        {
          "internalType": "uint256",
          "name": "askId",
          "type": "uint256"
        },
        {
          "internalType": "uint256",
          "name": "askPayAmt",
          "type": "uint256"
        },
        {
          "internalType": "address",
          "name": "askAsset",
          "type": "address"
        },
        {
          "internalType": "uint256",
          "name": "bidId",
          "type": "uint256"
        },
        {
          "internalType": "uint256",
          "name": "bidPayAmt",
          "type": "uint256"
        },
        {
          "internalType": "address",
          "name": "bidAsset",
          "type": "address"
        },
        {
          "internalType": "address",
          "name": "strategist",
          "type": "address"
        },
        {
          "internalType": "uint256",
          "name": "timestamp",
          "type": "uint256"
        }
      ],
      "stateMutability": "view",
      "type": "function"
    },
    {
      "inputs": [
        {
          "internalType": "address",
          "name": "",
          "type": "address"
        }
      ],
      "name": "totalFillsPerAsset",
      "outputs": [
        {
          "internalType": "uint256",
          "name": "",
          "type": "uint256"
        }
      ],
      "stateMutability": "view",
      "type": "function"
    },
    {
      "inputs": [
        {
          "internalType": "uint256",
          "name": "_maxOrderSizeBPS",
          "type": "uint256"
        },
        {
          "internalType": "int128",
          "name": "_shapeCoefNum",
          "type": "int128"
        }
      ],
      "name": "initialize",
      "outputs": [],
      "stateMutability": "nonpayable",
      "type": "function"
    },
    {
      "inputs": [
        {
          "internalType": "address[2]",
          "name": "tokenPair",
          "type": "address[2]"
        },
        {
          "internalType": "uint256",
          "name": "askNumerator",
          "type": "uint256"
        },
        {
          "internalType": "uint256",
          "name": "askDenominator",
          "type": "uint256"
        },
        {
          "internalType": "uint256",
          "name": "bidNumerator",
          "type": "uint256"
        },
        {
          "internalType": "uint256",
          "name": "bidDenominator",
          "type": "uint256"
        }
      ],
      "name": "placeMarketMakingTrades",
      "outputs": [
        {
          "internalType": "uint256",
          "name": "id",
          "type": "uint256"
        }
      ],
      "stateMutability": "nonpayable",
      "type": "function"
    },
    {
      "inputs": [
        {
          "internalType": "address[2]",
          "name": "tokenPair",
          "type": "address[2]"
        },
        {
          "internalType": "uint256[]",
          "name": "askNumerators",
          "type": "uint256[]"
        },
        {
          "internalType": "uint256[]",
          "name": "askDenominators",
          "type": "uint256[]"
        },
        {
          "internalType": "uint256[]",
          "name": "bidNumerators",
          "type": "uint256[]"
        },
        {
          "internalType": "uint256[]",
          "name": "bidDenominators",
          "type": "uint256[]"
        }
      ],
      "name": "batchMarketMakingTrades",
      "outputs": [],
      "stateMutability": "nonpayable",
      "type": "function"
    },
    {
      "inputs": [
        {
          "internalType": "uint256",
          "name": "id",
          "type": "uint256"
        },
        {
          "internalType": "address[2]",
          "name": "tokenPair",
          "type": "address[2]"
        },
        {
          "internalType": "uint256",
          "name": "askNumerator",
          "type": "uint256"
        },
        {
          "internalType": "uint256",
          "name": "askDenominator",
          "type": "uint256"
        },
        {
          "internalType": "uint256",
          "name": "bidNumerator",
          "type": "uint256"
        },
        {
          "internalType": "uint256",
          "name": "bidDenominator",
          "type": "uint256"
        }
      ],
      "name": "requote",
      "outputs": [],
      "stateMutability": "nonpayable",
      "type": "function"
    },
    {
      "inputs": [
        {
          "internalType": "uint256[]",
          "name": "ids",
          "type": "uint256[]"
        },
        {
          "internalType": "address[2]",
          "name": "tokenPair",
          "type": "address[2]"
        },
        {
          "internalType": "uint256[]",
          "name": "askNumerators",
          "type": "uint256[]"
        },
        {
          "internalType": "uint256[]",
          "name": "askDenominators",
          "type": "uint256[]"
        },
        {
          "internalType": "uint256[]",
          "name": "bidNumerators",
          "type": "uint256[]"
        },
        {
          "internalType": "uint256[]",
          "name": "bidDenominators",
          "type": "uint256[]"
        }
      ],
      "name": "batchRequoteOffers",
      "outputs": [],
      "stateMutability": "nonpayable",
      "type": "function"
    },
    {
      "inputs": [
        {
          "internalType": "uint256",
          "name": "assetRebalAmt",
          "type": "uint256"
        },
        {
          "internalType": "uint256",
          "name": "quoteRebalAmt",
          "type": "uint256"
        },
        {
          "internalType": "address",
          "name": "_underlyingAsset",
          "type": "address"
        },
        {
          "internalType": "address",
          "name": "_underlyingQuote",
          "type": "address"
        }
      ],
      "name": "rebalancePair",
      "outputs": [],
      "stateMutability": "nonpayable",
      "type": "function"
    },
    {
      "inputs": [
        {
          "internalType": "address",
          "name": "targetPool",
          "type": "address"
        },
        {
          "internalType": "address",
          "name": "tokenToHandle",
          "type": "address"
        },
        {
          "internalType": "address",
          "name": "targetToken",
          "type": "address"
        },
        {
          "internalType": "address",
          "name": "_stratUtil",
          "type": "address"
        },
        {
          "internalType": "uint256",
          "name": "amount",
          "type": "uint256"
        },
        {
          "internalType": "uint256",
          "name": "hurdle",
          "type": "uint256"
        },
        {
          "internalType": "uint24",
          "name": "_poolFee",
          "type": "uint24"
        }
      ],
      "name": "tailOff",
      "outputs": [],
      "stateMutability": "nonpayable",
      "type": "function"
    },
    {
      "inputs": [
        {
          "internalType": "uint256",
          "name": "id",
          "type": "uint256"
        }
      ],
      "name": "scrubStrategistTrade",
      "outputs": [],
      "stateMutability": "nonpayable",
      "type": "function"
    },
    {
      "inputs": [
        {
          "internalType": "uint256[]",
          "name": "ids",
          "type": "uint256[]"
        }
      ],
      "name": "scrubStrategistTrades",
      "outputs": [],
      "stateMutability": "nonpayable",
      "type": "function"
    },
    {
      "inputs": [
        {
          "internalType": "address",
          "name": "asset",
          "type": "address"
        },
        {
          "internalType": "address",
          "name": "quote",
          "type": "address"
        }
      ],
      "name": "strategistBootyClaim",
      "outputs": [],
      "stateMutability": "nonpayable",
      "type": "function"
    },
    {
      "inputs": [
        {
          "internalType": "address",
          "name": "asset",
          "type": "address"
        },
        {
          "internalType": "address",
          "name": "quote",
          "type": "address"
        },
        {
          "internalType": "address",
          "name": "strategist",
          "type": "address"
        }
      ],
      "name": "getOutstandingStrategistTrades",
      "outputs": [
        {
          "internalType": "uint256[]",
          "name": "",
          "type": "uint256[]"
        }
      ],
      "stateMutability": "view",
      "type": "function"
    }
  ],
  "bytecode": "0x608060405234801561001057600080fd5b5061322d806100206000396000f3fe608060405234801561001057600080fd5b50600436106101215760003560e01c806360c38b28116100ad578063c9c126cd11610071578063c9c126cd14610243578063ce87794014610256578063d0adf70114610269578063ec22e3461461027c578063ecfa797c1461028f57610121565b806360c38b28146101ed57806360f71b2414610202578063729f89ef1461020a57806378c79d821461021d57806387d67a441461023057610121565b80634e7567c2116100f45780634e7567c2146101815780634f854963146101945780634fc40eb7146101a7578063530ac870146101c75780635824d071146101da57610121565b8063158ef93e14610126578063162cf7cb1461014457806344be843f146101595780634a3661001461016c575b600080fd5b61012e6102b6565b60405161013b9190612df7565b60405180910390f35b61014c6102c6565b60405161013b919061308a565b61014c610167366004612a67565b6102cc565b61017f61017a366004612ca8565b6107d2565b005b61017f61018f366004612ae4565b610a08565b61017f6101a2366004612cd1565b610b7e565b6101ba6101b5366004612889565b610eb9565b60405161013b9190612db3565b61017f6101d5366004612c10565b610f3d565b61017f6101e8366004612be0565b610ffe565b6101f56110e6565b60405161013b9190612d30565b6101f56110f5565b61017f610218366004612aa9565b611104565b61017f61022b3660046129ad565b6111e0565b61017f61023e366004612851565b61132b565b61014c61025136600461295d565b611745565b61014c610264366004612851565b611790565b61014c610277366004612819565b6117ad565b61017f61028a3660046128d3565b6117bf565b6102a261029d366004612be0565b611a02565b60405161013b98979695949392919061317a565b600154600160a01b900460ff1681565b60035481565b60008054604051636071015d60e01b815233916001600160a01b031690636071015d906102fd908490600401612d30565b60206040518083038186803b15801561031557600080fd5b505afa158015610329573d6000803e3d6000fd5b505050506040513d601f19601f8201168201806040525081019061034d9190612bc0565b15156001146103775760405162461bcd60e51b815260040161036e9061303d565b60405180910390fd5b6000861180156103875750600085115b8061039d575060008411801561039d5750600083115b6103b95760405162461bcd60e51b815260040161036e90612eb0565b865160208801516000806103cd8484611a56565b90925090506001600160a01b038216158015906103f257506001600160a01b03811615155b61040e5760405162461bcd60e51b815260040161036e90612e80565b600060405180608001604052808c8152602001866001600160a01b031681526020018b8152602001856001600160a01b03168152509050600060405180608001604052808b8152602001866001600160a01b031681526020018a8152602001876001600160a01b031681525090506000846001600160a01b031663271e442684600001518560200151866040015187606001516040518563ffffffff1660e01b81526004016104c0949392919061310a565b602060405180830381600087803b1580156104da57600080fd5b505af11580156104ee573d6000803e3d6000fd5b505050506040513d601f19601f820116820180604052508101906105129190612bf8565b90506000846001600160a01b031663271e442684600001518560200151866040015187606001516040518563ffffffff1660e01b8152600401610558949392919061310a565b602060405180830381600087803b15801561057257600080fd5b505af1158015610586573d6000803e3d6000fd5b505050506040513d601f19601f820116820180604052508101906105aa9190612bf8565b6040805161010081018252848152865160208201526001600160a01b03808c1692820192909252606081018390528551608082015290891660a08201523360c08201524260e08201529091506105fe611e5e565b9a5080600660008d8152602001908152602001600020600082015181600001556020820151816001015560408201518160020160006101000a8154816001600160a01b0302191690836001600160a01b03160217905550606082015181600301556080820151816004015560a08201518160050160006101000a8154816001600160a01b0302191690836001600160a01b0316021790555060c08201518160060160006101000a8154816001600160a01b0302191690836001600160a01b0316021790555060e08201518160070155905050600760008a6001600160a01b03166001600160a01b031681526020019081526020016000206000896001600160a01b03166001600160a01b031681526020019081526020016000206000336001600160a01b03166001600160a01b031681526020019081526020016000208b90806001815401808255809150506001900390600052602060002001600090919091909150557f9717ea499c0fba392e55b97dd4c755cebb204398666ac5aa0c5c211619fa1a8e8b826000015160001b836060015160001b84604001518560a00151428760c001516040516107b797969594939291906130cc565b60405180910390a15050505050505050505095945050505050565b600154600160a01b900460ff16156107e957600080fd5b600033905060006001600160a01b0316816001600160a01b031663f1be16796040518163ffffffff1660e01b815260040160206040518083038186803b15801561083257600080fd5b505afa158015610846573d6000803e3d6000fd5b505050506040513d601f19601f8201168201806040525081019061086a9190612835565b6001600160a01b0316141580156108ef5750806001600160a01b031663158ef93e6040518163ffffffff1660e01b8152600401602060405180830381600087803b1580156108b757600080fd5b505af11580156108cb573d6000803e3d6000fd5b505050506040513d601f19601f820116820180604052508101906108ef9190612bc0565b61090b5760405162461bcd60e51b815260040161036e90612fcf565b600080546001600160a01b0319166001600160a01b0383169081179091556040805163f1be167960e01b8152905163f1be167991600480820192602092909190829003018186803b15801561095f57600080fd5b505afa158015610973573d6000803e3d6000fd5b505050506040513d601f19601f820116820180604052508101906109979190612835565b60018054600395909555600280546fffffffffffffffffffffffffffffffff19166fffffffffffffffffffffffffffffffff600f9690960b9590951694909417909355600160a01b6001600160a01b03199094166001600160a01b03919091161760ff60a01b191692909217905550565b600054604051636071015d60e01b815233916001600160a01b031690636071015d90610a38908490600401612d30565b60206040518083038186803b158015610a5057600080fd5b505afa158015610a64573d6000803e3d6000fd5b505050506040513d601f19601f82011682018060405250810190610a889190612bc0565b1515600114610aa95760405162461bcd60e51b815260040161036e9061303d565b83518551148015610abb575082518451145b8015610ac8575081518351145b8015610ad5575084518751145b610af15760405162461bcd60e51b815260040161036e90612e02565b845160005b81811015610b7357610b6b898281518110610b0d57fe5b602002602001015189898481518110610b2257fe5b6020026020010151898581518110610b3657fe5b6020026020010151898681518110610b4a57fe5b6020026020010151898781518110610b5e57fe5b6020026020010151610f3d565b600101610af6565b505050505050505050565b600054604051636071015d60e01b815233916001600160a01b031690636071015d90610bae908490600401612d30565b60206040518083038186803b158015610bc657600080fd5b505afa158015610bda573d6000803e3d6000fd5b505050506040513d601f19601f82011682018060405250810190610bfe9190612bc0565b1515600114610c1f5760405162461bcd60e51b815260040161036e9061303d565b60008054604051631d22ca3760e31b81526001600160a01b039091169190829063e91651b890610c53908890600401612d30565b60206040518083038186803b158015610c6b57600080fd5b505afa158015610c7f573d6000803e3d6000fd5b505050506040513d601f19601f82011682018060405250810190610ca39190612835565b90506000826001600160a01b031663e91651b8866040518263ffffffff1660e01b8152600401610cd39190612d30565b60206040518083038186803b158015610ceb57600080fd5b505afa158015610cff573d6000803e3d6000fd5b505050506040513d601f19601f82011682018060405250810190610d239190612835565b90506001600160a01b03821615801590610d4557506001600160a01b03811615155b610d615760405162461bcd60e51b815260040161036e90612e80565b6000836001600160a01b031663bc3a2fbb6040518163ffffffff1660e01b815260040160206040518083038186803b158015610d9c57600080fd5b505afa158015610db0573d6000803e3d6000fd5b505050506040513d601f19601f82011682018060405250810190610dd49190612d0f565b60ff1690508815610e4457604051631b9276c760e21b81526001600160a01b03831690636e49db1c90610e119086908b9086908f90600401612d86565b600060405180830381600087803b158015610e2b57600080fd5b505af1158015610e3f573d6000803e3d6000fd5b505050505b8715610b7357604051631b9276c760e21b81526001600160a01b03841690636e49db1c90610e7c9085908a9086908e90600401612d86565b600060405180830381600087803b158015610e9657600080fd5b505af1158015610eaa573d6000803e3d6000fd5b50505050505050505050505050565b6001600160a01b03808416600090815260076020908152604080832086851684528252808320938516835292815290829020805483518184028101840190945280845260609392830182828015610f2f57602002820191906000526020600020905b815481526020019060010190808311610f1b575b505050505090509392505050565b600054604051636071015d60e01b815233916001600160a01b031690636071015d90610f6d908490600401612d30565b60206040518083038186803b158015610f8557600080fd5b505afa158015610f99573d6000803e3d6000fd5b505050506040513d601f19601f82011682018060405250810190610fbd9190612bc0565b1515600114610fde5760405162461bcd60e51b815260040161036e9061303d565b610fe787610ffe565b610ff486868686866102cc565b5050505050505050565b600054604051636071015d60e01b815233916001600160a01b031690636071015d9061102e908490600401612d30565b60206040518083038186803b15801561104657600080fd5b505afa15801561105a573d6000803e3d6000fd5b505050506040513d601f19601f8201168201806040525081019061107e9190612bc0565b151560011461109f5760405162461bcd60e51b815260040161036e9061303d565b600082815260066020819052604090912001546001600160a01b031633146110d95760405162461bcd60e51b815260040161036e90612f39565b6110e282611e6c565b5050565b6000546001600160a01b031681565b6001546001600160a01b031681565b600054604051636071015d60e01b815233916001600160a01b031690636071015d90611134908490600401612d30565b60206040518083038186803b15801561114c57600080fd5b505afa158015611160573d6000803e3d6000fd5b505050506040513d601f19601f820116820180604052508101906111849190612bc0565b15156001146111a55760405162461bcd60e51b815260040161036e9061303d565b60005b82518110156111db5760008382815181106111bf57fe5b602002602001015190506111d281610ffe565b506001016111a8565b505050565b600054604051636071015d60e01b815233916001600160a01b031690636071015d90611210908490600401612d30565b60206040518083038186803b15801561122857600080fd5b505afa15801561123c573d6000803e3d6000fd5b505050506040513d601f19601f820116820180604052508101906112609190612bc0565b15156001146112815760405162461bcd60e51b815260040161036e9061303d565b83518551148015611293575082518451145b80156112a0575081518351145b6112bc5760405162461bcd60e51b815260040161036e90613006565b845160005b81811015610ff457611322888883815181106112d957fe5b60200260200101518884815181106112ed57fe5b602002602001015188858151811061130157fe5b602002602001015188868151811061131557fe5b60200260200101516102cc565b506001016112c1565b600054604051636071015d60e01b815233916001600160a01b031690636071015d9061135b908490600401612d30565b60206040518083038186803b15801561137357600080fd5b505afa158015611387573d6000803e3d6000fd5b505050506040513d601f19601f820116820180604052508101906113ab9190612bc0565b15156001146113cc5760405162461bcd60e51b815260040161036e9061303d565b3360009081526008602090815260408083206001600160a01b038781168552925280832054918516835290912054811561159f576001600160a01b0385166000818152600560205260408082205490516370a0823160e01b815291926114a29261149c91906370a0823190611445903090600401612d30565b60206040518083038186803b15801561145d57600080fd5b505afa158015611471573d6000803e3d6000fd5b505050506040513d601f19601f820116820180604052508101906114959190612bf8565b8690612451565b906124b3565b60405163a9059cbb60e01b81529091506001600160a01b0387169063a9059cbb906114d39033908590600401612d6d565b602060405180830381600087803b1580156114ed57600080fd5b505af1158015611501573d6000803e3d6000fd5b505050506040513d601f19601f820116820180604052508101906115259190612bc0565b507fd7e245a0605e4329a3ae3bb51bbbe3c07c4c939cbf241c4cccf59b11c24529133387834260405161155b9493929190612d44565b60405180910390a1506001600160a01b0385166000818152600560209081526040808320805487900390553383526008825280832093835292905220805483900390555b801561173e576001600160a01b0384166000818152600560205260408082205490516370a0823160e01b815291926116419261149c91906370a08231906115ea903090600401612d30565b60206040518083038186803b15801561160257600080fd5b505afa158015611616573d6000803e3d6000fd5b505050506040513d601f19601f8201168201806040525081019061163a9190612bf8565b8590612451565b60405163a9059cbb60e01b81529091506001600160a01b0386169063a9059cbb906116729033908590600401612d6d565b602060405180830381600087803b15801561168c57600080fd5b505af11580156116a0573d6000803e3d6000fd5b505050506040513d601f19601f820116820180604052508101906116c49190612bc0565b507fd7e245a0605e4329a3ae3bb51bbbe3c07c4c939cbf241c4cccf59b11c2452913338683426040516116fa9493929190612d44565b60405180910390a1506001600160a01b0384166000818152600560209081526040808320805486900390553383526008825280832093835292905220805482900390555b5050505050565b6007602052836000526040600020602052826000526040600020602052816000526040600020818154811061177957600080fd5b906000526020600020016000935093505050505481565b600860209081526000928352604080842090915290825290205481565b60056020526000908152604090205481565b600054604051636071015d60e01b815233916001600160a01b031690636071015d906117ef908490600401612d30565b60206040518083038186803b15801561180757600080fd5b505afa15801561181b573d6000803e3d6000fd5b505050506040513d601f19601f8201168201806040525081019061183f9190612bc0565b15156001146118605760405162461bcd60e51b815260040161036e9061303d565b60008060009054906101000a90046001600160a01b03166001600160a01b031663bc3a2fbb6040518163ffffffff1660e01b815260040160206040518083038186803b1580156118af57600080fd5b505afa1580156118c3573d6000803e3d6000fd5b505050506040513d601f19601f820116820180604052508101906118e79190612d0f565b60ff169050886001600160a01b0316636e49db1c878a84896040518563ffffffff1660e01b815260040161191e9493929190612d86565b600060405180830381600087803b15801561193857600080fd5b505af115801561194c573d6000803e3d6000fd5b5050506001600160a01b038716905063fe009a2261197e61197761271061149c61ffff87168b612451565b889061251a565b8a8a88888f6040518763ffffffff1660e01b81526004016119a496959493929190613093565b602060405180830381600087803b1580156119be57600080fd5b505af11580156119d2573d6000803e3d6000fd5b505050506040513d601f19601f820116820180604052508101906119f69190612bf8565b50505050505050505050565b600660208190526000918252604090912080546001820154600283015460038401546004850154600586015496860154600790960154949693956001600160a01b0393841695929491939182169291169088565b60008054604051631d22ca3760e31b815282916001600160a01b03169063e91651b890611a87908790600401612d30565b60206040518083038186803b158015611a9f57600080fd5b505afa158015611ab3573d6000803e3d6000fd5b505050506040513d601f19601f82011682018060405250810190611ad79190612835565b600054604051631d22ca3760e31b81529193506001600160a01b03169063e91651b890611b08908690600401612d30565b60206040518083038186803b158015611b2057600080fd5b505afa158015611b34573d6000803e3d6000fd5b505050506040513d601f19601f82011682018060405250810190611b589190612835565b6040516370a0823160e01b81529091506001600160a01b038516906370a0823190611b87908590600401612d30565b60206040518083038186803b158015611b9f57600080fd5b505afa158015611bb3573d6000803e3d6000fd5b505050506040513d601f19601f82011682018060405250810190611bd79190612bf8565b611cda606461149c60008054906101000a90046001600160a01b03166001600160a01b0316630c7d5cd86040518163ffffffff1660e01b815260040160206040518083038186803b158015611c2b57600080fd5b505afa158015611c3f573d6000803e3d6000fd5b505050506040513d601f19601f82011682018060405250810190611c639190612bf8565b866001600160a01b03166359356c5c6040518163ffffffff1660e01b815260040160206040518083038186803b158015611c9c57600080fd5b505afa158015611cb0573d6000803e3d6000fd5b505050506040513d601f19601f82011682018060405250810190611cd49190612bf8565b90612451565b1115611cf85760405162461bcd60e51b815260040161036e90612f88565b6040516370a0823160e01b81526001600160a01b038416906370a0823190611d24908490600401612d30565b60206040518083038186803b158015611d3c57600080fd5b505afa158015611d50573d6000803e3d6000fd5b505050506040513d601f19601f82011682018060405250810190611d749190612bf8565b611e39606461149c60008054906101000a90046001600160a01b03166001600160a01b0316630c7d5cd86040518163ffffffff1660e01b815260040160206040518083038186803b158015611dc857600080fd5b505afa158015611ddc573d6000803e3d6000fd5b505050506040513d601f19601f82011682018060405250810190611e009190612bf8565b856001600160a01b03166359356c5c6040518163ffffffff1660e01b815260040160206040518083038186803b158015611c9c57600080fd5b1115611e575760405162461bcd60e51b815260040161036e90612e39565b9250929050565b600480546001019081905590565b60008181526006602081815260408084208151610100810183528154815260018201549381019390935260028101546001600160a01b039081168484018190526003830154606086015260048084015460808701526005840154831660a0870181905296840154831660c087015260079093015460e086015286549351631d22ca3760e31b8152949690959490939091169163e91651b891611f1091879101612d30565b60206040518083038186803b158015611f2857600080fd5b505afa158015611f3c573d6000803e3d6000fd5b505050506040513d601f19601f82011682018060405250810190611f609190612835565b60008054604051631d22ca3760e31b815292935090916001600160a01b039091169063e91651b890611f96908690600401612d30565b60206040518083038186803b158015611fae57600080fd5b505afa158015611fc2573d6000803e3d6000fd5b505050506040513d601f19601f82011682018060405250810190611fe69190612835565b90506000611ff78660000151612577565b905060006120088760600151612577565b82516020890151825160808b01518b5194955092909103929103901561218257811561212057612041828a60c001518b6040015161263b565b604051631063a4cf60e31b81526001600160a01b0387169063831d26789061206d90859060040161308a565b600060405180830381600087803b15801561208757600080fd5b505af115801561209b573d6000803e3d6000fd5b505050508860200151821461211b57885160208a01516001600160a01b0388169162efa895916120cb908661251a565b6040518363ffffffff1660e01b81526004016120e8929190613131565b600060405180830381600087803b15801561210257600080fd5b505af1158015612116573d6000803e3d6000fd5b505050505b612182565b885160208a015160405162efa89560e01b81526001600160a01b0389169262efa8959261214f92600401613131565b600060405180830381600087803b15801561216957600080fd5b505af115801561217d573d6000803e3d6000fd5b505050505b6060890151156122f257801561228d576121a5818a60c001518b60a0015161263b565b604051631063a4cf60e31b81526001600160a01b0386169063831d2678906121d190849060040161308a565b600060405180830381600087803b1580156121eb57600080fd5b505af11580156121ff573d6000803e3d6000fd5b505050508860800151811461228857846001600160a01b031662efa8958a60600151612238848d6080015161251a90919063ffffffff16565b6040518363ffffffff1660e01b8152600401612255929190613131565b600060405180830381600087803b15801561226f57600080fd5b505af1158015612283573d6000803e3d6000fd5b505050505b6122f2565b606089015160808a015160405162efa89560e01b81526001600160a01b0388169262efa895926122bf92600401613131565b600060405180830381600087803b1580156122d957600080fd5b505af11580156122ed573d6000803e3d6000fd5b505050505b6001600160a01b0380891660009081526007602090815260408083208b85168452825280832060c08e01519094168352929052908120612333908c90612678565b90506000600760008b6001600160a01b03166001600160a01b0316815260200190815260200160002060008a6001600160a01b03166001600160a01b0316815260200190815260200160002060008c60c001516001600160a01b03166001600160a01b031681526020019081526020016000209050806001828054905003815481106123bb57fe5b90600052602060002001548183815481106123d257fe5b9060005260206000200181905550808054806123ea57fe5b600190038181906000526020600020016000905590557f030b89afc87aaffa357d9c4098ca6f70a13d8658f44140c561bddd866d665eb68c858c8b878e8d60405161243b979695949392919061313f565b60405180910390a1505050505050505050505050565b600082612460575060006124ad565b8282028284828161246d57fe5b04146124aa5760405162461bcd60e51b81526004018080602001828103825260218152602001806131d76021913960400191505060405180910390fd5b90505b92915050565b6000808211612509576040805162461bcd60e51b815260206004820152601a60248201527f536166654d6174683a206469766973696f6e206279207a65726f000000000000604482015290519081900360640190fd5b81838161251257fe5b049392505050565b600082821115612571576040805162461bcd60e51b815260206004820152601e60248201527f536166654d6174683a207375627472616374696f6e206f766572666c6f770000604482015290519081900360640190fd5b50900390565b61257f6126da565b6001546040516322bc934560e11b81526000918291829182916001600160a01b0390911690634579268a906125b890899060040161308a565b60806040518083038186803b1580156125d057600080fd5b505afa1580156125e4573d6000803e3d6000fd5b505050506040513d601f19601f820116820180604052508101906126089190612c5e565b604080516080810182529485526001600160a01b0393841660208601528401919091521660608201529695505050505050565b6001600160a01b03918216600090815260086020908152604080832093909416825291825282812080548501905560059091522080549091019055565b600080805b83548110156126b55783818154811061269257fe5b90600052602060002001548514156126ad5791506124ad9050565b60010161267d565b50806126d35760405162461bcd60e51b815260040161036e90612ee7565b5092915050565b60405180608001604052806000815260200160006001600160a01b031681526020016000815260200160006001600160a01b031681525090565b600082601f830112612724578081fd5b6040516040810181811067ffffffffffffffff8211171561274157fe5b8060405250808385604086011115612757578384fd5b835b600281101561278257813561276d816131be565b83526020928301929190910190600101612759565b509195945050505050565b600082601f83011261279d578081fd5b8135602067ffffffffffffffff808311156127b457fe5b818302604051838282010181811084821117156127cd57fe5b604052848152838101925086840182880185018910156127eb578687fd5b8692505b8583101561280d5780358452928401926001929092019184016127ef565b50979650505050505050565b60006020828403121561282a578081fd5b81356124aa816131be565b600060208284031215612846578081fd5b81516124aa816131be565b60008060408385031215612863578081fd5b823561286e816131be565b9150602083013561287e816131be565b809150509250929050565b60008060006060848603121561289d578081fd5b83356128a8816131be565b925060208401356128b8816131be565b915060408401356128c8816131be565b809150509250925092565b600080600080600080600060e0888a0312156128ed578283fd5b87356128f8816131be565b96506020880135612908816131be565b95506040880135612918816131be565b94506060880135612928816131be565b93506080880135925060a0880135915060c088013562ffffff8116811461294d578182fd5b8091505092959891949750929550565b60008060008060808587031215612972578384fd5b843561297d816131be565b9350602085013561298d816131be565b9250604085013561299d816131be565b9396929550929360600135925050565b600080600080600060c086880312156129c4578081fd5b6129ce8787612714565b9450604086013567ffffffffffffffff808211156129ea578283fd5b6129f689838a0161278d565b95506060880135915080821115612a0b578283fd5b612a1789838a0161278d565b94506080880135915080821115612a2c578283fd5b612a3889838a0161278d565b935060a0880135915080821115612a4d578283fd5b50612a5a8882890161278d565b9150509295509295909350565b600080600080600060c08688031215612a7e578081fd5b612a888787612714565b97604087013597506060870135966080810135965060a00135945092505050565b600060208284031215612aba578081fd5b813567ffffffffffffffff811115612ad0578182fd5b612adc8482850161278d565b949350505050565b60008060008060008060e08789031215612afc578384fd5b863567ffffffffffffffff80821115612b13578586fd5b612b1f8a838b0161278d565b9750612b2e8a60208b01612714565b96506060890135915080821115612b43578586fd5b612b4f8a838b0161278d565b95506080890135915080821115612b64578384fd5b612b708a838b0161278d565b945060a0890135915080821115612b85578384fd5b612b918a838b0161278d565b935060c0890135915080821115612ba6578283fd5b50612bb389828a0161278d565b9150509295509295509295565b600060208284031215612bd1578081fd5b815180151581146124aa578182fd5b600060208284031215612bf1578081fd5b5035919050565b600060208284031215612c09578081fd5b5051919050565b60008060008060008060e08789031215612c28578384fd5b86359550612c398860208901612714565b959895975050505060608401359360808101359360a0820135935060c0909101359150565b60008060008060808587031215612c73578182fd5b845193506020850151612c85816131be565b604086015160608701519194509250612c9d816131be565b939692955090935050565b60008060408385031215612cba578182fd5b82359150602083013580600f0b811461287e578182fd5b60008060008060808587031215612ce6578182fd5b84359350602085013592506040850135612cff816131be565b91506060850135612c9d816131be565b600060208284031215612d20578081fd5b815160ff811681146124aa578182fd5b6001600160a01b0391909116815260200190565b6001600160a01b0394851681529290931660208301526040820152606081019190915260800190565b6001600160a01b03929092168252602082015260400190565b6001600160a01b03948516815292909316602083015261ffff166040820152606081019190915260800190565b6020808252825182820181905260009190848201906040850190845b81811015612deb57835183529284019291840191600101612dcf565b50909695505050505050565b901515815260200190565b6020808252601b908201527f6e6f7420616c6c20696e707574206c656e67746873206d617463680000000000604082015260600190565b60208082526027908201527f4661696c656420746f206d6565742071756f746520706f6f6c207265736572766040820152666520726174696f60c81b606082015260800190565b6020808252601690820152753a37b5b2b72a37a130ba342a37b5b2b71032b93937b960511b604082015260600190565b6020808252601a908201527f6f6e65206f72646572206d757374206265206e6f6e2d7a65726f000000000000604082015260600190565b60208082526032908201527f4469646e742046696e64207468617420656c656d656e7420696e206c697665206040820152713634b9ba161031b0b73737ba1039b1b93ab160711b606082015260800190565b6020808252602f908201527f796f7520617265206e6f7420746865207374726174656769737420746861742060408201526e36b0b232903a3434b99037b93232b960891b606082015260800190565b60208082526027908201527f4661696c656420746f206d65657420617373657420706f6f6c207265736572766040820152666520726174696f60c81b606082015260800190565b60208082526019908201527f42617468486f757365206e6f7420696e697469616c697a656400000000000000604082015260600190565b6020808252601b908201527f6e6f7420616c6c206f72646572206c656e67746873206d617463680000000000604082015260600190565b6020808252602d908201527f796f7520617265206e6f7420616e20617070726f76656420737472617465676960408201526c39ba1016903130ba342830b4b960991b606082015260800190565b90815260200190565b9586526001600160a01b0394851660208701529284166040860152606085019190915262ffffff1660808401521660a082015260c00190565b968752602087019590955260408601939093526001600160a01b0391821660608601528116608085015260a08401919091521660c082015260e00190565b9384526001600160a01b039283166020850152604084019190915216606082015260800190565b918252602082015260400190565b96875260208701959095526001600160a01b03938416604087015291831660608601526080850152811660a08401521660c082015260e00190565b97885260208801969096526001600160a01b03948516604088015260608701939093526080860191909152821660a08501521660c083015260e08201526101000190565b6001600160a01b03811681146131d357600080fd5b5056fe536166654d6174683a206d756c7469706c69636174696f6e206f766572666c6f77a264697066735822122043f07659f6738fb4e6c1ee05c08c8be8310575740b2766b5eb4590023ddc243664736f6c63430007060033",
  "immutableReferences": {},
  "source": "// SPDX-License-Identifier: BUSL-1.1\n\n/// @author Rubicon DeFi Inc. - bghughes.eth\n/// @notice This contract allows a strategist to use user funds in order to market make for a Rubicon pair\n/// @notice The BathPair is the admin for the pair's liquidity and has many security checks in place\n/// @notice This contract is also where strategists claim rewards for successful market making\n\npragma solidity =0.7.6;\npragma experimental ABIEncoderV2;\n\nimport \"@openzeppelin/contracts/token/ERC20/IERC20.sol\";\nimport \"@openzeppelin/contracts/math/SafeMath.sol\";\nimport \"../interfaces/IBathToken.sol\";\nimport \"../interfaces/IBathHouse.sol\";\nimport \"../interfaces/IRubiconMarket.sol\";\nimport \"../interfaces/IStrategistUtility.sol\";\n\ncontract BathPair {\n    /// *** Libraries ***\n    using SafeMath for uint256;\n    using SafeMath for uint16;\n\n    /// *** Storage Variables ***\n\n    /// @notice The Bath House admin of this contract; used with onlyBathHouse()\n    address public bathHouse;\n\n    /// @notice The Rubicon Market strategists direct all activity towards. There is only one market, RubiconMarket.sol, in the Rubicon Protocol\n    address public RubiconMarketAddress;\n\n    /// @notice The initialization status of BathPair\n    bool public initialized;\n\n    /// @dev Keeping deprecated variables maintains consistent network-agnostic contract abis when moving to new chains and versions\n    int128 internal deprecatedStorageVarKept420Proxy;\n\n    /// @notice Intentionally unused DEPRECATED STORAGE VARIABLE to maintain contiguous state on proxy-wrapped contracts. Consider it a beautiful scar of incremental progress \n    /// @dev Keeping deprecated variables maintains consistent network-agnostic contract abis when moving to new chains and versions\n    uint256 public deprecatedStorageVarKept4Proxy;\n\n    /// @dev The id of the last StrategistTrade made by any strategist on this contract\n    /// @dev This value is globally unique, and increments with every trade\n    uint256 internal last_stratTrade_id;\n\n    /// @notice The total amount of successful offer fills that all strategists have made for a given asset\n    mapping(address => uint256) public totalFillsPerAsset;\n\n    /// @notice Unique id => StrategistTrade created in marketMaking call\n    mapping(uint256 => StrategistTrade) public strategistTrades;\n\n    /// @notice Map a strategist to their outstanding order IDs\n    mapping(address => mapping(address => mapping(address => uint256[])))\n        public outOffersByStrategist;\n\n    /// @notice Tracks the market-kaing fill amounts on a per-asset basis of a strategist\n    /// @dev strategist => erc20asset => fill amount per asset;\n    mapping(address => mapping(address => uint256)) public strategist2Fills;\n\n    /// *** Structs ***\n\n    struct order {\n        uint256 pay_amt;\n        IERC20 pay_gem;\n        uint256 buy_amt;\n        IERC20 buy_gem;\n    }\n\n    struct StrategistTrade {\n        uint256 askId;\n        uint256 askPayAmt;\n        address askAsset;\n        uint256 bidId;\n        uint256 bidPayAmt;\n        address bidAsset;\n        address strategist;\n        uint256 timestamp;\n    }\n\n    /// *** Events ***\n\n    /// @notice Log a new market-making trade placed by a strategist, resulting in a StrategitTrade\n    event LogStrategistTrade(\n        uint256 strategistTradeID,\n        bytes32 askId,\n        bytes32 bidId,\n        address askAsset,\n        address bidAsset,\n        uint256 timestamp,\n        address strategist\n    );\n\n    /// @notice Logs the cancellation of a StrategistTrade\n    event LogScrubbedStratTrade(\n        uint256 strategistIDScrubbed,\n        uint256 assetFill,\n        address assetAddress,\n        address bathAssetAddress,\n        uint256 quoteFill,\n        address quoteAddress,\n        address bathQuoteAddress\n    );\n\n    /// @notice Log when a strategist claims their market-making rewards (effectively a rebate for good performance)\n    event LogStrategistRewardClaim(\n        address strategist,\n        address asset,\n        uint256 amountOfReward,\n        uint256 timestamp\n    );\n\n    /// *** External Functions ***\n\n    /// @notice Constructor-like initialization function\n    /// @dev Proxy-safe initialization of storage\n    function initialize(uint256 _maxOrderSizeBPS, int128 _shapeCoefNum)\n        external\n    {\n        require(!initialized);\n        address _bathHouse = msg.sender; //Assume the initializer is BathHouse\n        require(\n            IBathHouse(_bathHouse).getMarket() !=\n                address(0x0000000000000000000000000000000000000000) &&\n                IBathHouse(_bathHouse).initialized(),\n            \"BathHouse not initialized\"\n        );\n        bathHouse = _bathHouse;\n\n        RubiconMarketAddress = IBathHouse(_bathHouse).getMarket();\n\n        // Shape variables for dynamic inventory management\n        /// *** DEprecate but keep storage variable on OP\n        deprecatedStorageVarKept4Proxy = _maxOrderSizeBPS;\n\n        /// @dev A deprecated storage variable! Turns out order books are elegant and complex math is simply computed off-chain, and priced in on-chain orders at the speed of Ethereum L2s!\n        deprecatedStorageVarKept420Proxy = _shapeCoefNum;\n\n        initialized = true;\n    }\n\n    /// *** Modifiers ***\n\n    modifier onlyBathHouse() {\n        require(msg.sender == bathHouse);\n        _;\n    }\n\n    modifier onlyApprovedStrategist(address targetStrategist) {\n        require(\n            IBathHouse(bathHouse).isApprovedStrategist(targetStrategist) ==\n                true,\n            \"you are not an approved strategist - bathPair\"\n        );\n        _;\n    }\n\n    // *** Internal Functions ***\n\n    /// @notice This function enforces that the Bath House reserveRatio (a % of underlying pool liquidity) is enforced across all pools\n    /// @dev This function should ensure that reserveRatio % of the underlying liquidity always remains on the Bath Token. Utilization should be 1 - reserveRatio in practice assuming strategists use all available liquidity.\n    function enforceReserveRatio(\n        address underlyingAsset,\n        address underlyingQuote\n    )\n        internal\n        view\n        returns (address bathAssetAddress, address bathQuoteAddress)\n    {\n        bathAssetAddress = IBathHouse(bathHouse).tokenToBathToken(\n            underlyingAsset\n        );\n        bathQuoteAddress = IBathHouse(bathHouse).tokenToBathToken(\n            underlyingQuote\n        );\n        require(\n            (\n                IBathToken(bathAssetAddress).underlyingBalance().mul(\n                    IBathHouse(bathHouse).reserveRatio()\n                )\n            ).div(100) <= IERC20(underlyingAsset).balanceOf(bathAssetAddress),\n            \"Failed to meet asset pool reserve ratio\"\n        );\n        require(\n            (\n                IBathToken(bathQuoteAddress).underlyingBalance().mul(\n                    IBathHouse(bathHouse).reserveRatio()\n                )\n            ).div(100) <= IERC20(underlyingQuote).balanceOf(bathQuoteAddress),\n            \"Failed to meet quote pool reserve ratio\"\n        );\n    }\n\n    /// @notice Log whenever a strategist rebalances a fill amount and log the amount while incrementing total fills for that specific asset\n    /// @dev Only log fills for each strategist in an asset specific manner\n    /// @dev Goal is to map a strategist to a fill\n    function logFill(\n        uint256 amt,\n        address strategist,\n        address asset\n    ) internal {\n        strategist2Fills[strategist][asset] += amt;\n        totalFillsPerAsset[asset] += amt;\n    }\n\n    /// @notice Internal function to provide the next unique StrategistTrade ID\n    function _next_id() internal returns (uint256) {\n        last_stratTrade_id++;\n        return last_stratTrade_id;\n    }\n\n    /// @notice This function results in the removal of the Strategist Trade (bid and/or ask on Rubicon Market) from the books and it being deleted from the contract\n    /// @dev The local array of strategist IDs that exists for any given strategist [query via getOutstandingStrategistTrades()] acts as an acitve RAM for outstanding strategist trades\n    /// @dev Cancels outstanding orders and manages the ledger of outstandingAmount() on bathTokens as Strategist Trades are cancelled/scrubbed or expired\n    function handleStratOrderAtID(uint256 id) internal {\n        StrategistTrade memory info = strategistTrades[id];\n        address _asset = info.askAsset;\n        address _quote = info.bidAsset;\n\n        address bathAssetAddress = IBathHouse(bathHouse).tokenToBathToken(\n            _asset\n        );\n        address bathQuoteAddress = IBathHouse(bathHouse).tokenToBathToken(\n            _quote\n        );\n        order memory offer1 = getOfferInfo(info.askId); //ask\n        order memory offer2 = getOfferInfo(info.bidId); //bid\n        uint256 askDelta = info.askPayAmt - offer1.pay_amt;\n        uint256 bidDelta = info.bidPayAmt - offer2.pay_amt;\n\n        // if real\n        if (info.askId != 0) {\n            // if delta > 0 - delta is fill => handle any amount of fill here\n            if (askDelta > 0) {\n                logFill(askDelta, info.strategist, info.askAsset);\n                IBathToken(bathAssetAddress).removeFilledTradeAmount(askDelta);\n                // not a full fill\n                if (askDelta != info.askPayAmt) {\n                    IBathToken(bathAssetAddress).cancel(\n                        info.askId,\n                        info.askPayAmt.sub(askDelta)\n                    );\n                }\n            }\n            // otherwise didn't fill so cancel\n            else {\n                IBathToken(bathAssetAddress).cancel(info.askId, info.askPayAmt); // pas amount too\n            }\n        }\n\n        // if real\n        if (info.bidId != 0) {\n            // if delta > 0 - delta is fill => handle any amount of fill here\n            if (bidDelta > 0) {\n                logFill(bidDelta, info.strategist, info.bidAsset);\n                IBathToken(bathQuoteAddress).removeFilledTradeAmount(bidDelta);\n                // not a full fill\n                if (bidDelta != info.bidPayAmt) {\n                    IBathToken(bathQuoteAddress).cancel(\n                        info.bidId,\n                        info.bidPayAmt.sub(bidDelta)\n                    );\n                }\n            }\n            // otherwise didn't fill so cancel\n            else {\n                IBathToken(bathQuoteAddress).cancel(info.bidId, info.bidPayAmt); // pass amount too\n            }\n        }\n\n        // Delete the order from outOffersByStrategist\n        uint256 target = getIndexFromElement(\n            id,\n            outOffersByStrategist[_asset][_quote][info.strategist]\n        );\n        uint256[] storage current = outOffersByStrategist[_asset][_quote][\n            info.strategist\n        ];\n        current[target] = current[current.length - 1];\n        current.pop(); // Assign the last value to the value we want to delete and pop, best way to do this in solc AFAIK\n\n        emit LogScrubbedStratTrade(\n            id,\n            askDelta,\n            _asset,\n            bathAssetAddress,\n            bidDelta,\n            _quote,\n            bathQuoteAddress\n        );\n    }\n\n    /// @notice Get information about a Rubicon Market offer and return it as an order\n    function getOfferInfo(uint256 id) internal view returns (order memory) {\n        (\n            uint256 ask_amt,\n            IERC20 ask_gem,\n            uint256 bid_amt,\n            IERC20 bid_gem\n        ) = IRubiconMarket(RubiconMarketAddress).getOffer(id);\n        order memory offerInfo = order(ask_amt, ask_gem, bid_amt, bid_gem);\n        return offerInfo;\n    }\n\n    /// @notice A function that returns the index of uid from array\n    /// @dev uid must be in array for the purposes of this contract to enforce outstanding trades per strategist are tracked correctly\n    function getIndexFromElement(uint256 uid, uint256[] storage array)\n        internal\n        view\n        returns (uint256 _index)\n    {\n        bool assigned = false;\n        for (uint256 index = 0; index < array.length; index++) {\n            if (uid == array[index]) {\n                _index = index;\n                assigned = true;\n                return _index;\n            }\n        }\n        require(assigned, \"Didnt Find that element in live list, cannot scrub\");\n    }\n\n    // *** External Functions - Only Approved Strategists ***\n\n    /// @notice Key entry point for strategists to use Bath Token (LP) funds to place market-making trades on the Rubicon Order Book\n    function placeMarketMakingTrades(\n        address[2] memory tokenPair, // ASSET, Then Quote\n        uint256 askNumerator, // Quote / Asset\n        uint256 askDenominator, // Asset / Quote\n        uint256 bidNumerator, // size in ASSET\n        uint256 bidDenominator // size in QUOTES\n    ) public onlyApprovedStrategist(msg.sender) returns (uint256 id) {\n        // Require at least one order is non-zero\n        require(\n            (askNumerator > 0 && askDenominator > 0) ||\n                (bidNumerator > 0 && bidDenominator > 0),\n            \"one order must be non-zero\"\n        );\n\n        address _underlyingAsset = tokenPair[0];\n        address _underlyingQuote = tokenPair[1];\n\n        (\n            address bathAssetAddress,\n            address bathQuoteAddress\n        ) = enforceReserveRatio(_underlyingAsset, _underlyingQuote);\n\n        require(\n            bathAssetAddress != address(0) && bathQuoteAddress != address(0),\n            \"tokenToBathToken error\"\n        );\n\n        // Calculate new bid and/or ask\n        order memory ask = order(\n            askNumerator,\n            IERC20(_underlyingAsset),\n            askDenominator,\n            IERC20(_underlyingQuote)\n        );\n        order memory bid = order(\n            bidNumerator,\n            IERC20(_underlyingQuote),\n            bidDenominator,\n            IERC20(_underlyingAsset)\n        );\n\n        // Place new bid and/or ask\n        // Note: placeOffer returns a zero if an incomplete order\n        uint256 newAskID = IBathToken(bathAssetAddress).placeOffer(\n            ask.pay_amt,\n            ask.pay_gem,\n            ask.buy_amt,\n            ask.buy_gem\n        );\n\n        uint256 newBidID = IBathToken(bathQuoteAddress).placeOffer(\n            bid.pay_amt,\n            bid.pay_gem,\n            bid.buy_amt,\n            bid.buy_gem\n        );\n\n        // Strategist trade is recorded so they can get paid and the trade is logged for time\n        StrategistTrade memory outgoing = StrategistTrade(\n            newAskID,\n            ask.pay_amt,\n            _underlyingAsset,\n            newBidID,\n            bid.pay_amt,\n            _underlyingQuote,\n            msg.sender,\n            block.timestamp\n        );\n\n        // Give each trade a unique id for easy handling by strategists\n        id = _next_id();\n        strategistTrades[id] = outgoing;\n        // Allow strategists to easily call a list of their outstanding offers\n        outOffersByStrategist[_underlyingAsset][_underlyingQuote][msg.sender]\n            .push(id);\n\n        emit LogStrategistTrade(\n            id,\n            bytes32(outgoing.askId),\n            bytes32(outgoing.bidId),\n            outgoing.askAsset,\n            outgoing.bidAsset,\n            block.timestamp,\n            outgoing.strategist\n        );\n    }\n\n    /// @notice A function to batch together many placeMarketMakingTrades() in a single transaction\n    function batchMarketMakingTrades(\n        address[2] memory tokenPair, // ASSET, Then Quote\n        uint256[] memory askNumerators, // Quote / Asset\n        uint256[] memory askDenominators, // Asset / Quote\n        uint256[] memory bidNumerators, // size in ASSET\n        uint256[] memory bidDenominators // size in QUOTES\n    ) external onlyApprovedStrategist(msg.sender) {\n        require(\n            askNumerators.length == askDenominators.length &&\n                askDenominators.length == bidNumerators.length &&\n                bidNumerators.length == bidDenominators.length,\n            \"not all order lengths match\"\n        );\n        uint256 quantity = askNumerators.length;\n\n        for (uint256 index = 0; index < quantity; index++) {\n            placeMarketMakingTrades(\n                tokenPair,\n                askNumerators[index],\n                askDenominators[index],\n                bidNumerators[index],\n                bidDenominators[index]\n            );\n        }\n    }\n\n    /// @notice A function to requote an outstanding order and replace it with a new Strategist Trade\n    /// @dev Note that this function will create a new unique id for the requote'd ID due to the low-level functionality\n    function requote(\n        uint256 id,\n        address[2] memory tokenPair, // ASSET, Then Quote\n        uint256 askNumerator, // Quote / Asset\n        uint256 askDenominator, // Asset / Quote\n        uint256 bidNumerator, // size in ASSET\n        uint256 bidDenominator // size in QUOTES\n    ) public onlyApprovedStrategist(msg.sender) {\n        // 1. Scrub strat trade\n        scrubStrategistTrade(id);\n\n        // 2. Place another\n        placeMarketMakingTrades(\n            tokenPair,\n            askNumerator,\n            askDenominator,\n            bidNumerator,\n            bidDenominator\n        );\n    }\n\n    /// @notice A function to batch together many requote() calls in a single transaction\n    /// @dev Ids and input are indexed through to execute requotes\n    function batchRequoteOffers(\n        uint256[] memory ids,\n        address[2] memory tokenPair, // ASSET, Then Quote\n        uint256[] memory askNumerators, // Quote / Asset\n        uint256[] memory askDenominators, // Asset / Quote\n        uint256[] memory bidNumerators, // size in ASSET\n        uint256[] memory bidDenominators // size in QUOTES\n    ) external onlyApprovedStrategist(msg.sender) {\n        require(\n            askNumerators.length == askDenominators.length &&\n                askDenominators.length == bidNumerators.length &&\n                bidNumerators.length == bidDenominators.length &&\n                ids.length == askNumerators.length,\n            \"not all input lengths match\"\n        );\n        uint256 quantity = askNumerators.length;\n\n        for (uint256 index = 0; index < quantity; index++) {\n            requote(\n                ids[index],\n                tokenPair,\n                askNumerators[index],\n                askDenominators[index],\n                bidNumerators[index],\n                bidDenominators[index]\n            );\n        }\n    }\n\n    /// @notice - function to rebalance fill between two pools\n    function rebalancePair(\n        uint256 assetRebalAmt, //amount of ASSET in the quote buffer\n        uint256 quoteRebalAmt, //amount of QUOTE in the asset buffer\n        address _underlyingAsset,\n        address _underlyingQuote\n    ) external onlyApprovedStrategist(msg.sender) {\n        address _bathHouse = bathHouse;\n        address _bathAssetAddress = IBathHouse(_bathHouse).tokenToBathToken(\n            _underlyingAsset\n        );\n        address _bathQuoteAddress = IBathHouse(_bathHouse).tokenToBathToken(\n            _underlyingQuote\n        );\n        require(\n            _bathAssetAddress != address(0) && _bathQuoteAddress != address(0),\n            \"tokenToBathToken error\"\n        );\n\n        // This should be localized to the bathToken in future versions\n        uint16 stratReward = IBathHouse(_bathHouse).getBPSToStrats();\n\n        // Simply rebalance given amounts\n        if (assetRebalAmt > 0) {\n            IBathToken(_bathQuoteAddress).rebalance(\n                _bathAssetAddress,\n                _underlyingAsset,\n                stratReward,\n                assetRebalAmt\n            );\n        }\n        if (quoteRebalAmt > 0) {\n            IBathToken(_bathAssetAddress).rebalance(\n                _bathQuoteAddress,\n                _underlyingQuote,\n                stratReward,\n                quoteRebalAmt\n            );\n        }\n    }\n\n    /// @notice Function to attempt inventory risk tail off on an AMM\n    /// @dev This function calls the strategist utility which handles the trade and returns funds to LPs\n    function tailOff(\n        address targetPool,\n        address tokenToHandle,\n        address targetToken,\n        address _stratUtil, // delegatecall target\n        uint256 amount, //fill amount to handle\n        uint256 hurdle, //must clear this on tail off\n        uint24 _poolFee\n    ) external onlyApprovedStrategist(msg.sender) {\n        // transfer here\n        uint16 stratRewardBPS = IBathHouse(bathHouse).getBPSToStrats();\n\n        IBathToken(targetPool).rebalance(\n            _stratUtil,\n            tokenToHandle,\n            stratRewardBPS,\n            amount\n        );\n\n        // Should always exceed hurdle given amountOutMinimum\n        IStrategistUtility(_stratUtil).UNIdump(\n            amount.sub((stratRewardBPS.mul(amount)).div(10000)),\n            tokenToHandle,\n            targetToken,\n            hurdle,\n            _poolFee,\n            targetPool\n        );\n    }\n\n    /// @notice Cancel an outstanding strategist offers and return funds to LPs while logging fills\n    function scrubStrategistTrade(uint256 id)\n        public\n        onlyApprovedStrategist(msg.sender)\n    {\n        require(\n            msg.sender == strategistTrades[id].strategist,\n            \"you are not the strategist that made this order\"\n        );\n        handleStratOrderAtID(id);\n    }\n\n    /// @notice Batch scrub outstanding strategist trades and return funds to LPs\n    function scrubStrategistTrades(uint256[] memory ids)\n        external\n        onlyApprovedStrategist(msg.sender)\n    {\n        for (uint256 index = 0; index < ids.length; index++) {\n            uint256 _id = ids[index];\n            scrubStrategistTrade(_id);\n        }\n    }\n\n    /// @notice Function where strategists claim rewards proportional to their quantity of fills\n    /// @dev This function should allow a strategist to claim ERC20s sitting on this contract (earned via rebalancing) relative to their share or strategist activity on the pair\n    /// @dev Provide the pair on which you want to claim rewards\n    function strategistBootyClaim(address asset, address quote)\n        external\n        onlyApprovedStrategist(msg.sender)\n    {\n        uint256 fillCountA = strategist2Fills[msg.sender][asset];\n        uint256 fillCountQ = strategist2Fills[msg.sender][quote];\n        if (fillCountA > 0) {\n            uint256 booty = (\n                fillCountA.mul(IERC20(asset).balanceOf(address(this)))\n            ).div(totalFillsPerAsset[asset]);\n            IERC20(asset).transfer(msg.sender, booty);\n            emit LogStrategistRewardClaim(\n                msg.sender,\n                asset,\n                booty,\n                block.timestamp\n            );\n            totalFillsPerAsset[asset] -= fillCountA;\n            strategist2Fills[msg.sender][asset] -= fillCountA;\n        }\n        if (fillCountQ > 0) {\n            uint256 booty = (\n                fillCountQ.mul(IERC20(quote).balanceOf(address(this)))\n            ).div(totalFillsPerAsset[quote]);\n            IERC20(quote).transfer(msg.sender, booty);\n            emit LogStrategistRewardClaim(\n                msg.sender,\n                quote,\n                booty,\n                block.timestamp\n            );\n            totalFillsPerAsset[quote] -= fillCountQ;\n            strategist2Fills[msg.sender][quote] -= fillCountQ;\n        }\n    }\n\n    /// *** View Functions ***\n\n    /// @notice The goal of this function is to enable a means to retrieve all outstanding orders a strategist has live in the books\n    /// @dev This is helpful to manage orders as well as track all strategist orders (like their RAM of StratTrade IDs) and place any would-be constraints on strategists\n    function getOutstandingStrategistTrades(\n        address asset,\n        address quote,\n        address strategist\n    ) public view returns (uint256[] memory) {\n        return outOffersByStrategist[asset][quote][strategist];\n    }\n}\n",
  "sourcePath": "/Users/bghughes/workspace/2022-05-rubicon/contracts/rubiconPools/BathPair.sol",
  "compiler": {
    "name": "solc",
    "version": "0.7.6+commit.7338295f.Emscripten.clang"
  },
  "schemaVersion": "3.3.4",
  "updatedAt": "2022-05-20T22:17:11.930Z",
  "devdoc": {
    "kind": "dev",
    "methods": {
      "batchRequoteOffers(uint256[],address[2],uint256[],uint256[],uint256[],uint256[])": {
        "details": "Ids and input are indexed through to execute requotes"
      },
      "getOutstandingStrategistTrades(address,address,address)": {
        "details": "This is helpful to manage orders as well as track all strategist orders (like their RAM of StratTrade IDs) and place any would-be constraints on strategists"
      },
      "initialize(uint256,int128)": {
        "details": "Proxy-safe initialization of storage"
      },
      "requote(uint256,address[2],uint256,uint256,uint256,uint256)": {
        "details": "Note that this function will create a new unique id for the requote'd ID due to the low-level functionality"
      },
      "strategistBootyClaim(address,address)": {
        "details": "This function should allow a strategist to claim ERC20s sitting on this contract (earned via rebalancing) relative to their share or strategist activity on the pairProvide the pair on which you want to claim rewards"
      },
      "tailOff(address,address,address,address,uint256,uint256,uint24)": {
        "details": "This function calls the strategist utility which handles the trade and returns funds to LPs"
      }
    },
    "stateVariables": {
      "deprecatedStorageVarKept420Proxy": {
        "details": "Keeping deprecated variables maintains consistent network-agnostic contract abis when moving to new chains and versions"
      },
      "deprecatedStorageVarKept4Proxy": {
        "details": "Keeping deprecated variables maintains consistent network-agnostic contract abis when moving to new chains and versions"
      },
      "last_stratTrade_id": {
        "details": "The id of the last StrategistTrade made by any strategist on this contractThis value is globally unique, and increments with every trade"
      },
      "strategist2Fills": {
        "details": "strategist => erc20asset => fill amount per asset;"
      }
    },
    "version": 1
  },
  "userdoc": {
    "events": {
      "LogScrubbedStratTrade(uint256,uint256,address,address,uint256,address,address)": {
        "notice": "Logs the cancellation of a StrategistTrade"
      },
      "LogStrategistRewardClaim(address,address,uint256,uint256)": {
        "notice": "Log when a strategist claims their market-making rewards (effectively a rebate for good performance)"
      },
      "LogStrategistTrade(uint256,bytes32,bytes32,address,address,uint256,address)": {
        "notice": "Log a new market-making trade placed by a strategist, resulting in a StrategitTrade"
      }
    },
    "kind": "user",
    "methods": {
      "RubiconMarketAddress()": {
        "notice": "The Rubicon Market strategists direct all activity towards. There is only one market, RubiconMarket.sol, in the Rubicon Protocol"
      },
      "batchMarketMakingTrades(address[2],uint256[],uint256[],uint256[],uint256[])": {
        "notice": "A function to batch together many placeMarketMakingTrades() in a single transaction"
      },
      "batchRequoteOffers(uint256[],address[2],uint256[],uint256[],uint256[],uint256[])": {
        "notice": "A function to batch together many requote() calls in a single transaction"
      },
      "bathHouse()": {
        "notice": "The Bath House admin of this contract; used with onlyBathHouse()"
      },
      "deprecatedStorageVarKept4Proxy()": {
        "notice": "Intentionally unused DEPRECATED STORAGE VARIABLE to maintain contiguous state on proxy-wrapped contracts. Consider it a beautiful scar of incremental progress "
      },
      "getOutstandingStrategistTrades(address,address,address)": {
        "notice": "The goal of this function is to enable a means to retrieve all outstanding orders a strategist has live in the books"
      },
      "initialize(uint256,int128)": {
        "notice": "Constructor-like initialization function"
      },
      "initialized()": {
        "notice": "The initialization status of BathPair"
      },
      "outOffersByStrategist(address,address,address,uint256)": {
        "notice": "Map a strategist to their outstanding order IDs"
      },
      "placeMarketMakingTrades(address[2],uint256,uint256,uint256,uint256)": {
        "notice": "Key entry point for strategists to use Bath Token (LP) funds to place market-making trades on the Rubicon Order Book"
      },
      "rebalancePair(uint256,uint256,address,address)": {
        "notice": "- function to rebalance fill between two pools"
      },
      "requote(uint256,address[2],uint256,uint256,uint256,uint256)": {
        "notice": "A function to requote an outstanding order and replace it with a new Strategist Trade"
      },
      "scrubStrategistTrade(uint256)": {
        "notice": "Cancel an outstanding strategist offers and return funds to LPs while logging fills"
      },
      "scrubStrategistTrades(uint256[])": {
        "notice": "Batch scrub outstanding strategist trades and return funds to LPs"
      },
      "strategist2Fills(address,address)": {
        "notice": "Tracks the market-kaing fill amounts on a per-asset basis of a strategist"
      },
      "strategistBootyClaim(address,address)": {
        "notice": "Function where strategists claim rewards proportional to their quantity of fills"
      },
      "strategistTrades(uint256)": {
        "notice": "Unique id => StrategistTrade created in marketMaking call"
      },
      "tailOff(address,address,address,address,uint256,uint256,uint24)": {
        "notice": "Function to attempt inventory risk tail off on an AMM"
      },
      "totalFillsPerAsset(address)": {
        "notice": "The total amount of successful offer fills that all strategists have made for a given asset"
      }
    },
    "version": 1
  }
}