{
  "contractName": "BathHouse",
  "abi": [
    {
      "anonymous": false,
      "inputs": [
        {
          "indexed": false,
          "internalType": "address",
          "name": "underlyingToken",
          "type": "address"
        },
        {
          "indexed": false,
          "internalType": "address",
          "name": "bathTokenAddress",
          "type": "address"
        },
        {
          "indexed": false,
          "internalType": "address",
          "name": "bathTokenFeeAdmin",
          "type": "address"
        },
        {
          "indexed": false,
          "internalType": "uint256",
          "name": "timestamp",
          "type": "uint256"
        },
        {
          "indexed": false,
          "internalType": "address",
          "name": "bathTokenCreator",
          "type": "address"
        }
      ],
      "name": "LogNewBathToken",
      "type": "event"
    },
    {
      "anonymous": false,
      "inputs": [
        {
          "indexed": false,
          "internalType": "contract ERC20",
          "name": "newERC20Underlying",
          "type": "address"
        },
        {
          "indexed": false,
          "internalType": "address",
          "name": "spawnedBathToken",
          "type": "address"
        },
        {
          "indexed": false,
          "internalType": "uint256",
          "name": "initialNewBathTokenDeposit",
          "type": "uint256"
        },
        {
          "indexed": false,
          "internalType": "contract ERC20",
          "name": "pairedExistingAsset",
          "type": "address"
        },
        {
          "indexed": false,
          "internalType": "address",
          "name": "pairedExistingBathToken",
          "type": "address"
        },
        {
          "indexed": false,
          "internalType": "uint256",
          "name": "pairedBathTokenDeposit",
          "type": "uint256"
        },
        {
          "indexed": false,
          "internalType": "address",
          "name": "signaler",
          "type": "address"
        }
      ],
      "name": "LogOpenCreationSignal",
      "type": "event"
    },
    {
      "inputs": [],
      "name": "RubiconMarketAddress",
      "outputs": [
        {
          "internalType": "address",
          "name": "",
          "type": "address"
        }
      ],
      "stateMutability": "view",
      "type": "function"
    },
    {
      "inputs": [],
      "name": "admin",
      "outputs": [
        {
          "internalType": "address",
          "name": "",
          "type": "address"
        }
      ],
      "stateMutability": "view",
      "type": "function"
    },
    {
      "inputs": [],
      "name": "approvedPairContract",
      "outputs": [
        {
          "internalType": "address",
          "name": "",
          "type": "address"
        }
      ],
      "stateMutability": "view",
      "type": "function"
    },
    {
      "inputs": [
        {
          "internalType": "address",
          "name": "",
          "type": "address"
        }
      ],
      "name": "approvedStrategists",
      "outputs": [
        {
          "internalType": "bool",
          "name": "",
          "type": "bool"
        }
      ],
      "stateMutability": "view",
      "type": "function"
    },
    {
      "inputs": [],
      "name": "bpsToStrategists",
      "outputs": [
        {
          "internalType": "uint8",
          "name": "",
          "type": "uint8"
        }
      ],
      "stateMutability": "view",
      "type": "function"
    },
    {
      "inputs": [],
      "name": "initialized",
      "outputs": [
        {
          "internalType": "bool",
          "name": "",
          "type": "bool"
        }
      ],
      "stateMutability": "view",
      "type": "function"
    },
    {
      "inputs": [],
      "name": "name",
      "outputs": [
        {
          "internalType": "string",
          "name": "",
          "type": "string"
        }
      ],
      "stateMutability": "view",
      "type": "function"
    },
    {
      "inputs": [],
      "name": "newBathTokenImplementation",
      "outputs": [
        {
          "internalType": "address",
          "name": "",
          "type": "address"
        }
      ],
      "stateMutability": "view",
      "type": "function"
    },
    {
      "inputs": [],
      "name": "permissionedStrategists",
      "outputs": [
        {
          "internalType": "bool",
          "name": "",
          "type": "bool"
        }
      ],
      "stateMutability": "view",
      "type": "function"
    },
    {
      "inputs": [],
      "name": "proxyManager",
      "outputs": [
        {
          "internalType": "address",
          "name": "",
          "type": "address"
        }
      ],
      "stateMutability": "view",
      "type": "function"
    },
    {
      "inputs": [],
      "name": "reserveRatio",
      "outputs": [
        {
          "internalType": "uint256",
          "name": "",
          "type": "uint256"
        }
      ],
      "stateMutability": "view",
      "type": "function"
    },
    {
      "inputs": [],
      "name": "timeDelay",
      "outputs": [
        {
          "internalType": "uint256",
          "name": "",
          "type": "uint256"
        }
      ],
      "stateMutability": "view",
      "type": "function"
    },
    {
      "inputs": [
        {
          "internalType": "address",
          "name": "",
          "type": "address"
        }
      ],
      "name": "tokenToBathToken",
      "outputs": [
        {
          "internalType": "address",
          "name": "",
          "type": "address"
        }
      ],
      "stateMutability": "view",
      "type": "function"
    },
    {
      "inputs": [
        {
          "internalType": "address",
          "name": "market",
          "type": "address"
        },
        {
          "internalType": "uint256",
          "name": "_reserveRatio",
          "type": "uint256"
        },
        {
          "internalType": "uint256",
          "name": "_timeDelay",
          "type": "uint256"
        },
        {
          "internalType": "address",
          "name": "_newBathTokenImplementation",
          "type": "address"
        },
        {
          "internalType": "address",
          "name": "_proxyAdmin",
          "type": "address"
        }
      ],
      "name": "initialize",
      "outputs": [],
      "stateMutability": "nonpayable",
      "type": "function"
    },
    {
      "inputs": [
        {
          "internalType": "contract ERC20",
          "name": "newBathTokenUnderlying",
          "type": "address"
        },
        {
          "internalType": "uint256",
          "name": "initialLiquidityNew",
          "type": "uint256"
        },
        {
          "internalType": "contract ERC20",
          "name": "desiredPairedAsset",
          "type": "address"
        },
        {
          "internalType": "uint256",
          "name": "initialLiquidityExistingBathToken",
          "type": "uint256"
        }
      ],
      "name": "openBathTokenSpawnAndSignal",
      "outputs": [
        {
          "internalType": "address",
          "name": "newBathToken",
          "type": "address"
        }
      ],
      "stateMutability": "nonpayable",
      "type": "function"
    },
    {
      "inputs": [
        {
          "internalType": "contract ERC20",
          "name": "underlyingERC20",
          "type": "address"
        },
        {
          "internalType": "address",
          "name": "_feeAdmin",
          "type": "address"
        }
      ],
      "name": "createBathToken",
      "outputs": [
        {
          "internalType": "address",
          "name": "newBathTokenAddress",
          "type": "address"
        }
      ],
      "stateMutability": "nonpayable",
      "type": "function"
    },
    {
      "inputs": [
        {
          "internalType": "contract ERC20",
          "name": "overwriteERC20",
          "type": "address"
        },
        {
          "internalType": "address",
          "name": "newBathToken",
          "type": "address"
        }
      ],
      "name": "adminWriteBathToken",
      "outputs": [],
      "stateMutability": "nonpayable",
      "type": "function"
    },
    {
      "inputs": [
        {
          "internalType": "address",
          "name": "_bathPairAddress",
          "type": "address"
        },
        {
          "internalType": "uint256",
          "name": "_maxOrderSizeBPS",
          "type": "uint256"
        },
        {
          "internalType": "int128",
          "name": "_shapeCoefNum",
          "type": "int128"
        }
      ],
      "name": "initBathPair",
      "outputs": [
        {
          "internalType": "address",
          "name": "newPair",
          "type": "address"
        }
      ],
      "stateMutability": "nonpayable",
      "type": "function"
    },
    {
      "inputs": [
        {
          "internalType": "address",
          "name": "newAdmin",
          "type": "address"
        }
      ],
      "name": "setBathHouseAdmin",
      "outputs": [],
      "stateMutability": "nonpayable",
      "type": "function"
    },
    {
      "inputs": [
        {
          "internalType": "address",
          "name": "newImplementation",
          "type": "address"
        }
      ],
      "name": "setNewBathTokenImplementation",
      "outputs": [],
      "stateMutability": "nonpayable",
      "type": "function"
    },
    {
      "inputs": [
        {
          "internalType": "address",
          "name": "strategist",
          "type": "address"
        }
      ],
      "name": "approveStrategist",
      "outputs": [],
      "stateMutability": "nonpayable",
      "type": "function"
    },
    {
      "inputs": [
        {
          "internalType": "bool",
          "name": "_new",
          "type": "bool"
        }
      ],
      "name": "setPermissionedStrategists",
      "outputs": [],
      "stateMutability": "nonpayable",
      "type": "function"
    },
    {
      "inputs": [
        {
          "internalType": "uint256",
          "name": "value",
          "type": "uint256"
        }
      ],
      "name": "setCancelTimeDelay",
      "outputs": [],
      "stateMutability": "nonpayable",
      "type": "function"
    },
    {
      "inputs": [
        {
          "internalType": "uint256",
          "name": "rr",
          "type": "uint256"
        }
      ],
      "name": "setReserveRatio",
      "outputs": [],
      "stateMutability": "nonpayable",
      "type": "function"
    },
    {
      "inputs": [
        {
          "internalType": "address",
          "name": "bathToken",
          "type": "address"
        },
        {
          "internalType": "address",
          "name": "newMarket",
          "type": "address"
        }
      ],
      "name": "setBathTokenMarket",
      "outputs": [],
      "stateMutability": "nonpayable",
      "type": "function"
    },
    {
      "inputs": [
        {
          "internalType": "address",
          "name": "bathToken",
          "type": "address"
        },
        {
          "internalType": "address",
          "name": "newBonusToken",
          "type": "address"
        }
      ],
      "name": "setBonusToken",
      "outputs": [],
      "stateMutability": "nonpayable",
      "type": "function"
    },
    {
      "inputs": [
        {
          "internalType": "address",
          "name": "bathToken",
          "type": "address"
        },
        {
          "internalType": "address",
          "name": "newAdmin",
          "type": "address"
        }
      ],
      "name": "setBathTokenBathHouse",
      "outputs": [],
      "stateMutability": "nonpayable",
      "type": "function"
    },
    {
      "inputs": [
        {
          "internalType": "address",
          "name": "bathToken",
          "type": "address"
        },
        {
          "internalType": "uint256",
          "name": "newBPS",
          "type": "uint256"
        }
      ],
      "name": "setBathTokenFeeBPS",
      "outputs": [],
      "stateMutability": "nonpayable",
      "type": "function"
    },
    {
      "inputs": [
        {
          "internalType": "address",
          "name": "targetBathToken",
          "type": "address"
        }
      ],
      "name": "bathTokenApproveSetMarket",
      "outputs": [],
      "stateMutability": "nonpayable",
      "type": "function"
    },
    {
      "inputs": [
        {
          "internalType": "address",
          "name": "bathToken",
          "type": "address"
        },
        {
          "internalType": "address",
          "name": "feeTo",
          "type": "address"
        }
      ],
      "name": "setBathTokenFeeTo",
      "outputs": [],
      "stateMutability": "nonpayable",
      "type": "function"
    },
    {
      "inputs": [
        {
          "internalType": "address",
          "name": "newMarket",
          "type": "address"
        }
      ],
      "name": "setMarket",
      "outputs": [],
      "stateMutability": "nonpayable",
      "type": "function"
    },
    {
      "inputs": [],
      "name": "getMarket",
      "outputs": [
        {
          "internalType": "address",
          "name": "",
          "type": "address"
        }
      ],
      "stateMutability": "view",
      "type": "function"
    },
    {
      "inputs": [],
      "name": "getReserveRatio",
      "outputs": [
        {
          "internalType": "uint256",
          "name": "",
          "type": "uint256"
        }
      ],
      "stateMutability": "view",
      "type": "function"
    },
    {
      "inputs": [],
      "name": "getCancelTimeDelay",
      "outputs": [
        {
          "internalType": "uint256",
          "name": "",
          "type": "uint256"
        }
      ],
      "stateMutability": "view",
      "type": "function"
    },
    {
      "inputs": [
        {
          "internalType": "contract ERC20",
          "name": "asset",
          "type": "address"
        }
      ],
      "name": "getBathTokenfromAsset",
      "outputs": [
        {
          "internalType": "address",
          "name": "",
          "type": "address"
        }
      ],
      "stateMutability": "view",
      "type": "function"
    },
    {
      "inputs": [],
      "name": "getBPSToStrats",
      "outputs": [
        {
          "internalType": "uint8",
          "name": "",
          "type": "uint8"
        }
      ],
      "stateMutability": "view",
      "type": "function"
    },
    {
      "inputs": [
        {
          "internalType": "address",
          "name": "wouldBeStrategist",
          "type": "address"
        }
      ],
      "name": "isApprovedStrategist",
      "outputs": [
        {
          "internalType": "bool",
          "name": "",
          "type": "bool"
        }
      ],
      "stateMutability": "view",
      "type": "function"
    },
    {
      "inputs": [
        {
          "internalType": "address",
          "name": "pair",
          "type": "address"
        }
      ],
      "name": "isApprovedPair",
      "outputs": [
        {
          "internalType": "bool",
          "name": "outcome",
          "type": "bool"
        }
      ],
      "stateMutability": "view",
      "type": "function"
    }
  ],
  "bytecode": "0x608060405234801561001057600080fd5b506127af806100206000396000f3fe60806040523480156200001157600080fd5b5060043610620002685760003560e01c8063770281d8116200014d578063bc3a2fbb11620000c9578063e7ac3d901162000087578063e7ac3d90146200076a578063e91651b8146200079b578063f1be167914620007c4578063f851a44014620007ce578063fd58498e14620007d85762000268565b8063bc3a2fbb14620006c4578063bf8d52bb14620006ce578063c9dec36114620006ff578063ca3a86cd1462000709578063db1e201d14620007325762000268565b80638b4f3b2c11620001175780638b4f3b2c146200060f57806396b4ca70146200062f578063a8f096a41462000639578063abde81fe146200066a578063b4dee241146200069b5762000268565b8063770281d8146200055757806378851f7c14620005945780637c04772014620005bd5780638994cd0414620005e65762000268565b8063338beff611620001e957806356b6d0d511620001a757806356b6d0d514620004c85780636071015d14620004d257806360f71b2414620004fb57806368763e5114620005055780636dcea85f146200052e5762000268565b8063338beff614620004455780633de73484146200046b57806345aeb85614620004755780634816644a14620004955780635674def6146200049f5762000268565b80630f64afd011620002375780630f64afd01462000374578063158ef93e14620003a3578063191a437814620003c15780632988ef0f14620003f25780632f6bed9e14620004235762000268565b8063023fa1d0146200026d57806303b54d52146200028f57806306fdde0314620002d65780630c7d5cd81462000358575b600080fd5b6200028d600480360360208110156200028557600080fd5b5035620007e2565b005b6200028d600480360360a0811015620002a757600080fd5b506001600160a01b038135811691602081013591604082013591606081013582169160809091013516620007ff565b620002e062000907565b6040805160208082528351818301528351919283929083019185019080838360005b838110156200031c57818101518382015260200162000302565b50505050905090810190601f1680156200034a5780820380516001836020036101000a031916815260200191505b509250505060405180910390f35b6200036262000999565b60408051918252519081900360200190f35b6200028d600480360360408110156200038c57600080fd5b506001600160a01b0381351690602001356200099f565b620003ad62000a1b565b604080519115158252519081900360200190f35b6200028d60048036036040811015620003d957600080fd5b506001600160a01b038135811691602001351662000a24565b6200028d600480360360408110156200040a57600080fd5b506001600160a01b038135811691602001351662000a8c565b6200028d600480360360208110156200043b57600080fd5b5035151562000af4565b6200044f62000b26565b604080516001600160a01b039092168252519081900360200190f35b620003ad62000b35565b6200047f62000b43565b6040805160ff9092168252519081900360200190f35b6200044f62000b53565b6200028d60048036036020811015620004b757600080fd5b50356001600160a01b031662000b62565b6200036262000b9c565b620003ad60048036036020811015620004ea57600080fd5b50356001600160a01b031662000ba2565b6200044f62000bef565b6200028d600480360360208110156200051d57600080fd5b50356001600160a01b031662000bfe565b6200028d600480360360208110156200054657600080fd5b50356001600160a01b031662000c3a565b6200044f600480360360808110156200056f57600080fd5b506001600160a01b038135811691602081013591604082013516906060013562000c74565b620003ad60048036036020811015620005ac57600080fd5b50356001600160a01b03166200113b565b6200044f60048036036020811015620005d557600080fd5b50356001600160a01b031662001150565b6200028d60048036036020811015620005fe57600080fd5b50356001600160a01b03166200116e565b6200028d600480360360208110156200062757600080fd5b5035620011a8565b6200044f620011e2565b6200028d600480360360408110156200065157600080fd5b506001600160a01b0381358116916020013516620011f1565b6200028d600480360360408110156200068257600080fd5b506001600160a01b038135811691602001351662001259565b6200028d60048036036020811015620006b357600080fd5b50356001600160a01b0316620012ee565b6200047f6200135e565b6200028d60048036036040811015620006e657600080fd5b506001600160a01b03813581169160200135166200136e565b62000362620013d6565b620003ad600480360360208110156200072157600080fd5b50356001600160a01b0316620013dc565b6200044f600480360360608110156200074a57600080fd5b506001600160a01b038135169060208101359060400135600f0b6200140a565b6200044f600480360360408110156200078257600080fd5b506001600160a01b0381358116916020013516620015d7565b6200044f60048036036020811015620007b357600080fd5b50356001600160a01b031662001605565b6200044f62001620565b6200044f6200162f565b620003626200163e565b6001546001600160a01b03163314620007fa57600080fd5b600755565b60055460ff16156200081057600080fd5b6040805180820190915260128082527152756269636f6e204261746820486f75736560701b60209092019182526200084b916000916200194d565b50600180546001600160a01b03191633179055600783905560648411156200087257600080fd5b600084116200088057600080fd5b600684905560088054600560a21b60ff60a01b19909116179055600380546001600160a01b038088166001600160a01b0319928316179092556005805461ff001916610100179055600a8054858416908316179055600280548484169216919091179055600154620008f3911662000bfe565b50506005805460ff19166001179055505050565b6000805460408051602060026001851615610100026000190190941693909304601f81018490048402820184019092528181529291830182828015620009915780601f10620009655761010080835404028352916020019162000991565b820191906000526020600020905b8154815290600101906020018083116200097357829003601f168201915b505050505081565b60065481565b6001546001600160a01b03163314620009b757600080fd5b816001600160a01b031663604b6a9c826040518263ffffffff1660e01b815260040180828152602001915050600060405180830381600087803b158015620009fe57600080fd5b505af115801562000a13573d6000803e3d6000fd5b505050505050565b60055460ff1681565b6001546001600160a01b0316331462000a3c57600080fd5b816001600160a01b0316636dcea85f826040518263ffffffff1660e01b815260040180826001600160a01b03168152602001915050600060405180830381600087803b158015620009fe57600080fd5b6001546001600160a01b0316331462000aa457600080fd5b816001600160a01b031663f46901ed826040518263ffffffff1660e01b815260040180826001600160a01b03168152602001915050600060405180830381600087803b158015620009fe57600080fd5b6001546001600160a01b0316331462000b0c57600080fd5b600580549115156101000261ff0019909216919091179055565b600a546001600160a01b031681565b600554610100900460ff1681565b600854600160a01b900460ff1681565b6008546001600160a01b031681565b6001546001600160a01b0316331462000b7a57600080fd5b600180546001600160a01b0319166001600160a01b0392909216919091179055565b60065490565b6001600160a01b03811660009081526004602052604081205460ff1615156001148062000bd75750600554610100900460ff16155b1562000be65750600162000bea565b5060005b919050565b6003546001600160a01b031681565b6001546001600160a01b0316331462000c1657600080fd5b6001600160a01b03166000908152600460205260409020805460ff19166001179055565b6001546001600160a01b0316331462000c5257600080fd5b600380546001600160a01b0319166001600160a01b0392909216919091179055565b60008062000c828662001150565b6001600160a01b03161462000cc95760405162461bcd60e51b8152600401808060200182810382526027815260200180620026fb6027913960400191505060405180910390fd5b600062000cd68462001150565b6001600160a01b0316141562000d1e5760405162461bcd60e51b8152600401808060200182810382526034815260200180620027466034913960400191505060405180910390fd5b600062000d2d86600062001644565b604080516323b872dd60e01b81523360048201523060248201526044810188905290519192506001600160a01b038816916323b872dd916064808201926020929091908290030181600087803b15801562000d8757600080fd5b505af115801562000d9c573d6000803e3d6000fd5b505050506040513d602081101562000db357600080fd5b505162000df25760405162461bcd60e51b8152600401808060200182810382526051815260200180620026846051913960600191505060405180910390fd5b856001600160a01b031663095ea7b382876040518363ffffffff1660e01b815260040180836001600160a01b0316815260200182815260200192505050602060405180830381600087803b15801562000e4a57600080fd5b505af115801562000e5f573d6000803e3d6000fd5b505050506040513d602081101562000e7657600080fd5b505060408051636e553f6560e01b81526004810187905233602482015290516001600160a01b03831691636e553f659160448083019260209291908290030181600087803b15801562000ec857600080fd5b505af115801562000edd573d6000803e3d6000fd5b505050506040513d602081101562000ef457600080fd5b5050604080516323b872dd60e01b81523360048201523060248201526044810185905290516001600160a01b038616916323b872dd9160648083019260209291908290030181600087803b15801562000f4c57600080fd5b505af115801562000f61573d6000803e3d6000fd5b505050506040513d602081101562000f7857600080fd5b505162000fb75760405162461bcd60e51b8152600401808060200182810382526051815260200180620026846051913960600191505060405180910390fd5b600062000fc48562001150565b9050846001600160a01b031663095ea7b382866040518363ffffffff1660e01b815260040180836001600160a01b0316815260200182815260200192505050602060405180830381600087803b1580156200101e57600080fd5b505af115801562001033573d6000803e3d6000fd5b505050506040513d60208110156200104a57600080fd5b505060408051636e553f6560e01b81526004810186905233602482015290516001600160a01b03831691636e553f659160448083019260209291908290030181600087803b1580156200109c57600080fd5b505af1158015620010b1573d6000803e3d6000fd5b505050506040513d6020811015620010c857600080fd5b5050604080516001600160a01b03808a168252808516602083015281830189905280881660608301528316608082015260a081018690523360c082015290517f9eb6cc4b72fbb43e01228aeeb5dd940751498582f294e6f77658cb3ccd6a4f509181900360e00190a15095945050505050565b60046020526000908152604090205460ff1681565b6001600160a01b039081166000908152600960205260409020541690565b6001546001600160a01b031633146200118657600080fd5b600a80546001600160a01b0319166001600160a01b0392909216919091179055565b6001546001600160a01b03163314620011c057600080fd5b6064811115620011cf57600080fd5b60008111620011dd57600080fd5b600655565b6002546001600160a01b031681565b6001546001600160a01b031633146200120957600080fd5b816001600160a01b031663ebbc2082826040518263ffffffff1660e01b815260040180826001600160a01b03168152602001915050600060405180830381600087803b158015620009fe57600080fd5b6001546001600160a01b031633146200127157600080fd5b6001600160a01b03808316600081815260096020908152604080832080549587166001600160a01b0319909616861790558051938452908301939093528183015242606082015233608082015290517f3042e0d13ca8ee0bdf1dc720371ee18ade19c59a8dfc8db85869f433cedaf0159181900360a00190a15050565b6001546001600160a01b031633146200130657600080fd5b806001600160a01b031663c2560f2a6040518163ffffffff1660e01b8152600401600060405180830381600087803b1580156200134257600080fd5b505af115801562001357573d6000803e3d6000fd5b5050505050565b600854600160a01b900460ff1690565b6001546001600160a01b031633146200138657600080fd5b816001600160a01b031663b2eaeaaa826040518263ffffffff1660e01b815260040180826001600160a01b03168152602001915050600060405180830381600087803b158015620009fe57600080fd5b60075481565b6008546000906001600160a01b03838116911614620013ff575060008062001404565b506001805b50919050565b6001546000906001600160a01b031633146200142557600080fd5b6008546001600160a01b03161562001484576040805162461bcd60e51b815260206004820152601960248201527f426174685061697220616c726561647920617070726f76656400000000000000604482015290519081900360640190fd5b836001600160a01b031663158ef93e6040518163ffffffff1660e01b8152600401602060405180830381600087803b158015620014c057600080fd5b505af1158015620014d5573d6000803e3d6000fd5b505050506040513d6020811015620014ec57600080fd5b505115156001141562001546576040805162461bcd60e51b815260206004820152601c60248201527f426174685061697220616c726561647920696e697469616c697a656400000000604482015290519081900360640190fd5b839050806001600160a01b0316634a36610084846040518363ffffffff1660e01b81526004018083815260200182600f0b815260200192505050600060405180830381600087803b1580156200159b57600080fd5b505af1158015620015b0573d6000803e3d6000fd5b5050600880546001600160a01b0319166001600160a01b0385161790555090949350505050565b6001546000906001600160a01b03163314620015f257600080fd5b620015fe838362001644565b9392505050565b6009602052600090815260409020546001600160a01b031681565b6003546001600160a01b031690565b6001546001600160a01b031681565b60075490565b60055460009060ff166200169f576040805162461bcd60e51b815260206004820152601960248201527f42617468486f757365206e6f7420696e697469616c697a656400000000000000604482015290519081900360640190fd5b826001600160a01b038116620016e75760405162461bcd60e51b8152600401808060200182810382526026815260200180620026d56026913960400191505060405180910390fd5b6001600160a01b03818116600090815260096020526040902054161562001755576040805162461bcd60e51b815260206004820152601860248201527f62617468546f6b656e20616c7265616479206578697374730000000000000000604482015290519081900360640190fd5b600a546001600160a01b03166200179e5760405162461bcd60e51b8152600401808060200182810382526024815260200180620027226024913960400191505060405180910390fd5b600354604080516001600160a01b038085166024830152928316604482015285831660648083019190915282518083039091018152608490910182526020810180516001600160e01b031663c0c53b8b60e01b179052600a54600254925191936000939181169291169084906200181590620019e2565b80846001600160a01b03168152602001836001600160a01b0316815260200180602001828103825283818151815260200191508051906020019080838360005b838110156200186f57818101518382015260200162001855565b50505050905090810190601f1680156200189d5780820380516001836020036101000a031916815260200191505b50945050505050604051809103906000f080158015620018c1573d6000803e3d6000fd5b506001600160a01b0380851660008181526009602090815260409182902080548587166001600160a01b031990911681179091558251938452908301529188168183015242606082015233608082015290519195508592507f3042e0d13ca8ee0bdf1dc720371ee18ade19c59a8dfc8db85869f433cedaf015919081900360a00190a150505092915050565b828054600181600116156101000203166002900490600052602060002090601f016020900481019282620019855760008555620019d0565b82601f10620019a057805160ff1916838001178555620019d0565b82800160010185558215620019d0579182015b82811115620019d0578251825591602001919060010190620019b3565b50620019de929150620019f0565b5090565b610c7c8062001a0883390190565b5b80821115620019de5760008155600101620019f156fe608060405260405162000c7c38038062000c7c833981810160405260608110156200002957600080fd5b815160208301516040808501805191519395929483019291846401000000008211156200005557600080fd5b9083019060208201858111156200006b57600080fd5b82516401000000008111828201881017156200008657600080fd5b82525081516020918201929091019080838360005b83811015620000b55781810151838201526020016200009b565b50505050905090810190601f168015620000e35780820380516001836020036101000a031916815260200191505b5060405250849150829050620000f98262000137565b8051156200011a57620001188282620001ae60201b620003841760201c565b505b50620001239050565b6200012e82620001dd565b505050620003be565b6200014d816200020160201b620003b01760201c565b6200018a5760405162461bcd60e51b815260040180806020018281038252603681526020018062000c206036913960400191505060405180910390fd5b7f360894a13ba1a3210667c828492db98dca3e2076cc3735a920a3ca505d382bbc55565b6060620001d6838360405180606001604052806027815260200162000bf96027913962000207565b9392505050565b7fb53127684a568b3173ae13b9f8a6016e243e63b6e8ee1178d6a717850b5d610355565b3b151590565b6060620002148462000201565b620002515760405162461bcd60e51b815260040180806020018281038252602681526020018062000c566026913960400191505060405180910390fd5b600080856001600160a01b0316856040518082805190602001908083835b60208310620002905780518252601f1990920191602091820191016200026f565b6001836020036101000a038019825116818451168082178552505050505050905001915050600060405180830381855af49150503d8060008114620002f2576040519150601f19603f3d011682016040523d82523d6000602084013e620002f7565b606091505b5090925090506200030a82828662000314565b9695505050505050565b6060831562000325575081620001d6565b825115620003365782518084602001fd5b8160405162461bcd60e51b81526004018080602001828103825283818151815260200191508051906020019080838360005b838110156200038257818101518382015260200162000368565b50505050905090810190601f168015620003b05780820380516001836020036101000a031916815260200191505b509250505060405180910390fd5b61082b80620003ce6000396000f3fe60806040526004361061004e5760003560e01c80633659cfe6146100655780634f1ef286146100985780635c60da1b146101185780638f28397014610149578063f851a4401461017c5761005d565b3661005d5761005b610191565b005b61005b610191565b34801561007157600080fd5b5061005b6004803603602081101561008857600080fd5b50356001600160a01b03166101ab565b61005b600480360360408110156100ae57600080fd5b6001600160a01b0382351691908101906040810160208201356401000000008111156100d957600080fd5b8201836020820111156100eb57600080fd5b8035906020019184600183028401116401000000008311171561010d57600080fd5b5090925090506101e5565b34801561012457600080fd5b5061012d610262565b604080516001600160a01b039092168252519081900360200190f35b34801561015557600080fd5b5061005b6004803603602081101561016c57600080fd5b50356001600160a01b031661029f565b34801561018857600080fd5b5061012d610359565b6101996103b6565b6101a96101a4610416565b61043b565b565b6101b361045f565b6001600160a01b0316336001600160a01b031614156101da576101d581610484565b6101e2565b6101e2610191565b50565b6101ed61045f565b6001600160a01b0316336001600160a01b031614156102555761020f83610484565b61024f8383838080601f01602080910402602001604051908101604052809392919081815260200183838082843760009201919091525061038492505050565b5061025d565b61025d610191565b505050565b600061026c61045f565b6001600160a01b0316336001600160a01b031614156102945761028d610416565b905061029c565b61029c610191565b90565b6102a761045f565b6001600160a01b0316336001600160a01b031614156101da576001600160a01b0381166103055760405162461bcd60e51b815260040180806020018281038252603a8152602001806106f7603a913960400191505060405180910390fd5b7f7e644d79422f17c01e4894b5f4f588d331ebfa28653d42ae832dc59e38c9798f61032e61045f565b604080516001600160a01b03928316815291841660208301528051918290030190a16101d5816104c4565b600061036361045f565b6001600160a01b0316336001600160a01b031614156102945761028d61045f565b60606103a98383604051806060016040528060278152602001610731602791396104e8565b9392505050565b3b151590565b6103be61045f565b6001600160a01b0316336001600160a01b0316141561040e5760405162461bcd60e51b81526004018080602001828103825260428152602001806107b46042913960600191505060405180910390fd5b6101a96101a9565b7f360894a13ba1a3210667c828492db98dca3e2076cc3735a920a3ca505d382bbc5490565b3660008037600080366000845af43d6000803e80801561045a573d6000f35b3d6000fd5b7fb53127684a568b3173ae13b9f8a6016e243e63b6e8ee1178d6a717850b5d61035490565b61048d816105ea565b6040516001600160a01b038216907fbc7cd75a20ee27fd9adebab32041f755214dbc6bffa90cc0225b39da2e5c2d3b90600090a250565b7fb53127684a568b3173ae13b9f8a6016e243e63b6e8ee1178d6a717850b5d610355565b60606104f3846103b0565b61052e5760405162461bcd60e51b815260040180806020018281038252602681526020018061078e6026913960400191505060405180910390fd5b600080856001600160a01b0316856040518082805190602001908083835b6020831061056b5780518252601f19909201916020918201910161054c565b6001836020036101000a038019825116818451168082178552505050505050905001915050600060405180830381855af49150503d80600081146105cb576040519150601f19603f3d011682016040523d82523d6000602084013e6105d0565b606091505b50915091506105e0828286610652565b9695505050505050565b6105f3816103b0565b61062e5760405162461bcd60e51b81526004018080602001828103825260368152602001806107586036913960400191505060405180910390fd5b7f360894a13ba1a3210667c828492db98dca3e2076cc3735a920a3ca505d382bbc55565b606083156106615750816103a9565b8251156106715782518084602001fd5b8160405162461bcd60e51b81526004018080602001828103825283818151815260200191508051906020019080838360005b838110156106bb5781810151838201526020016106a3565b50505050905090810190601f1680156106e85780820380516001836020036101000a031916815260200191505b509250505060405180910390fdfe5472616e73706172656e745570677261646561626c6550726f78793a206e65772061646d696e20697320746865207a65726f2061646472657373416464726573733a206c6f772d6c6576656c2064656c65676174652063616c6c206661696c65645570677261646561626c6550726f78793a206e657720696d706c656d656e746174696f6e206973206e6f74206120636f6e7472616374416464726573733a2064656c65676174652063616c6c20746f206e6f6e2d636f6e74726163745472616e73706172656e745570677261646561626c6550726f78793a2061646d696e2063616e6e6f742066616c6c6261636b20746f2070726f787920746172676574a2646970667358221220beeaaca8fdbef2148bf896c3f9d6f45938be0a5a20923cc516d392c11f27595964736f6c63430007060033416464726573733a206c6f772d6c6576656c2064656c65676174652063616c6c206661696c65645570677261646561626c6550726f78793a206e657720696d706c656d656e746174696f6e206973206e6f74206120636f6e7472616374416464726573733a2064656c65676174652063616c6c20746f206e6f6e2d636f6e7472616374436f756c646e2774207472616e7366657246726f6d20796f757220696e697469616c206c6971756964697479202d206d616b65207375726520746f20617070726f76652042617468486f7573652e736f6c43616e74206372656174652062617468546f6b656e20666f72207a65726f206164647265737362617468546f6b656e20616c72656164792065786973747320666f7220746861742045524332306e6f20696d706c656d656e746174696f6e2073657420666f722062617468546f6b656e7362617468546f6b656e20646f6573206e6f7420657869737420666f72207468617420646573697265645061697265644173736574a264697066735822122018b9da9b1602083cca108694aee482fe777e6641c721beec61720b1f8cc35f7e64736f6c63430007060033",
  "immutableReferences": {},
  "source": "// SPDX-License-Identifier: BUSL-1.1\n\n/// @title  The administrator contract of Rubicon Pools\n/// @author Rubicon DeFi Inc. - bghughes.eth\n/// @notice The BathHouse initializes proxy-wrapped bathTokens, manages approved strategists, and sets system variables\n\npragma solidity =0.7.6;\n\nimport \"./BathToken.sol\";\nimport \"../interfaces/IBathPair.sol\";\nimport \"../interfaces/IBathToken.sol\";\nimport \"@openzeppelin/contracts/token/ERC20/ERC20.sol\";\nimport \"@openzeppelin/contracts/token/ERC20/ERC20.sol\";\nimport \"@openzeppelin/contracts/proxy/TransparentUpgradeableProxy.sol\";\n\ncontract BathHouse {\n    /// *** Storage Variables ***\n\n    /// @notice Rubicon Bath House\n    string public name;\n\n    /// @notice The administrator of the Bath House contract\n    address public admin;\n\n    /// @notice The proxy administrator of Bath Tokens\n    address public proxyManager;\n\n    /// @notice The core Rubicon Market of the Pools system\n    address public RubiconMarketAddress;\n\n    /// @notice A mapping of approved strategists to access Pools liquidity\n    mapping(address => bool) public approvedStrategists;\n\n    /// @notice The initialization status of BathHouse\n    bool public initialized;\n\n    /// @notice If true, strategists are permissioned and must be approved by admin\n    bool public permissionedStrategists;\n\n    /// @notice Key, system-wide risk parameter for all liquity Pools\n    /// @notice This represents the proportion of a pool's underlying assets that must remain in the pool\n    /// @dev This protects a run on the bank scenario and ensures users can withdraw while allowing funds to be utilized for yield in the market\n    uint256 public reserveRatio;\n\n    /// @notice A variable time delay after which a strategist must return funds to the Bath Token\n    uint256 public timeDelay;\n\n    /// @notice The lone Bath Pair contract of the system which acts as the strategist entry point and logic contract\n    address public approvedPairContract;\n\n    /// @notice The basis point fee that is paid to strategists from LPs on capital that is successfully rebalanced to a Bath Token\n    uint8 public bpsToStrategists;\n\n    /// @notice Key mapping for determining the address of a Bath Token based on its underlying asset\n    /// @dev Source of truth mapping that logs all ERC20 Liquidity pools underlying asset => bathToken Address\n    mapping(address => address) public tokenToBathToken;\n\n    /// @notice The BathToken.sol implementation that any new bathTokens inherit\n    /// @dev The implementation of any ~newly spawned~ proxy-wrapped Bath Tokens via _createBathToken\n    address public newBathTokenImplementation;\n\n    /// *** Events ***\n\n    /// @notice An event that signals the creation of a new Bath Token\n    event LogNewBathToken(\n        address underlyingToken,\n        address bathTokenAddress,\n        address bathTokenFeeAdmin,\n        uint256 timestamp,\n        address bathTokenCreator\n    );\n\n    /// @notice An event that signals the permissionless spawning of a new Bath Token\n    event LogOpenCreationSignal(\n        ERC20 newERC20Underlying,\n        address spawnedBathToken,\n        uint256 initialNewBathTokenDeposit,\n        ERC20 pairedExistingAsset,\n        address pairedExistingBathToken,\n        uint256 pairedBathTokenDeposit,\n        address signaler\n    );\n\n    /// *** Modifiers ***\n\n    /// @notice This modifier enforces that only the admin can call these functions\n    modifier onlyAdmin() {\n        require(msg.sender == admin);\n        _;\n    }\n\n    /// *** External Functions ***\n\n    /// @notice The constructor-like initialization function\n    /// @dev Proxy-safe initialization of storage that sets key storage variables\n    /// @dev Admin is set to msg.sender\n    function initialize(\n        address market,\n        uint256 _reserveRatio,\n        uint256 _timeDelay,\n        address _newBathTokenImplementation,\n        address _proxyAdmin\n    ) external {\n        require(!initialized);\n        name = \"Rubicon Bath House\";\n        admin = msg.sender;\n        timeDelay = _timeDelay;\n\n        // Set Bath Token reserve ratio globally\n        require(_reserveRatio <= 100);\n        require(_reserveRatio > 0);\n        reserveRatio = _reserveRatio;\n\n        // Set BPS reward fee for successful strategist market-making\n        /// @notice [(10000 - {bpsToStrategists}) / 10000] BPS of MM-ing activity is passed to users\n        bpsToStrategists = 20;\n\n        // Set key storage variables\n        RubiconMarketAddress = market;\n        permissionedStrategists = true;\n        newBathTokenImplementation = _newBathTokenImplementation;\n        proxyManager = _proxyAdmin;\n\n        // Automatically approve admin as an approved strategist\n        approveStrategist(admin);\n\n        // Complete contract instantiation\n        initialized = true;\n    }\n\n    /// @notice Permissionless entry point to spawn a Bath Token while posting liquidity to a ~pair of Bath Tokens~\n    /// @notice Please note, creating a Bath Token in this fashion ~does not~ gaurentee markets will be made for the new pair. This function signals the desire to have a new pair supported on Rubicon for strategists to consider market-making for\n    /// @notice The best desiredPairedAsset to select is a popular quote currency. Many traditional systems quote in USD while the ETH quote is superior - the choice is yours sweet msg.sender\n    /// @dev The user must approve the bathHouse to spend their ERC20s\n    /// @dev The user can only spawn a Bath Token for an ERC20 that is not yet in the Pools system and they must post liquidity on the other side of the pair for an ~extant Bath Token~\n    function openBathTokenSpawnAndSignal(\n        ERC20 newBathTokenUnderlying,\n        uint256 initialLiquidityNew, // Must approve this contract to spend\n        ERC20 desiredPairedAsset, // Must be paired with an existing quote for v1\n        uint256 initialLiquidityExistingBathToken\n    ) external returns (address newBathToken) {\n        // Check that it doesn't already exist\n        require(\n            getBathTokenfromAsset(newBathTokenUnderlying) == address(0),\n            \"bathToken already exists for that ERC20\"\n        );\n        require(\n            getBathTokenfromAsset(desiredPairedAsset) != address(0),\n            \"bathToken does not exist for that desiredPairedAsset\"\n        );\n\n        // Spawn a bathToken for the new asset\n        address newOne = _createBathToken(newBathTokenUnderlying, address(0)); // NOTE: address(0) as feeAdmin means fee is paid to pool holders\n\n        // Deposit initial liquidity posted of newBathTokenUnderlying\n        require(\n            newBathTokenUnderlying.transferFrom(\n                msg.sender,\n                address(this),\n                initialLiquidityNew\n            ),\n            \"Couldn't transferFrom your initial liquidity - make sure to approve BathHouse.sol\"\n        );\n\n        newBathTokenUnderlying.approve(newOne, initialLiquidityNew);\n\n        // Deposit assets and send Bath Token shares to msg.sender\n        IBathToken(newOne).deposit(initialLiquidityNew, msg.sender);\n\n        // desiredPairedAsset must be pulled and deposited into bathToken\n        require(\n            desiredPairedAsset.transferFrom(\n                msg.sender,\n                address(this),\n                initialLiquidityExistingBathToken\n            ),\n            \"Couldn't transferFrom your initial liquidity - make sure to approve BathHouse.sol\"\n        );\n        address pairedPool = getBathTokenfromAsset((desiredPairedAsset));\n        desiredPairedAsset.approve(\n            pairedPool,\n            initialLiquidityExistingBathToken\n        );\n\n        // Deposit assets and send Bath Token shares to msg.sender\n        IBathToken(pairedPool).deposit(\n            initialLiquidityExistingBathToken,\n            msg.sender\n        );\n\n        // emit an event describing the new pair, underlyings and bathTokens\n        emit LogOpenCreationSignal(\n            newBathTokenUnderlying,\n            newOne,\n            initialLiquidityNew,\n            desiredPairedAsset,\n            pairedPool,\n            initialLiquidityExistingBathToken,\n            msg.sender\n        );\n\n        newBathToken = newOne;\n    }\n\n    /// ** Admin-Only Functions **\n\n    /// @notice An admin-only function to create a new Bath Token for any ERC20\n    function createBathToken(ERC20 underlyingERC20, address _feeAdmin)\n        external\n        onlyAdmin\n        returns (address newBathTokenAddress)\n    {\n        newBathTokenAddress = _createBathToken(underlyingERC20, _feeAdmin);\n    }\n\n    /// @notice A migration function that allows the admin to write arbitrarily to tokenToBathToken\n    function adminWriteBathToken(ERC20 overwriteERC20, address newBathToken)\n        external\n        onlyAdmin\n    {\n        tokenToBathToken[address(overwriteERC20)] = newBathToken;\n        emit LogNewBathToken(\n            address(overwriteERC20),\n            newBathToken,\n            address(0),\n            block.timestamp,\n            msg.sender\n        );\n    }\n\n    /// @notice Function to initialize and store the address of the ~lone~ bathPair contract for the Rubicon protocol\n    function initBathPair(\n        address _bathPairAddress,\n        uint256 _maxOrderSizeBPS,\n        int128 _shapeCoefNum\n    ) external onlyAdmin returns (address newPair) {\n        require(\n            approvedPairContract == address(0),\n            \"BathPair already approved\"\n        );\n        require(\n            IBathPair(_bathPairAddress).initialized() != true,\n            \"BathPair already initialized\"\n        );\n        newPair = _bathPairAddress;\n\n        IBathPair(newPair).initialize(_maxOrderSizeBPS, _shapeCoefNum);\n\n        approvedPairContract = newPair;\n    }\n\n    /// @notice Admin-only function to set a new Admin\n    function setBathHouseAdmin(address newAdmin) external onlyAdmin {\n        admin = newAdmin;\n    }\n\n    /// @notice Admin-only function to set a new Bath Token implementation\n    /// @dev Please note that all bathTokens created will use this abi\n    function setNewBathTokenImplementation(address newImplementation) external onlyAdmin {\n        newBathTokenImplementation = newImplementation;\n    }\n\n    /// @notice Admin-only function to approve a new permissioned strategist\n    function approveStrategist(address strategist) public onlyAdmin {\n        approvedStrategists[strategist] = true;\n    }\n\n    /// @notice Admin-only function to set whether or not strategists are permissioned\n    function setPermissionedStrategists(bool _new) external onlyAdmin {\n        permissionedStrategists = _new;\n    }\n\n    /// @notice Admin-only function to set timeDelay\n    function setCancelTimeDelay(uint256 value) external onlyAdmin {\n        timeDelay = value;\n    }\n\n    /// @notice Admin-only function to set reserveRatio\n    function setReserveRatio(uint256 rr) external onlyAdmin {\n        require(rr <= 100);\n        require(rr > 0);\n        reserveRatio = rr;\n    }\n\n    /// @notice Admin-only function to set a Bath Token's timeDelay\n    function setBathTokenMarket(address bathToken, address newMarket)\n        external\n        onlyAdmin\n    {\n        IBathToken(bathToken).setMarket(newMarket);\n    }\n\n    /// @notice Admin-only function to add a bonus token to a Bath Token's reward schema\n    function setBonusToken(address bathToken, address newBonusToken)\n        external\n        onlyAdmin\n    {\n        IBathToken(bathToken).setBonusToken(newBonusToken);\n    }\n\n    /// @notice Admin-only function to set a Bath Token's Bath House admin\n    function setBathTokenBathHouse(address bathToken, address newAdmin)\n        external\n        onlyAdmin\n    {\n        IBathToken(bathToken).setBathHouse(newAdmin);\n    }\n\n    /// @notice Admin-only function to set a Bath Token's feeBPS\n    function setBathTokenFeeBPS(address bathToken, uint256 newBPS)\n        external\n        onlyAdmin\n    {\n        IBathToken(bathToken).setFeeBPS(newBPS);\n    }\n\n    /// @notice Admin-only function to approve the Bath Token's underlying token on the assigned market\n    /// @dev required in case the market address ever changes.. #battleScars\n    function bathTokenApproveSetMarket(address targetBathToken)\n        external\n        onlyAdmin\n    {\n        IBathToken(targetBathToken).approveMarket();\n    }\n\n    /// @notice Admin-only function to set a Bath Token's fee recipient (typically the Bath Token itself)\n    function setBathTokenFeeTo(address bathToken, address feeTo)\n        external\n        onlyAdmin\n    {\n        IBathToken(bathToken).setFeeTo(feeTo);\n    }\n\n    /// @notice Admin-only function to set a Bath Token's target Rubicon Market\n    function setMarket(address newMarket) external onlyAdmin {\n        RubiconMarketAddress = newMarket;\n    }\n\n    /// *** View Functions ***\n\n    // Getter Functions for parameters\n    function getMarket() external view returns (address) {\n        return RubiconMarketAddress;\n    }\n\n    function getReserveRatio() external view returns (uint256) {\n        return reserveRatio;\n    }\n\n    function getCancelTimeDelay() external view returns (uint256) {\n        return timeDelay;\n    }\n\n    /// @notice Returns the address of any bathToken in the system based on its corresponding underlying asset\n    function getBathTokenfromAsset(ERC20 asset) public view returns (address) {\n        return tokenToBathToken[address(asset)];\n    }\n\n    function getBPSToStrats() public view returns (uint8) {\n        return bpsToStrategists;\n    }\n\n    /// *** System Security Checks ***\n\n    /// @notice A function to check whether or not an address is an approved strategist\n    function isApprovedStrategist(address wouldBeStrategist)\n        external\n        view\n        returns (bool)\n    {\n        if (\n            approvedStrategists[wouldBeStrategist] == true ||\n            !permissionedStrategists\n        ) {\n            return true;\n        } else {\n            return false;\n        }\n    }\n\n    /// @notice A function to check whether or not an address is the approved system instance of BathPair.sol\n    function isApprovedPair(address pair) public view returns (bool outcome) {\n        pair == approvedPairContract ? outcome = true : outcome = false;\n    }\n\n    /// *** Internal Functions ***\n\n    /// @dev Low-level functionality to spawn a Bath Token using the OZ Transparent Upgradeable Proxy standard\n    /// @param underlyingERC20 The underlying ERC-20 asset that underlies the newBathTokenAddress\n    /// @param _feeAdmin Recipient of pool withdrawal fees, typically the pool itself\n    function _createBathToken(ERC20 underlyingERC20, address _feeAdmin)\n        internal\n        returns (address newBathTokenAddress)\n    {\n        require(initialized, \"BathHouse not initialized\");\n        address _underlyingERC20 = address(underlyingERC20);\n        require(\n            _underlyingERC20 != address(0),\n            \"Cant create bathToken for zero address\"\n        );\n\n        // Check that it isn't already logged in the registry\n        require(\n            tokenToBathToken[_underlyingERC20] == address(0),\n            \"bathToken already exists\"\n        );\n\n        // Creates a new bathToken that is upgradeable by the proxyManager\n        require(\n            newBathTokenImplementation != address(0),\n            \"no implementation set for bathTokens\"\n        );\n\n        // Note, the option of a fee recipient for pool withdrawls exists. For all pools this is set to the pool itself in production and is visible via ~feeTo~ on any respective contract\n        // Note, fee admin presently ignored in the Bath Token initialization() call via defaulting to itself; though, this is still upgradeable by the Bath House admin via\n        bytes memory _initData = abi.encodeWithSignature(\n            \"initialize(address,address,address)\",\n            _underlyingERC20,\n            (RubiconMarketAddress),\n            (_feeAdmin)\n        );\n\n\n            TransparentUpgradeableProxy newBathToken\n         = new TransparentUpgradeableProxy(\n            newBathTokenImplementation,\n            proxyManager,\n            _initData\n        );\n\n        // New Bath Token Address\n        newBathTokenAddress = address(newBathToken);\n\n        // Write to source-of-truth router mapping for this ERC-20 => Bath Token\n        tokenToBathToken[_underlyingERC20] = newBathTokenAddress;\n\n        // Log Data\n        emit LogNewBathToken(\n            _underlyingERC20,\n            newBathTokenAddress,\n            _feeAdmin,\n            block.timestamp,\n            msg.sender\n        );\n    }\n}\n",
  "sourcePath": "/Users/bghughes/workspace/2022-05-rubicon/contracts/rubiconPools/BathHouse.sol",
  "compiler": {
    "name": "solc",
    "version": "0.7.6+commit.7338295f.Emscripten.clang"
  },
  "schemaVersion": "3.3.4",
  "updatedAt": "2022-05-20T22:17:11.922Z",
  "devdoc": {
    "kind": "dev",
    "methods": {
      "bathTokenApproveSetMarket(address)": {
        "details": "required in case the market address ever changes.. #battleScars"
      },
      "initialize(address,uint256,uint256,address,address)": {
        "details": "Proxy-safe initialization of storage that sets key storage variablesAdmin is set to msg.sender"
      },
      "openBathTokenSpawnAndSignal(address,uint256,address,uint256)": {
        "details": "The user must approve the bathHouse to spend their ERC20sThe user can only spawn a Bath Token for an ERC20 that is not yet in the Pools system and they must post liquidity on the other side of the pair for an ~extant Bath Token~"
      },
      "setNewBathTokenImplementation(address)": {
        "details": "Please note that all bathTokens created will use this abi"
      }
    },
    "stateVariables": {
      "newBathTokenImplementation": {
        "details": "The implementation of any ~newly spawned~ proxy-wrapped Bath Tokens via _createBathToken"
      },
      "reserveRatio": {
        "details": "This protects a run on the bank scenario and ensures users can withdraw while allowing funds to be utilized for yield in the market"
      },
      "tokenToBathToken": {
        "details": "Source of truth mapping that logs all ERC20 Liquidity pools underlying asset => bathToken Address"
      }
    },
    "version": 1
  },
  "userdoc": {
    "events": {
      "LogNewBathToken(address,address,address,uint256,address)": {
        "notice": "An event that signals the creation of a new Bath Token"
      },
      "LogOpenCreationSignal(address,address,uint256,address,address,uint256,address)": {
        "notice": "An event that signals the permissionless spawning of a new Bath Token"
      }
    },
    "kind": "user",
    "methods": {
      "RubiconMarketAddress()": {
        "notice": "The core Rubicon Market of the Pools system"
      },
      "admin()": {
        "notice": "The administrator of the Bath House contract"
      },
      "adminWriteBathToken(address,address)": {
        "notice": "A migration function that allows the admin to write arbitrarily to tokenToBathToken"
      },
      "approveStrategist(address)": {
        "notice": "Admin-only function to approve a new permissioned strategist"
      },
      "approvedPairContract()": {
        "notice": "The lone Bath Pair contract of the system which acts as the strategist entry point and logic contract"
      },
      "approvedStrategists(address)": {
        "notice": "A mapping of approved strategists to access Pools liquidity"
      },
      "bathTokenApproveSetMarket(address)": {
        "notice": "Admin-only function to approve the Bath Token's underlying token on the assigned market"
      },
      "bpsToStrategists()": {
        "notice": "The basis point fee that is paid to strategists from LPs on capital that is successfully rebalanced to a Bath Token"
      },
      "createBathToken(address,address)": {
        "notice": "An admin-only function to create a new Bath Token for any ERC20"
      },
      "getBathTokenfromAsset(address)": {
        "notice": "Returns the address of any bathToken in the system based on its corresponding underlying asset"
      },
      "getMarket()": {
        "notice": "*** View Functions ***"
      },
      "initBathPair(address,uint256,int128)": {
        "notice": "Function to initialize and store the address of the ~lone~ bathPair contract for the Rubicon protocol"
      },
      "initialize(address,uint256,uint256,address,address)": {
        "notice": "The constructor-like initialization function"
      },
      "initialized()": {
        "notice": "The initialization status of BathHouse"
      },
      "isApprovedPair(address)": {
        "notice": "A function to check whether or not an address is the approved system instance of BathPair.sol"
      },
      "isApprovedStrategist(address)": {
        "notice": "A function to check whether or not an address is an approved strategist"
      },
      "name()": {
        "notice": "Rubicon Bath House"
      },
      "newBathTokenImplementation()": {
        "notice": "The BathToken.sol implementation that any new bathTokens inherit"
      },
      "openBathTokenSpawnAndSignal(address,uint256,address,uint256)": {
        "notice": "Permissionless entry point to spawn a Bath Token while posting liquidity to a ~pair of Bath Tokens~Please note, creating a Bath Token in this fashion ~does not~ gaurentee markets will be made for the new pair. This function signals the desire to have a new pair supported on Rubicon for strategists to consider market-making forThe best desiredPairedAsset to select is a popular quote currency. Many traditional systems quote in USD while the ETH quote is superior - the choice is yours sweet msg.sender"
      },
      "permissionedStrategists()": {
        "notice": "If true, strategists are permissioned and must be approved by admin"
      },
      "proxyManager()": {
        "notice": "The proxy administrator of Bath Tokens"
      },
      "reserveRatio()": {
        "notice": "Key, system-wide risk parameter for all liquity PoolsThis represents the proportion of a pool's underlying assets that must remain in the pool"
      },
      "setBathHouseAdmin(address)": {
        "notice": "Admin-only function to set a new Admin"
      },
      "setBathTokenBathHouse(address,address)": {
        "notice": "Admin-only function to set a Bath Token's Bath House admin"
      },
      "setBathTokenFeeBPS(address,uint256)": {
        "notice": "Admin-only function to set a Bath Token's feeBPS"
      },
      "setBathTokenFeeTo(address,address)": {
        "notice": "Admin-only function to set a Bath Token's fee recipient (typically the Bath Token itself)"
      },
      "setBathTokenMarket(address,address)": {
        "notice": "Admin-only function to set a Bath Token's timeDelay"
      },
      "setBonusToken(address,address)": {
        "notice": "Admin-only function to add a bonus token to a Bath Token's reward schema"
      },
      "setCancelTimeDelay(uint256)": {
        "notice": "Admin-only function to set timeDelay"
      },
      "setMarket(address)": {
        "notice": "Admin-only function to set a Bath Token's target Rubicon Market"
      },
      "setNewBathTokenImplementation(address)": {
        "notice": "Admin-only function to set a new Bath Token implementation"
      },
      "setPermissionedStrategists(bool)": {
        "notice": "Admin-only function to set whether or not strategists are permissioned"
      },
      "setReserveRatio(uint256)": {
        "notice": "Admin-only function to set reserveRatio"
      },
      "timeDelay()": {
        "notice": "A variable time delay after which a strategist must return funds to the Bath Token"
      },
      "tokenToBathToken(address)": {
        "notice": "Key mapping for determining the address of a Bath Token based on its underlying asset"
      }
    },
    "version": 1
  }
}