{
  "contractName": "RubiconRouter",
  "abi": [
    {
      "anonymous": false,
      "inputs": [
        {
          "indexed": false,
          "internalType": "string",
          "name": "",
          "type": "string"
        },
        {
          "indexed": false,
          "internalType": "uint256",
          "name": "",
          "type": "uint256"
        }
      ],
      "name": "LogNote",
      "type": "event"
    },
    {
      "anonymous": false,
      "inputs": [
        {
          "indexed": false,
          "internalType": "uint256",
          "name": "inputAmount",
          "type": "uint256"
        },
        {
          "indexed": false,
          "internalType": "address",
          "name": "inputERC20",
          "type": "address"
        },
        {
          "indexed": false,
          "internalType": "uint256",
          "name": "hurdleBuyAmtMin",
          "type": "uint256"
        },
        {
          "indexed": false,
          "internalType": "address",
          "name": "targetERC20",
          "type": "address"
        },
        {
          "indexed": true,
          "internalType": "bytes32",
          "name": "pair",
          "type": "bytes32"
        },
        {
          "indexed": false,
          "internalType": "uint256",
          "name": "realizedFill",
          "type": "uint256"
        },
        {
          "indexed": false,
          "internalType": "address",
          "name": "recipient",
          "type": "address"
        }
      ],
      "name": "LogSwap",
      "type": "event"
    },
    {
      "stateMutability": "payable",
      "type": "fallback"
    },
    {
      "inputs": [],
      "name": "RubiconMarketAddress",
      "outputs": [
        {
          "internalType": "address",
          "name": "",
          "type": "address"
        }
      ],
      "stateMutability": "view",
      "type": "function"
    },
    {
      "inputs": [],
      "name": "started",
      "outputs": [
        {
          "internalType": "bool",
          "name": "",
          "type": "bool"
        }
      ],
      "stateMutability": "view",
      "type": "function"
    },
    {
      "inputs": [],
      "name": "wethAddress",
      "outputs": [
        {
          "internalType": "address payable",
          "name": "",
          "type": "address"
        }
      ],
      "stateMutability": "view",
      "type": "function"
    },
    {
      "stateMutability": "payable",
      "type": "receive"
    },
    {
      "inputs": [
        {
          "internalType": "address",
          "name": "_theTrap",
          "type": "address"
        },
        {
          "internalType": "address payable",
          "name": "_weth",
          "type": "address"
        }
      ],
      "name": "startErUp",
      "outputs": [],
      "stateMutability": "nonpayable",
      "type": "function"
    },
    {
      "inputs": [
        {
          "internalType": "contract ERC20",
          "name": "asset",
          "type": "address"
        },
        {
          "internalType": "contract ERC20",
          "name": "quote",
          "type": "address"
        },
        {
          "internalType": "uint256",
          "name": "topNOrders",
          "type": "uint256"
        }
      ],
      "name": "getBookFromPair",
      "outputs": [
        {
          "internalType": "uint256[3][]",
          "name": "",
          "type": "uint256[3][]"
        },
        {
          "internalType": "uint256[3][]",
          "name": "",
          "type": "uint256[3][]"
        },
        {
          "internalType": "uint256",
          "name": "",
          "type": "uint256"
        }
      ],
      "stateMutability": "view",
      "type": "function"
    },
    {
      "inputs": [
        {
          "internalType": "address",
          "name": "asset",
          "type": "address"
        },
        {
          "internalType": "address",
          "name": "quote",
          "type": "address"
        }
      ],
      "name": "getBestOfferAndInfo",
      "outputs": [
        {
          "internalType": "uint256",
          "name": "",
          "type": "uint256"
        },
        {
          "internalType": "uint256",
          "name": "",
          "type": "uint256"
        },
        {
          "internalType": "contract ERC20",
          "name": "",
          "type": "address"
        },
        {
          "internalType": "uint256",
          "name": "",
          "type": "uint256"
        },
        {
          "internalType": "contract ERC20",
          "name": "",
          "type": "address"
        }
      ],
      "stateMutability": "view",
      "type": "function"
    },
    {
      "inputs": [
        {
          "internalType": "address",
          "name": "toApprove",
          "type": "address"
        }
      ],
      "name": "approveAssetOnMarket",
      "outputs": [],
      "stateMutability": "nonpayable",
      "type": "function"
    },
    {
      "inputs": [
        {
          "internalType": "uint256",
          "name": "pay_amt",
          "type": "uint256"
        },
        {
          "internalType": "uint256",
          "name": "buy_amt_min",
          "type": "uint256"
        },
        {
          "internalType": "address[]",
          "name": "route",
          "type": "address[]"
        },
        {
          "internalType": "uint256",
          "name": "expectedMarketFeeBPS",
          "type": "uint256"
        }
      ],
      "name": "getExpectedSwapFill",
      "outputs": [
        {
          "internalType": "uint256",
          "name": "fill_amt",
          "type": "uint256"
        }
      ],
      "stateMutability": "view",
      "type": "function"
    },
    {
      "inputs": [
        {
          "internalType": "uint256",
          "name": "pay_amt",
          "type": "uint256"
        },
        {
          "internalType": "uint256",
          "name": "buy_amt_min",
          "type": "uint256"
        },
        {
          "internalType": "address[]",
          "name": "route",
          "type": "address[]"
        },
        {
          "internalType": "uint256",
          "name": "expectedMarketFeeBPS",
          "type": "uint256"
        }
      ],
      "name": "swap",
      "outputs": [
        {
          "internalType": "uint256",
          "name": "",
          "type": "uint256"
        }
      ],
      "stateMutability": "nonpayable",
      "type": "function"
    },
    {
      "inputs": [
        {
          "internalType": "uint256",
          "name": "buy_amt_min",
          "type": "uint256"
        },
        {
          "internalType": "address[]",
          "name": "route",
          "type": "address[]"
        },
        {
          "internalType": "uint256",
          "name": "expectedMarketFeeBPS",
          "type": "uint256"
        }
      ],
      "name": "swapEntireBalance",
      "outputs": [
        {
          "internalType": "uint256",
          "name": "",
          "type": "uint256"
        }
      ],
      "stateMutability": "nonpayable",
      "type": "function"
    },
    {
      "inputs": [
        {
          "internalType": "contract ERC20",
          "name": "buy_gem",
          "type": "address"
        },
        {
          "internalType": "contract ERC20",
          "name": "pay_gem",
          "type": "address"
        },
        {
          "internalType": "uint256",
          "name": "max_fill_amount",
          "type": "uint256"
        }
      ],
      "name": "maxBuyAllAmount",
      "outputs": [
        {
          "internalType": "uint256",
          "name": "fill",
          "type": "uint256"
        }
      ],
      "stateMutability": "nonpayable",
      "type": "function"
    },
    {
      "inputs": [
        {
          "internalType": "contract ERC20",
          "name": "pay_gem",
          "type": "address"
        },
        {
          "internalType": "contract ERC20",
          "name": "buy_gem",
          "type": "address"
        },
        {
          "internalType": "uint256",
          "name": "min_fill_amount",
          "type": "uint256"
        }
      ],
      "name": "maxSellAllAmount",
      "outputs": [
        {
          "internalType": "uint256",
          "name": "fill",
          "type": "uint256"
        }
      ],
      "stateMutability": "nonpayable",
      "type": "function"
    },
    {
      "inputs": [
        {
          "internalType": "contract ERC20",
          "name": "buy_gem",
          "type": "address"
        },
        {
          "internalType": "uint256",
          "name": "buy_amt",
          "type": "uint256"
        },
        {
          "internalType": "uint256",
          "name": "max_fill_amount",
          "type": "uint256"
        },
        {
          "internalType": "uint256",
          "name": "expectedMarketFeeBPS",
          "type": "uint256"
        }
      ],
      "name": "buyAllAmountWithETH",
      "outputs": [
        {
          "internalType": "uint256",
          "name": "fill",
          "type": "uint256"
        }
      ],
      "stateMutability": "payable",
      "type": "function"
    },
    {
      "inputs": [
        {
          "internalType": "uint256",
          "name": "buy_amt",
          "type": "uint256"
        },
        {
          "internalType": "contract ERC20",
          "name": "pay_gem",
          "type": "address"
        },
        {
          "internalType": "uint256",
          "name": "max_fill_amount",
          "type": "uint256"
        }
      ],
      "name": "buyAllAmountForETH",
      "outputs": [
        {
          "internalType": "uint256",
          "name": "fill",
          "type": "uint256"
        }
      ],
      "stateMutability": "nonpayable",
      "type": "function"
    },
    {
      "inputs": [
        {
          "internalType": "uint256",
          "name": "pay_amt",
          "type": "uint256"
        },
        {
          "internalType": "uint256",
          "name": "buy_amt",
          "type": "uint256"
        },
        {
          "internalType": "contract ERC20",
          "name": "buy_gem",
          "type": "address"
        },
        {
          "internalType": "uint256",
          "name": "pos",
          "type": "uint256"
        }
      ],
      "name": "offerWithETH",
      "outputs": [
        {
          "internalType": "uint256",
          "name": "",
          "type": "uint256"
        }
      ],
      "stateMutability": "payable",
      "type": "function"
    },
    {
      "inputs": [
        {
          "internalType": "uint256",
          "name": "pay_amt",
          "type": "uint256"
        },
        {
          "internalType": "contract ERC20",
          "name": "pay_gem",
          "type": "address"
        },
        {
          "internalType": "uint256",
          "name": "buy_amt",
          "type": "uint256"
        },
        {
          "internalType": "uint256",
          "name": "pos",
          "type": "uint256"
        }
      ],
      "name": "offerForETH",
      "outputs": [
        {
          "internalType": "uint256",
          "name": "",
          "type": "uint256"
        }
      ],
      "stateMutability": "nonpayable",
      "type": "function"
    },
    {
      "inputs": [
        {
          "internalType": "uint256",
          "name": "id",
          "type": "uint256"
        }
      ],
      "name": "cancelForETH",
      "outputs": [
        {
          "internalType": "bool",
          "name": "outcome",
          "type": "bool"
        }
      ],
      "stateMutability": "nonpayable",
      "type": "function"
    },
    {
      "inputs": [
        {
          "internalType": "uint256",
          "name": "amount",
          "type": "uint256"
        },
        {
          "internalType": "address",
          "name": "targetPool",
          "type": "address"
        }
      ],
      "name": "depositWithETH",
      "outputs": [
        {
          "internalType": "uint256",
          "name": "newShares",
          "type": "uint256"
        }
      ],
      "stateMutability": "payable",
      "type": "function"
    },
    {
      "inputs": [
        {
          "internalType": "uint256",
          "name": "shares",
          "type": "uint256"
        },
        {
          "internalType": "address",
          "name": "targetPool",
          "type": "address"
        }
      ],
      "name": "withdrawForETH",
      "outputs": [
        {
          "internalType": "uint256",
          "name": "withdrawnWETH",
          "type": "uint256"
        }
      ],
      "stateMutability": "payable",
      "type": "function"
    },
    {
      "inputs": [
        {
          "internalType": "uint256",
          "name": "pay_amt",
          "type": "uint256"
        },
        {
          "internalType": "uint256",
          "name": "buy_amt_min",
          "type": "uint256"
        },
        {
          "internalType": "address[]",
          "name": "route",
          "type": "address[]"
        },
        {
          "internalType": "uint256",
          "name": "expectedMarketFeeBPS",
          "type": "uint256"
        }
      ],
      "name": "swapWithETH",
      "outputs": [
        {
          "internalType": "uint256",
          "name": "",
          "type": "uint256"
        }
      ],
      "stateMutability": "payable",
      "type": "function"
    },
    {
      "inputs": [
        {
          "internalType": "uint256",
          "name": "pay_amt",
          "type": "uint256"
        },
        {
          "internalType": "uint256",
          "name": "buy_amt_min",
          "type": "uint256"
        },
        {
          "internalType": "address[]",
          "name": "route",
          "type": "address[]"
        },
        {
          "internalType": "uint256",
          "name": "expectedMarketFeeBPS",
          "type": "uint256"
        }
      ],
      "name": "swapForETH",
      "outputs": [
        {
          "internalType": "uint256",
          "name": "fill",
          "type": "uint256"
        }
      ],
      "stateMutability": "payable",
      "type": "function"
    }
  ],
  "bytecode": "0x608060405234801561001057600080fd5b506135a5806100206000396000f3fe60806040526004361061012e5760003560e01c80637fd25928116100ab578063c24e61171161006f578063c24e611714610312578063ceba272314610332578063d4439cc914610352578063defced7e14610365578063ea0c9b8c14610385578063f10f1f581461039857610135565b80637fd259281461027f57806392b3cf35146102925780639fee5603146102b2578063a884b89b146102d2578063aaafa2c6146102f257610135565b80635841648b116100f25780635841648b146101d75780635a7ce545146101f75780636074c2401461020a57806360f71b241461023b578063744f6ae31461025057610135565b80631f2698ab14610137578063221b703b1461016257806343be8699146101825780634f0e0ef3146101a2578063511d61fa146101c457610135565b3661013557005b005b34801561014357600080fd5b5061014c6103b8565b60405161015991906131bf565b60405180910390f35b61017561017036600461305b565b6103c8565b604051610159919061349f565b34801561018e57600080fd5b5061013561019d366004612d95565b610688565b3480156101ae57600080fd5b506101b7610714565b604051610159919061311e565b6101756101d2366004612ee1565b610723565b3480156101e357600080fd5b506101756101f2366004612f05565b610a5f565b610175610205366004612e5b565b610bdc565b34801561021657600080fd5b5061022a610225366004612db1565b610f41565b60405161015995949392919061350a565b34801561024757600080fd5b506101b7611070565b34801561025c57600080fd5b5061027061026b366004612e1b565b61107f565b60405161015993929190613189565b61017561028d366004612ee1565b61165e565b34801561029e57600080fd5b5061014c6102ad366004612eb1565b611931565b3480156102be57600080fd5b506101756102cd366004612e1b565b611b04565b3480156102de57600080fd5b506101356102ed366004612de9565b611c98565b3480156102fe57600080fd5b5061017561030d366004612e1b565b611ced565b34801561031e57600080fd5b5061017561032d366004613002565b611e26565b34801561033e57600080fd5b5061017561034d366004612f56565b611f7b565b610175610360366004613002565b6121b1565b34801561037157600080fd5b50610175610380366004612fc6565b6122ba565b610175610393366004613002565b612584565b3480156103a457600080fd5b506101756103b3366004613002565b61275e565b600154600160a01b900460ff1681565b6000843410156103f35760405162461bcd60e51b81526004016103ea90613454565b60405180910390fd5b6040516370a0823160e01b81526000906001600160a01b038516906370a082319061042290309060040161311e565b60206040518083038186803b15801561043a57600080fd5b505afa15801561044e573d6000803e3d6000fd5b505050506040513d601f19601f820116820180604052508101906104729190612ec9565b9050600160009054906101000a90046001600160a01b03166001600160a01b031663d0e30db0876040518263ffffffff1660e01b81526004016000604051808303818588803b1580156104c457600080fd5b505af11580156104d8573d6000803e3d6000fd5b505060008054600154604051630d99ea0960e11b81529295506001600160a01b039182169450631b33d412935061051d928c92909116908b908b908b906004016134dc565b602060405180830381600087803b15801561053757600080fd5b505af115801561054b573d6000803e3d6000fd5b505050506040513d601f19601f8201168201806040525081019061056f9190612ec9565b90506000856001600160a01b03166370a08231306040518263ffffffff1660e01b815260040161059f919061311e565b60206040518083038186803b1580156105b757600080fd5b505afa1580156105cb573d6000803e3d6000fd5b505050506040513d601f19601f820116820180604052508101906105ef9190612ec9565b90508281111561067d5760405163a9059cbb60e01b81526001600160a01b0387169063a9059cbb9061062990339087860390600401613170565b602060405180830381600087803b15801561064357600080fd5b505af1158015610657573d6000803e3d6000fd5b505050506040513d601f19601f8201168201806040525081019061067b9190612dfb565b505b509695505050505050565b60005460405163095ea7b360e01b81526001600160a01b038381169263095ea7b3926106be929091169060001990600401613170565b602060405180830381600087803b1580156106d857600080fd5b505af11580156106ec573d6000803e3d6000fd5b505050506040513d601f19601f820116820180604052508101906107109190612dfb565b5050565b6001546001600160a01b031681565b600080826001600160a01b0316632495a5996040518163ffffffff1660e01b8152600401602060405180830381600087803b15801561076157600080fd5b505af1158015610775573d6000803e3d6000fd5b505050506040513d601f19601f820116820180604052508101906107999190612e95565b6001549091506001600160a01b038083169116146107c95760405162461bcd60e51b81526004016103ea906133af565b833410156107e95760405162461bcd60e51b81526004016103ea906132b5565b604051636eb1769f60e11b81526001600160a01b0382169063dd62ed3e906108179030908790600401613132565b60206040518083038186803b15801561082f57600080fd5b505afa158015610843573d6000803e3d6000fd5b505050506040513d601f19601f820116820180604052508101906108679190612ec9565b6108ed5760405163095ea7b360e01b81526001600160a01b0382169063095ea7b3906108999086908890600401613170565b602060405180830381600087803b1580156108b357600080fd5b505af11580156108c7573d6000803e3d6000fd5b505050506040513d601f19601f820116820180604052508101906108eb9190612dfb565b505b600160009054906101000a90046001600160a01b03166001600160a01b031663d0e30db0856040518263ffffffff1660e01b81526004016000604051808303818588803b15801561093d57600080fd5b505af1158015610951573d6000803e3d6000fd5b505060405163b6b55f2560e01b81526001600160a01b038716935063b6b55f2592506109829150879060040161349f565b602060405180830381600087803b15801561099c57600080fd5b505af11580156109b0573d6000803e3d6000fd5b505050506040513d601f19601f820116820180604052508101906109d49190612ec9565b60405163a9059cbb60e01b81529092506001600160a01b0384169063a9059cbb90610a059033908690600401613170565b602060405180830381600087803b158015610a1f57600080fd5b505af1158015610a33573d6000803e3d6000fd5b505050506040513d601f19601f82011682018060405250810190610a579190612dfb565b505092915050565b60008084846000818110610a6f57fe5b9050602002016020810190610a849190612d95565b6001600160a01b03166370a08231336040518263ffffffff1660e01b8152600401610aaf919061311e565b60206040518083038186803b158015610ac757600080fd5b505afa158015610adb573d6000803e3d6000fd5b505050506040513d601f19601f82011682018060405250810190610aff9190612ec9565b905084846000818110610b0e57fe5b9050602002016020810190610b239190612d95565b6001600160a01b03166323b872dd3330846040518463ffffffff1660e01b8152600401610b529392919061314c565b602060405180830381600087803b158015610b6c57600080fd5b505af1158015610b80573d6000803e3d6000fd5b505050506040513d601f19601f82011682018060405250810190610ba49190612dfb565b50610bd281610bc9610bc2612710610bbc8b89612824565b90612886565b84906128ed565b8787873361294a565b9695505050505050565b6001546040516370a0823160e01b81526000916001600160a01b031690829082906370a0823190610c1190309060040161311e565b60206040518083038186803b158015610c2957600080fd5b505afa158015610c3d573d6000803e3d6000fd5b505050506040513d601f19601f82011682018060405250810190610c619190612ec9565b90506000610c7f610c78612710610bbc8989612824565b8790612cd4565b905080341015610ca15760405162461bcd60e51b81526004016103ea906131f4565b600160009054906101000a90046001600160a01b03166001600160a01b031663d0e30db0826040518263ffffffff1660e01b81526004016000604051808303818588803b158015610cf157600080fd5b505af1158015610d05573d6000803e3d6000fd5b5050600054600154604051638185402b60e01b81526001600160a01b039283169550638185402b9450610d4393508d928d9216908c906004016131ca565b602060405180830381600087803b158015610d5d57600080fd5b505af1158015610d71573d6000803e3d6000fd5b505050506040513d601f19601f82011682018060405250810190610d959190612ec9565b60405163a9059cbb60e01b81529094506001600160a01b0389169063a9059cbb90610dc69033908b90600401613170565b602060405180830381600087803b158015610de057600080fd5b505af1158015610df4573d6000803e3d6000fd5b505050506040513d601f19601f82011682018060405250810190610e189190612dfb565b506040516370a0823160e01b81526000906001600160a01b038516906370a0823190610e4890309060040161311e565b60206040518083038186803b158015610e6057600080fd5b505afa158015610e74573d6000803e3d6000fd5b505050506040513d601f19601f82011682018060405250810190610e989190612ec9565b90508281038015610f3457600154604051632e1a7d4d60e01b81526001600160a01b0390911690632e1a7d4d90610ed390849060040161349f565b600060405180830381600087803b158015610eed57600080fd5b505af1158015610f01573d6000803e3d6000fd5b505060405133925083156108fc02915083906000818181858888f19350505050158015610f32573d6000803e3d6000fd5b505b5050505050949350505050565b60008054604051630374fc6f60e01b815282918291829182916001600160a01b039091169082908290630374fc6f90610f80908c908c90600401613132565b60206040518083038186803b158015610f9857600080fd5b505afa158015610fac573d6000803e3d6000fd5b505050506040513d601f19601f82011682018060405250810190610fd09190612ec9565b9050600080600080856001600160a01b0316634579268a866040518263ffffffff1660e01b8152600401611004919061349f565b60806040518083038186803b15801561101c57600080fd5b505afa158015611030573d6000803e3d6000fd5b505050506040513d601f19601f820116820180604052508101906110549190612f7c565b979d50919b509950975093955050505050509295509295909350565b6000546001600160a01b031681565b6060806000808467ffffffffffffffff8111801561109c57600080fd5b506040519080825280602002602001820160405280156110d657816020015b6110c3612d2e565b8152602001906001900390816110bb5790505b50905060008567ffffffffffffffff811180156110f257600080fd5b5060405190808252806020026020018201604052801561112c57816020015b611119612d2e565b8152602001906001900390816111115790505b5060008054604051630374fc6f60e01b81529293506001600160a01b0316918290630374fc6f90611163908d908d90600401613132565b60206040518083038186803b15801561117b57600080fd5b505afa15801561118f573d6000803e3d6000fd5b505050506040513d601f19601f820116820180604052508101906111b39190612ec9565b90506000826001600160a01b0316630374fc6f8b8d6040518363ffffffff1660e01b81526004016111e5929190613132565b60206040518083038186803b1580156111fd57600080fd5b505afa158015611211573d6000803e3d6000fd5b505050506040513d601f19601f820116820180604052508101906112359190612ec9565b905060008060005b8b81101561164957806113c757849150839250600080876001600160a01b0316634579268a886040518263ffffffff1660e01b815260040161127f919061349f565b60806040518083038186803b15801561129757600080fd5b505afa1580156112ab573d6000803e3d6000fd5b505050506040513d601f19601f820116820180604052508101906112cf9190612f7c565b509250509150600080896001600160a01b0316634579268a896040518263ffffffff1660e01b8152600401611304919061349f565b60806040518083038186803b15801561131c57600080fd5b505afa158015611330573d6000803e3d6000fd5b505050506040513d601f19601f820116820180604052508101906113549190612f7c565b50925050915060405180606001604052808581526020018481526020018a8152508c868151811061138157fe5b60200260200101819052506040518060600160405280838152602001828152602001898152508b86815181106113b357fe5b602002602001018190525050505050611641565b60405163250e446f60e21b81526000906001600160a01b0388169063943911bc906113f690869060040161349f565b60206040518083038186803b15801561140e57600080fd5b505afa158015611422573d6000803e3d6000fd5b505050506040513d601f19601f820116820180604052508101906114469190612ec9565b90506000876001600160a01b031663943911bc866040518263ffffffff1660e01b8152600401611476919061349f565b60206040518083038186803b15801561148e57600080fd5b505afa1580156114a2573d6000803e3d6000fd5b505050506040513d601f19601f820116820180604052508101906114c69190612ec9565b9050600080896001600160a01b0316634579268a856040518263ffffffff1660e01b81526004016114f7919061349f565b60806040518083038186803b15801561150f57600080fd5b505afa158015611523573d6000803e3d6000fd5b505050506040513d601f19601f820116820180604052508101906115479190612f7c565b5092505091506000808b6001600160a01b0316634579268a866040518263ffffffff1660e01b815260040161157c919061349f565b60806040518083038186803b15801561159457600080fd5b505afa1580156115a8573d6000803e3d6000fd5b505050506040513d601f19601f820116820180604052508101906115cc9190612f7c565b5092505091506040518060600160405280858152602001848152602001878152508e88815181106115f957fe5b60200260200101819052506040518060600160405280838152602001828152602001868152508d888151811061162b57fe5b6020908102919091010152509296509294505050505b60010161123d565b50959c949b5098995092975050505050505050565b600080826001600160a01b0316632495a5996040518163ffffffff1660e01b8152600401602060405180830381600087803b15801561169c57600080fd5b505af11580156116b0573d6000803e3d6000fd5b505050506040513d601f19601f820116820180604052508101906116d49190612e95565b6001549091506001600160a01b038083169116146117045760405162461bcd60e51b81526004016103ea906133af565b6040516370a0823160e01b815284906001600160a01b038516906370a082319061173290339060040161311e565b60206040518083038186803b15801561174a57600080fd5b505afa15801561175e573d6000803e3d6000fd5b505050506040513d601f19601f820116820180604052508101906117829190612ec9565b10156117a05760405162461bcd60e51b81526004016103ea906133e6565b6040516323b872dd60e01b81526001600160a01b038416906323b872dd906117d09033903090899060040161314c565b602060405180830381600087803b1580156117ea57600080fd5b505af11580156117fe573d6000803e3d6000fd5b505050506040513d601f19601f820116820180604052508101906118229190612dfb565b50604051632e1a7d4d60e01b81526001600160a01b03841690632e1a7d4d9061184f90879060040161349f565b602060405180830381600087803b15801561186957600080fd5b505af115801561187d573d6000803e3d6000fd5b505050506040513d601f19601f820116820180604052508101906118a19190612ec9565b600154604051632e1a7d4d60e01b81529193506001600160a01b031690632e1a7d4d906118d290859060040161349f565b600060405180830381600087803b1580156118ec57600080fd5b505af1158015611900573d6000803e3d6000fd5b505060405133925084156108fc02915084906000818181858888f19350505050158015610a57573d6000803e3d6000fd5b600080546040516322bc934560e11b8152829182916001600160a01b0390911690634579268a9061196690879060040161349f565b60806040518083038186803b15801561197e57600080fd5b505afa158015611992573d6000803e3d6000fd5b505050506040513d601f19601f820116820180604052508101906119b69190612f7c565b505060015491935091506001600160a01b038083169116146119ea5760405162461bcd60e51b81526004016103ea9061323d565b6000546040516340e58ee560e01b81526001600160a01b03909116906340e58ee590611a1a90879060040161349f565b602060405180830381600087803b158015611a3457600080fd5b505af1158015611a48573d6000803e3d6000fd5b505050506040513d601f19601f82011682018060405250810190611a6c9190612dfb565b600154604051632e1a7d4d60e01b81529194506001600160a01b031690632e1a7d4d90611a9d90859060040161349f565b600060405180830381600087803b158015611ab757600080fd5b505af1158015611acb573d6000803e3d6000fd5b505060405133925084156108fc02915084906000818181858888f19350505050158015611afc573d6000803e3d6000fd5b505050919050565b600080846001600160a01b03166370a08231336040518263ffffffff1660e01b8152600401611b33919061311e565b60206040518083038186803b158015611b4b57600080fd5b505afa158015611b5f573d6000803e3d6000fd5b505050506040513d601f19601f82011682018060405250810190611b839190612ec9565b600054604051638185402b60e01b81529192506001600160a01b031690638185402b90611bba9088908590899089906004016131ca565b602060405180830381600087803b158015611bd457600080fd5b505af1158015611be8573d6000803e3d6000fd5b505050506040513d601f19601f82011682018060405250810190611c0c9190612ec9565b60405163a9059cbb60e01b81529092506001600160a01b0386169063a9059cbb90611c3d9033908690600401613170565b602060405180830381600087803b158015611c5757600080fd5b505af1158015611c6b573d6000803e3d6000fd5b505050506040513d601f19601f82011682018060405250810190611c8f9190612dfb565b50509392505050565b600154600160a01b900460ff1615611caf57600080fd5b600080546001600160a01b03199081166001600160a01b039485161790915560018054600160a01b9216929093169190911760ff60a01b1916179055565b600080836001600160a01b03166370a08231336040518263ffffffff1660e01b8152600401611d1c919061311e565b60206040518083038186803b158015611d3457600080fd5b505afa158015611d48573d6000803e3d6000fd5b505050506040513d601f19601f82011682018060405250810190611d6c9190612ec9565b600054604051630310da7b60e11b81529192506001600160a01b031690630621b4f690611da39088908590899089906004016131ca565b602060405180830381600087803b158015611dbd57600080fd5b505af1158015611dd1573d6000803e3d6000fd5b505050506040513d601f19601f82011682018060405250810190611df59190612ec9565b60405163a9059cbb60e01b81529092506001600160a01b0385169063a9059cbb90611c3d9033908690600401613170565b600080546001600160a01b031681805b6000198601811015611f4f57600080888884818110611e5157fe5b9050602002016020810190611e669190612d95565b898985600101818110611e7557fe5b9050602002016020810190611e8a9190612d95565b91509150600083600014611eb757611eb2611eab612710610bbc888c612824565b86906128ed565b611eb9565b8b5b90506000866001600160a01b031663144a27528486856040518463ffffffff1660e01b8152600401611eed9392919061314c565b60206040518083038186803b158015611f0557600080fd5b505afa158015611f19573d6000803e3d6000fd5b505050506040513d601f19601f82011682018060405250810190611f3d9190612ec9565b95505060019093019250611e36915050565b5086811015611f705760405162461bcd60e51b81526004016103ea9061341d565b979650505050505050565b6040516323b872dd60e01b81526000906001600160a01b038416906323b872dd90611fae9033903090879060040161314c565b602060405180830381600087803b158015611fc857600080fd5b505af1158015611fdc573d6000803e3d6000fd5b505050506040513d601f19601f820116820180604052508101906120009190612dfb565b50600054600154604051638185402b60e01b81526001600160a01b0392831692638185402b9261203b929116908890889088906004016131ca565b602060405180830381600087803b15801561205557600080fd5b505af1158015612069573d6000803e3d6000fd5b505050506040513d601f19601f8201168201806040525081019061208d9190612ec9565b600154604051632e1a7d4d60e01b81529192506001600160a01b031690632e1a7d4d906120be90879060040161349f565b600060405180830381600087803b1580156120d857600080fd5b505af11580156120ec573d6000803e3d6000fd5b505060405133925086156108fc02915086906000818181858888f1935050505015801561211d573d6000803e3d6000fd5b50808211156121aa5760405163a9059cbb60e01b81526001600160a01b0384169063a9059cbb9061215690339085870390600401613170565b602060405180830381600087803b15801561217057600080fd5b505af1158015612184573d6000803e3d6000fd5b505050506040513d601f19601f820116820180604052508101906121a89190612dfb565b505b9392505050565b6001546000906001600160a01b0316848483816121ca57fe5b90506020020160208101906121df9190612d95565b6001600160a01b0316146122055760405162461bcd60e51b81526004016103ea90613341565b600061222161221a612710610bbc8a87612824565b8890612cd4565b9050803410156122435760405162461bcd60e51b81526004016103ea906132e4565b600160009054906101000a90046001600160a01b03166001600160a01b031663d0e30db0826040518263ffffffff1660e01b81526004016000604051808303818588803b15801561229357600080fd5b505af11580156122a7573d6000803e3d6000fd5b5050505050611f7087878787873361294a565b6040516323b872dd60e01b81526000906001600160a01b038516906323b872dd906122ed90339030908a9060040161314c565b602060405180830381600087803b15801561230757600080fd5b505af115801561231b573d6000803e3d6000fd5b505050506040513d601f19601f8201168201806040525081019061233f9190612dfb565b506001546040516370a0823160e01b81526000916001600160a01b0316906370a082319061237190309060040161311e565b60206040518083038186803b15801561238957600080fd5b505afa15801561239d573d6000803e3d6000fd5b505050506040513d601f19601f820116820180604052508101906123c19190612ec9565b60008054600154604051630d99ea0960e11b815293945091926001600160a01b0391821692631b33d41292612403928c928c928c929116908b906004016134dc565b602060405180830381600087803b15801561241d57600080fd5b505af1158015612431573d6000803e3d6000fd5b505050506040513d601f19601f820116820180604052508101906124559190612ec9565b6001546040516370a0823160e01b81529192506000916001600160a01b03909116906370a082319061248b90309060040161311e565b60206040518083038186803b1580156124a357600080fd5b505afa1580156124b7573d6000803e3d6000fd5b505050506040513d601f19601f820116820180604052508101906124db9190612ec9565b90508281111561067d57600154604051632e1a7d4d60e01b8152848303916001600160a01b031690632e1a7d4d9061251790849060040161349f565b600060405180830381600087803b15801561253157600080fd5b505af1158015612545573d6000803e3d6000fd5b505060405133925083156108fc02915083906000818181858888f19350505050158015612576573d6000803e3d6000fd5b505050915050949350505050565b6001546000906001600160a01b0316848460001981018181106125a357fe5b90506020020160208101906125b89190612d95565b6001600160a01b0316146125de5760405162461bcd60e51b81526004016103ea9061327e565b838360008181106125eb57fe5b90506020020160208101906126009190612d95565b6001600160a01b03166323b872dd333061262a612623612710610bbc8d8a612824565b8b90612cd4565b6040518463ffffffff1660e01b81526004016126489392919061314c565b602060405180830381600087803b15801561266257600080fd5b505af1158015612676573d6000803e3d6000fd5b505050506040513d601f19601f8201168201806040525081019061269a9190612dfb565b6126b65760405162461bcd60e51b81526004016103ea90613378565b6126c486868686863061294a565b600154604051632e1a7d4d60e01b81529192506001600160a01b031690632e1a7d4d906126f590849060040161349f565b600060405180830381600087803b15801561270f57600080fd5b505af1158015612723573d6000803e3d6000fd5b505060405133925083156108fc02915083906000818181858888f19350505050158015612754573d6000803e3d6000fd5b5095945050505050565b60008383600081811061276d57fe5b90506020020160208101906127829190612d95565b6001600160a01b03166323b872dd33306127a5612623612710610bbc8d8a612824565b6040518463ffffffff1660e01b81526004016127c39392919061314c565b602060405180830381600087803b1580156127dd57600080fd5b505af11580156127f1573d6000803e3d6000fd5b505050506040513d601f19601f820116820180604052508101906128159190612dfb565b50610bd286868686863361294a565b60008261283357506000612880565b8282028284828161284057fe5b041461287d5760405162461bcd60e51b815260040180806020018281038252602181526020018061354f6021913960400191505060405180910390fd5b90505b92915050565b60008082116128dc576040805162461bcd60e51b815260206004820152601a60248201527f536166654d6174683a206469766973696f6e206279207a65726f000000000000604482015290519081900360640190fd5b8183816128e557fe5b049392505050565b600082821115612944576040805162461bcd60e51b815260206004820152601e60248201527f536166654d6174683a207375627472616374696f6e206f766572666c6f770000604482015290519081900360640190fd5b50900390565b600080546001600160a01b031681805b6000198701811015612afd5760008089898481811061297557fe5b905060200201602081019061298a9190612d95565b8a8a8560010181811061299957fe5b90506020020160208101906129ae9190612d95565b915091506000836000146129d4576129cf611eab612710610bbc888d612824565b6129d6565b8c5b604051636eb1769f60e11b81529091506001600160a01b0384169063dd62ed3e90612a079030908a90600401613132565b60206040518083038186803b158015612a1f57600080fd5b505afa158015612a33573d6000803e3d6000fd5b505050506040513d601f19601f82011682018060405250810190612a579190612ec9565b612a6457612a6483610688565b604051630310da7b60e11b81526000906001600160a01b03881690630621b4f690612a999087908690889087906004016131ca565b602060405180830381600087803b158015612ab357600080fd5b505af1158015612ac7573d6000803e3d6000fd5b505050506040513d601f19601f82011682018060405250810190612aeb9190612ec9565b9550506001909301925061295a915050565b5087811015612b1e5760405162461bcd60e51b81526004016103ea9061341d565b6001600160a01b0384163014612bd45786866000198101818110612b3e57fe5b9050602002016020810190612b539190612d95565b6001600160a01b031663a9059cbb85836040518363ffffffff1660e01b8152600401612b80929190613170565b602060405180830381600087803b158015612b9a57600080fd5b505af1158015612bae573d6000803e3d6000fd5b505050506040513d601f19601f82011682018060405250810190612bd29190612dfb565b505b86866000818110612be157fe5b9050602002016020810190612bf69190612d95565b87876000198101818110612c0657fe5b9050602002016020810190612c1b9190612d95565b604051602001612c2c9291906130f7565b604051602081830303815290604052805190602001207fe246f5c6615e4a819ae6062dd22d99f289cc78afbf91469c64a81584c45475e58a89896000818110612c7157fe5b9050602002016020810190612c869190612d95565b8b8b8b6000198101818110612c9757fe5b9050602002016020810190612cac9190612d95565b868a604051612cc0969594939291906134a8565b60405180910390a298975050505050505050565b60008282018381101561287d576040805162461bcd60e51b815260206004820152601b60248201527f536166654d6174683a206164646974696f6e206f766572666c6f770000000000604482015290519081900360640190fd5b60405180606001604052806003906020820280368337509192915050565b60008083601f840112612d5d578182fd5b50813567ffffffffffffffff811115612d74578182fd5b6020830191508360208083028501011115612d8e57600080fd5b9250929050565b600060208284031215612da6578081fd5b813561287d81613536565b60008060408385031215612dc3578081fd5b8235612dce81613536565b91506020830135612dde81613536565b809150509250929050565b60008060408385031215612dc3578182fd5b600060208284031215612e0c578081fd5b8151801515811461287d578182fd5b600080600060608486031215612e2f578081fd5b8335612e3a81613536565b92506020840135612e4a81613536565b929592945050506040919091013590565b60008060008060808587031215612e70578081fd5b8435612e7b81613536565b966020860135965060408601359560600135945092505050565b600060208284031215612ea6578081fd5b815161287d81613536565b600060208284031215612ec2578081fd5b5035919050565b600060208284031215612eda578081fd5b5051919050565b60008060408385031215612ef3578182fd5b823591506020830135612dde81613536565b60008060008060608587031215612f1a578384fd5b84359350602085013567ffffffffffffffff811115612f37578384fd5b612f4387828801612d4c565b9598909750949560400135949350505050565b600080600060608486031215612f6a578283fd5b833592506020840135612e4a81613536565b60008060008060808587031215612f91578384fd5b845193506020850151612fa381613536565b604086015160608701519194509250612fbb81613536565b939692955090935050565b60008060008060808587031215612fdb578182fd5b843593506020850135612fed81613536565b93969395505050506040820135916060013590565b600080600080600060808688031215613019578283fd5b8535945060208601359350604086013567ffffffffffffffff81111561303d578384fd5b61304988828901612d4c565b96999598509660600135949350505050565b60008060008060808587031215613070578182fd5b8435935060208501359250604085013561308981613536565b9396929550929360600135925050565b6000815180845260208085019450808401835b838110156130ec57815187865b60038110156130d6578251825291850191908501906001016130b9565b50505060609690960195908201906001016130ac565b509495945050505050565b6bffffffffffffffffffffffff19606093841b811682529190921b16601482015260280190565b6001600160a01b0391909116815260200190565b6001600160a01b0392831681529116602082015260400190565b6001600160a01b039384168152919092166020820152604081019190915260600190565b6001600160a01b03929092168252602082015260400190565b60006060825261319c6060830186613099565b82810360208401526131ae8186613099565b915050826040830152949350505050565b901515815260200190565b6001600160a01b039485168152602081019390935292166040820152606081019190915260800190565b60208082526029908201527f6d7573742073656e64206173206d75636820455448206173206d61785f66696c6040820152686c5f7769746846656560b81b606082015260800190565b60208082526021908201527f747279696e6720746f2063616e63656c2061206e6f6e2057455448206f7264656040820152603960f91b606082015260800190565b6020808252601a908201527f746172676574206f662073776170206973206e6f742057455448000000000000604082015260600190565b6020808252601590820152740c8d2c8dce840e6cadcc840cadcdeeaced040cae8d605b1b604082015260600190565b6020808252603e908201527f6d7573742073656e6420656e6f756768206e61746976652045544820746f207060408201527f6179206173207765746820616e64206163636f756e7420666f72206665650000606082015260800190565b6020808252601e908201527f496e697469616c2076616c756520696e2070617468206e6f7420574554480000604082015260600190565b6020808252601d908201527f696e697469616c204552433230207472616e73666572206661696c6564000000604082015260600190565b60208082526019908201527f74617267657420706f6f6c206e6f74207765746820706f6f6c00000000000000604082015260600190565b60208082526017908201527f646f6e2774206f776e20656e6f75676820736861726573000000000000000000604082015260600190565b60208082526017908201527f6469646e7420636c656172206275795f616d745f6d696e000000000000000000604082015260600190565b6020808252602b908201527f6469646e742073656e6420656e6f756768206e61746976652045544820666f7260408201526a102ba2aa241037b33332b960a91b606082015260800190565b90815260200190565b9586526001600160a01b0394851660208701526040860193909352908316606085015260808401521660a082015260c00190565b9485526001600160a01b03938416602086015260408501929092529091166060830152608082015260a00190565b94855260208501939093526001600160a01b039182166040850152606084015216608082015260a00190565b6001600160a01b038116811461354b57600080fd5b5056fe536166654d6174683a206d756c7469706c69636174696f6e206f766572666c6f77a264697066735822122079c25cc87b931872984e9bc4da94d926e2cc54b94218db4f6cd7087d0e9e31de64736f6c63430007060033",
  "immutableReferences": {},
  "source": "// SPDX-License-Identifier: BUSL-1.1\n\n/// @author Benjamin Hughes - Rubicon\n/// @notice This contract is a router to interact with the low-level functions present in RubiconMarket and Pools\npragma solidity =0.7.6;\npragma abicoder v2;\n\nimport \"./RubiconMarket.sol\";\nimport \"@openzeppelin/contracts/token/ERC20/IERC20.sol\";\nimport \"@openzeppelin/contracts/math/SafeMath.sol\";\nimport \"./peripheral_contracts/WETH9.sol\"; // @unsupported: ovm\nimport \"./interfaces/IBathToken.sol\";\n\n///@dev this contract is a high-level router that utilizes Rubicon smart contracts to provide\n///@dev added convenience and functionality when interacting with the Rubicon protocol\ncontract RubiconRouter {\n    using SafeMath for uint256;\n\n    address public RubiconMarketAddress;\n\n    address payable public wethAddress;\n\n    bool public started;\n\n    event LogNote(string, uint256);\n\n    event LogSwap(\n        uint256 inputAmount,\n        address inputERC20,\n        uint256 hurdleBuyAmtMin,\n        address targetERC20,\n        bytes32 indexed pair,\n        uint256 realizedFill,\n        address recipient\n    );\n\n    receive() external payable {}\n\n    fallback() external payable {}\n\n    function startErUp(address _theTrap, address payable _weth) external {\n        require(!started);\n        RubiconMarketAddress = _theTrap;\n        wethAddress = _weth;\n        started = true;\n    }\n\n    /// @notice Get the outstanding best N orders from both sides of the order book for a given pair\n    /// @dev The asset/quote pair ordering will affect return values - asset should be the top of the pair: for example, (ETH, USDC, 10) will return (10 best ETH asks, 10 best USDC bids, 10)\n    /// @param asset the ERC20 token that represents the ask/sell side of the order book\n    /// @param quote the ERC20 token that represents the bid/buy side of the order book\n    /// @param topNOrders the depth of the order book the caller would like to query/view for the asset-quote pair\n    /// @dev \"best\" orders are determined by proximity to the midpoint of the pair. Closest to the midpoint is best order.\n    /// @return Fixed arrays (of topNOrders length) in \"best\" order (returned asks/bids[0] is best and asks/bids[topNOrders] is worst) of asks and bids + topNOrders. Each offer array item is: [pay, buy, offerId]\n    function getBookFromPair(\n        ERC20 asset,\n        ERC20 quote,\n        uint256 topNOrders\n    )\n        public\n        view\n        returns (\n            uint256[3][] memory,\n            uint256[3][] memory,\n            uint256\n        )\n    {\n        uint256[3][] memory asks = new uint256[3][](topNOrders);\n        uint256[3][] memory bids = new uint256[3][](topNOrders);\n        address _RubiconMarketAddress = RubiconMarketAddress;\n\n        //1. Get best offer for each asset\n        uint256 bestAskID = RubiconMarket(_RubiconMarketAddress).getBestOffer(\n            asset,\n            quote\n        );\n        uint256 bestBidID = RubiconMarket(_RubiconMarketAddress).getBestOffer(\n            quote,\n            asset\n        );\n\n        uint256 lastBid = 0;\n        uint256 lastAsk = 0;\n        //2. Iterate from that offer down the book until topNOrders\n        for (uint256 index = 0; index < topNOrders; index++) {\n            if (index == 0) {\n                lastAsk = bestAskID;\n                lastBid = bestBidID;\n\n                (\n                    uint256 _ask_pay_amt,\n                    ,\n                    uint256 _ask_buy_amt,\n\n                ) = RubiconMarket(_RubiconMarketAddress).getOffer(bestAskID);\n                (\n                    uint256 _bid_pay_amt,\n                    ,\n                    uint256 _bid_buy_amt,\n\n                ) = RubiconMarket(_RubiconMarketAddress).getOffer(bestBidID);\n                asks[index] = [_ask_pay_amt, _ask_buy_amt, bestAskID];\n                bids[index] = [_bid_pay_amt, _bid_buy_amt, bestBidID];\n                continue;\n            }\n            uint256 nextBestAsk = RubiconMarket(_RubiconMarketAddress)\n            .getWorseOffer(lastAsk);\n            uint256 nextBestBid = RubiconMarket(_RubiconMarketAddress)\n            .getWorseOffer(lastBid);\n            (uint256 ask_pay_amt, , uint256 ask_buy_amt, ) = RubiconMarket(\n                _RubiconMarketAddress\n            ).getOffer(nextBestAsk);\n            (uint256 bid_pay_amt, , uint256 bid_buy_amt, ) = RubiconMarket(\n                _RubiconMarketAddress\n            ).getOffer(nextBestBid);\n\n            asks[index] = [ask_pay_amt, ask_buy_amt, nextBestAsk];\n            bids[index] = [bid_pay_amt, bid_buy_amt, nextBestBid];\n            // bids[index] = nextBestBid;\n            lastBid = nextBestBid;\n            lastAsk = nextBestAsk;\n        }\n\n        //3. Return those topNOrders for either side of the order book\n        return (asks, bids, topNOrders);\n    }\n\n    /// @dev this function returns the best offer for a pair's id and info\n    function getBestOfferAndInfo(address asset, address quote)\n        public\n        view\n        returns (\n            uint256, //id\n            uint256,\n            ERC20,\n            uint256,\n            ERC20\n        )\n    {\n        address _market = RubiconMarketAddress;\n        uint256 offer = RubiconMarket(_market).getBestOffer(\n            ERC20(asset),\n            ERC20(quote)\n        );\n        (\n            uint256 pay_amt,\n            ERC20 pay_gem,\n            uint256 buy_amt,\n            ERC20 buy_gem\n        ) = RubiconMarket(_market).getOffer(offer);\n        return (offer, pay_amt, pay_gem, buy_amt, buy_gem);\n    }\n\n    // function for infinite approvals of Rubicon Market\n    function approveAssetOnMarket(address toApprove) public {\n        // Approve exchange\n        ERC20(toApprove).approve(RubiconMarketAddress, 2**256 - 1);\n    }\n\n    /// @dev this function takes the same parameters of swap and returns the expected amount\n    function getExpectedSwapFill(\n        uint256 pay_amt,\n        uint256 buy_amt_min,\n        address[] calldata route, // First address is what is being payed, Last address is what is being bought\n        uint256 expectedMarketFeeBPS //20\n    ) public view returns (uint256 fill_amt) {\n        address _market = RubiconMarketAddress;\n        uint256 currentAmount = 0;\n        for (uint256 i = 0; i < route.length - 1; i++) {\n            (address input, address output) = (route[i], route[i + 1]);\n            uint256 _pay = i == 0\n                ? pay_amt\n                : (\n                    currentAmount.sub(\n                        currentAmount.mul(expectedMarketFeeBPS).div(10000)\n                    )\n                );\n            uint256 wouldBeFillAmount = RubiconMarket(_market).getBuyAmount(\n                ERC20(output),\n                ERC20(input),\n                _pay\n            );\n            currentAmount = wouldBeFillAmount;\n        }\n        require(currentAmount >= buy_amt_min, \"didnt clear buy_amt_min\");\n\n        // Return the wouldbe resulting swap amount\n        return (currentAmount);\n    }\n\n    /// @dev This function lets a user swap from route[0] -> route[last] at some minimum expected rate\n    /// @dev pay_amt - amount to be swapped away from msg.sender of *first address in path*\n    /// @dev buy_amt_min - target minimum received of *last address in path*\n    function swap(\n        uint256 pay_amt,\n        uint256 buy_amt_min,\n        address[] calldata route, // First address is what is being payed, Last address is what is being bought\n        uint256 expectedMarketFeeBPS //20\n    ) public returns (uint256) {\n        //**User must approve this contract first**\n        //transfer needed amount here first\n        ERC20(route[0]).transferFrom(\n            msg.sender,\n            address(this),\n            pay_amt.add(pay_amt.mul(expectedMarketFeeBPS).div(10000)) // Account for expected fee\n        );\n        return\n            _swap(\n                pay_amt,\n                buy_amt_min,\n                route,\n                expectedMarketFeeBPS,\n                msg.sender\n            );\n    }\n\n    // Internal function requires that ERC20s are here before execution\n    function _swap(\n        uint256 pay_amt,\n        uint256 buy_amt_min,\n        address[] calldata route, // First address is what is being payed, Last address is what is being bought\n        uint256 expectedMarketFeeBPS,\n        address to // Recipient of swap outputs!\n    ) internal returns (uint256) {\n        address _market = RubiconMarketAddress;\n        uint256 currentAmount = 0;\n        for (uint256 i = 0; i < route.length - 1; i++) {\n            (address input, address output) = (route[i], route[i + 1]);\n            uint256 _pay = i == 0\n                ? pay_amt\n                : (\n                    currentAmount.sub(\n                        currentAmount.mul(expectedMarketFeeBPS).div(10000)\n                    )\n                );\n            if (ERC20(input).allowance(address(this), _market) == 0) {\n                approveAssetOnMarket(input);\n            }\n            uint256 fillAmount = RubiconMarket(_market).sellAllAmount(\n                ERC20(input),\n                _pay,\n                ERC20(output),\n                0 //naively assume no fill_amt here for loop purposes?\n            );\n            currentAmount = fillAmount;\n        }\n        require(currentAmount >= buy_amt_min, \"didnt clear buy_amt_min\");\n\n        // send tokens back to sender if not keeping here\n        if (to != address(this)) {\n            ERC20(route[route.length - 1]).transfer(to, currentAmount);\n        }\n\n        emit LogSwap(\n            pay_amt,\n            route[0],\n            buy_amt_min,\n            route[route.length - 1],\n            keccak256(abi.encodePacked(route[0], route[route.length - 1])),\n            currentAmount,\n            to\n        );\n        return currentAmount;\n    }\n\n    /// @dev this function takes a user's entire balance for the trade in case they want to do a max trade so there's no leftover dust\n    function swapEntireBalance(\n        uint256 buy_amt_min,\n        address[] calldata route, // First address is what is being payed, Last address is what is being bought\n        uint256 expectedMarketFeeBPS\n    ) external returns (uint256) {\n        //swaps msg.sender entire balance in the trade\n        uint256 maxAmount = ERC20(route[0]).balanceOf(msg.sender);\n        ERC20(route[0]).transferFrom(\n            msg.sender,\n            address(this),\n            maxAmount // Account for expected fee\n        );\n        return\n            _swap(\n                maxAmount,\n                maxAmount.sub(buy_amt_min.mul(expectedMarketFeeBPS).div(10000)), //account for fee\n                route,\n                expectedMarketFeeBPS,\n                msg.sender\n            );\n    }\n\n    /// @dev this function takes a user's entire balance for the trade in case they want to do a max trade so there's no leftover dust\n    function maxBuyAllAmount(\n        ERC20 buy_gem,\n        ERC20 pay_gem,\n        uint256 max_fill_amount\n    ) external returns (uint256 fill) {\n        //swaps msg.sender's entire balance in the trade\n        uint256 maxAmount = ERC20(buy_gem).balanceOf(msg.sender);\n        fill = RubiconMarket(RubiconMarketAddress).buyAllAmount(\n            buy_gem,\n            maxAmount,\n            pay_gem,\n            max_fill_amount\n        );\n        ERC20(buy_gem).transfer(msg.sender, fill);\n    }\n\n    /// @dev this function takes a user's entire balance for the trade in case they want to do a max trade so there's no leftover dust\n    function maxSellAllAmount(\n        ERC20 pay_gem,\n        ERC20 buy_gem,\n        uint256 min_fill_amount\n    ) external returns (uint256 fill) {\n        //swaps msg.sender entire balance in the trade\n        uint256 maxAmount = ERC20(buy_gem).balanceOf(msg.sender);\n        fill = RubiconMarket(RubiconMarketAddress).sellAllAmount(\n            pay_gem,\n            maxAmount,\n            buy_gem,\n            min_fill_amount\n        );\n        ERC20(buy_gem).transfer(msg.sender, fill);\n    }\n\n    // ** Native ETH Wrapper Functions **\n    /// @dev WETH wrapper functions to obfuscate WETH complexities from ETH holders\n    function buyAllAmountWithETH(\n        ERC20 buy_gem,\n        uint256 buy_amt,\n        uint256 max_fill_amount,\n        uint256 expectedMarketFeeBPS\n    ) external payable returns (uint256 fill) {\n        address _weth = address(wethAddress);\n        uint256 _before = ERC20(_weth).balanceOf(address(this));\n        uint256 max_fill_withFee = max_fill_amount.add(\n            max_fill_amount.mul(expectedMarketFeeBPS).div(10000)\n        );\n        require(\n            msg.value >= max_fill_withFee,\n            \"must send as much ETH as max_fill_withFee\"\n        );\n        WETH9(wethAddress).deposit{value: max_fill_withFee}(); // Pay with native ETH -> WETH\n        // An amount in WETH\n        fill = RubiconMarket(RubiconMarketAddress).buyAllAmount(\n            buy_gem,\n            buy_amt,\n            ERC20(wethAddress),\n            max_fill_amount\n        );\n        ERC20(buy_gem).transfer(msg.sender, buy_amt);\n\n        uint256 _after = ERC20(_weth).balanceOf(address(this));\n        uint256 delta = _after - _before;\n\n        // Return unspent coins to sender\n        if (delta > 0) {\n            WETH9(wethAddress).withdraw(delta);\n            msg.sender.transfer(delta);\n        }\n    }\n\n    // Paying ERC20 to buy native ETH\n    function buyAllAmountForETH(\n        uint256 buy_amt,\n        ERC20 pay_gem,\n        uint256 max_fill_amount\n    ) external returns (uint256 fill) {\n        ERC20(pay_gem).transferFrom(msg.sender, address(this), max_fill_amount); //transfer pay here\n        fill = RubiconMarket(RubiconMarketAddress).buyAllAmount(\n            ERC20(wethAddress),\n            buy_amt,\n            pay_gem,\n            max_fill_amount\n        );\n        WETH9(wethAddress).withdraw(buy_amt); // Fill in WETH\n        msg.sender.transfer(buy_amt); // Return native ETH\n        // Return unspent coins to sender\n        if (max_fill_amount > fill) {\n            ERC20(pay_gem).transfer(msg.sender, max_fill_amount - fill);\n        }\n        return fill;\n    }\n\n    // Pay in native ETH\n    function offerWithETH(\n        uint256 pay_amt, //maker (ask) sell how much\n        // ERC20 nativeETH, //maker (ask) sell which token\n        uint256 buy_amt, //maker (ask) buy how much\n        ERC20 buy_gem, //maker (ask) buy which token\n        uint256 pos //position to insert offer, 0 should be used if unknown\n    ) external payable returns (uint256) {\n        require(\n            msg.value >= pay_amt,\n            \"didnt send enough native ETH for WETH offer\"\n        );\n        uint256 _before = ERC20(buy_gem).balanceOf(address(this));\n        WETH9(wethAddress).deposit{value: pay_amt}();\n        uint256 id = RubiconMarket(RubiconMarketAddress).offer(\n            pay_amt,\n            ERC20(wethAddress),\n            buy_amt,\n            buy_gem,\n            pos\n        );\n        uint256 _after = ERC20(buy_gem).balanceOf(address(this));\n        if (_after > _before) {\n            //return any potential fill amount on the offer\n            ERC20(buy_gem).transfer(msg.sender, _after - _before);\n        }\n        return id;\n    }\n\n    // Pay in native ETH\n    function offerForETH(\n        uint256 pay_amt, //maker (ask) sell how much\n        ERC20 pay_gem, //maker (ask) sell which token\n        uint256 buy_amt, //maker (ask) buy how much\n        // ERC20 nativeETH, //maker (ask) buy which token\n        uint256 pos //position to insert offer, 0 should be used if unknown\n    ) external returns (uint256) {\n        ERC20(pay_gem).transferFrom(msg.sender, address(this), pay_amt);\n\n        uint256 _before = ERC20(wethAddress).balanceOf(address(this));\n        uint256 id = RubiconMarket(RubiconMarketAddress).offer(\n            pay_amt,\n            pay_gem,\n            buy_amt,\n            ERC20(wethAddress),\n            pos\n        );\n        uint256 _after = ERC20(wethAddress).balanceOf(address(this));\n        if (_after > _before) {\n            //return any potential fill amount on the offer as native ETH\n            uint256 delta = _after - _before;\n            WETH9(wethAddress).withdraw(delta);\n            msg.sender.transfer(delta);\n        }\n        return id;\n    }\n\n    // Cancel an offer made in WETH\n    function cancelForETH(uint256 id) external returns (bool outcome) {\n        (uint256 pay_amt, ERC20 pay_gem, , ) = RubiconMarket(\n            RubiconMarketAddress\n        ).getOffer(id);\n        require(\n            address(pay_gem) == wethAddress,\n            \"trying to cancel a non WETH order\"\n        );\n        // Cancel order and receive WETH here in amount of pay_amt\n        outcome = RubiconMarket(RubiconMarketAddress).cancel(id);\n        WETH9(wethAddress).withdraw(pay_amt);\n        msg.sender.transfer(pay_amt);\n    }\n\n    // Deposit native ETH -> WETH pool\n    function depositWithETH(uint256 amount, address targetPool)\n        external\n        payable\n        returns (uint256 newShares)\n    {\n        IERC20 target = IBathToken(targetPool).underlyingToken();\n        require(target == ERC20(wethAddress), \"target pool not weth pool\");\n        require(msg.value >= amount, \"didnt send enough eth\");\n\n        if (target.allowance(address(this), targetPool) == 0) {\n            target.approve(targetPool, amount);\n        }\n\n        WETH9(wethAddress).deposit{value: amount}();\n        newShares = IBathToken(targetPool).deposit(amount);\n        //Send back bathTokens to sender\n        ERC20(targetPool).transfer(msg.sender, newShares);\n    }\n\n    // Withdraw native ETH <- WETH pool\n    function withdrawForETH(uint256 shares, address targetPool)\n        external\n        payable\n        returns (uint256 withdrawnWETH)\n    {\n        IERC20 target = IBathToken(targetPool).underlyingToken();\n        require(target == ERC20(wethAddress), \"target pool not weth pool\");\n        require(\n            IBathToken(targetPool).balanceOf(msg.sender) >= shares,\n            \"don't own enough shares\"\n        );\n        IBathToken(targetPool).transferFrom(msg.sender, address(this), shares);\n        withdrawnWETH = IBathToken(targetPool).withdraw(shares);\n        WETH9(wethAddress).withdraw(withdrawnWETH);\n\n        //Send back withdrawn native eth to sender\n        msg.sender.transfer(withdrawnWETH);\n    }\n\n    function swapWithETH(\n        uint256 pay_amt,\n        uint256 buy_amt_min,\n        address[] calldata route, // First address is what is being payed, Last address is what is being bought\n        uint256 expectedMarketFeeBPS\n    ) external payable returns (uint256) {\n        require(route[0] == wethAddress, \"Initial value in path not WETH\");\n        uint256 amtWithFee = pay_amt.add(\n            pay_amt.mul(expectedMarketFeeBPS).div(10000)\n        );\n        require(\n            msg.value >= amtWithFee,\n            \"must send enough native ETH to pay as weth and account for fee\"\n        );\n        WETH9(wethAddress).deposit{value: amtWithFee}();\n        return\n            _swap(\n                pay_amt,\n                buy_amt_min,\n                route,\n                expectedMarketFeeBPS,\n                msg.sender\n            );\n    }\n\n    function swapForETH(\n        uint256 pay_amt,\n        uint256 buy_amt_min,\n        address[] calldata route, // First address is what is being payed, Last address is what is being bought\n        uint256 expectedMarketFeeBPS\n    ) external payable returns (uint256 fill) {\n        require(\n            route[route.length - 1] == wethAddress,\n            \"target of swap is not WETH\"\n        );\n        //Transfer tokens here first and account for fee\n        require(\n            ERC20(route[0]).transferFrom(\n                msg.sender,\n                address(this),\n                pay_amt.add(pay_amt.mul(expectedMarketFeeBPS).div(10000))\n            ),\n            \"initial ERC20 transfer failed\"\n        );\n        fill = _swap(\n            pay_amt,\n            buy_amt_min,\n            route,\n            expectedMarketFeeBPS,\n            address(this)\n        );\n\n        WETH9(wethAddress).withdraw(fill);\n        // msg.sender.transfer(fill);\n        msg.sender.transfer(fill);\n    }\n}\n",
  "sourcePath": "/Users/bghughes/workspace/2022-05-rubicon/contracts/RubiconRouter.sol",
  "compiler": {
    "name": "solc",
    "version": "0.7.6+commit.7338295f.Emscripten.clang"
  },
  "schemaVersion": "3.3.4",
  "updatedAt": "2022-05-20T22:17:11.863Z",
  "devdoc": {
    "details": "this contract is a high-level router that utilizes Rubicon smart contracts to provideadded convenience and functionality when interacting with the Rubicon protocol",
    "kind": "dev",
    "methods": {
      "buyAllAmountWithETH(address,uint256,uint256,uint256)": {
        "details": "WETH wrapper functions to obfuscate WETH complexities from ETH holders"
      },
      "getBestOfferAndInfo(address,address)": {
        "details": "this function returns the best offer for a pair's id and info"
      },
      "getBookFromPair(address,address,uint256)": {
        "details": "The asset/quote pair ordering will affect return values - asset should be the top of the pair: for example, (ETH, USDC, 10) will return (10 best ETH asks, 10 best USDC bids, 10)\"best\" orders are determined by proximity to the midpoint of the pair. Closest to the midpoint is best order.",
        "params": {
          "asset": "the ERC20 token that represents the ask/sell side of the order book",
          "quote": "the ERC20 token that represents the bid/buy side of the order book",
          "topNOrders": "the depth of the order book the caller would like to query/view for the asset-quote pair"
        },
        "returns": {
          "_0": "Fixed arrays (of topNOrders length) in \"best\" order (returned asks/bids[0] is best and asks/bids[topNOrders] is worst) of asks and bids + topNOrders. Each offer array item is: [pay, buy, offerId]"
        }
      },
      "getExpectedSwapFill(uint256,uint256,address[],uint256)": {
        "details": "this function takes the same parameters of swap and returns the expected amount"
      },
      "maxBuyAllAmount(address,address,uint256)": {
        "details": "this function takes a user's entire balance for the trade in case they want to do a max trade so there's no leftover dust"
      },
      "maxSellAllAmount(address,address,uint256)": {
        "details": "this function takes a user's entire balance for the trade in case they want to do a max trade so there's no leftover dust"
      },
      "swap(uint256,uint256,address[],uint256)": {
        "details": "This function lets a user swap from route[0] -> route[last] at some minimum expected ratepay_amt - amount to be swapped away from msg.sender of *first address in path*buy_amt_min - target minimum received of *last address in path*"
      },
      "swapEntireBalance(uint256,address[],uint256)": {
        "details": "this function takes a user's entire balance for the trade in case they want to do a max trade so there's no leftover dust"
      }
    },
    "version": 1
  },
  "userdoc": {
    "kind": "user",
    "methods": {
      "getBookFromPair(address,address,uint256)": {
        "notice": "Get the outstanding best N orders from both sides of the order book for a given pair"
      }
    },
    "version": 1
  }
}