{
  "contractName": "TokenWithFaucet",
  "abi": [
    {
      "inputs": [
        {
          "internalType": "address",
          "name": "_admin",
          "type": "address"
        },
        {
          "internalType": "string",
          "name": "_name",
          "type": "string"
        },
        {
          "internalType": "string",
          "name": "_symbol",
          "type": "string"
        },
        {
          "internalType": "uint8",
          "name": "_decimals",
          "type": "uint8"
        }
      ],
      "stateMutability": "nonpayable",
      "type": "constructor"
    },
    {
      "anonymous": false,
      "inputs": [
        {
          "indexed": true,
          "internalType": "address",
          "name": "owner",
          "type": "address"
        },
        {
          "indexed": true,
          "internalType": "address",
          "name": "spender",
          "type": "address"
        },
        {
          "indexed": false,
          "internalType": "uint256",
          "name": "value",
          "type": "uint256"
        }
      ],
      "name": "Approval",
      "type": "event"
    },
    {
      "anonymous": false,
      "inputs": [
        {
          "indexed": true,
          "internalType": "address",
          "name": "from",
          "type": "address"
        },
        {
          "indexed": true,
          "internalType": "address",
          "name": "to",
          "type": "address"
        },
        {
          "indexed": false,
          "internalType": "uint256",
          "name": "value",
          "type": "uint256"
        }
      ],
      "name": "Transfer",
      "type": "event"
    },
    {
      "inputs": [],
      "name": "admin",
      "outputs": [
        {
          "internalType": "address",
          "name": "",
          "type": "address"
        }
      ],
      "stateMutability": "view",
      "type": "function"
    },
    {
      "inputs": [
        {
          "internalType": "address",
          "name": "owner",
          "type": "address"
        },
        {
          "internalType": "address",
          "name": "spender",
          "type": "address"
        }
      ],
      "name": "allowance",
      "outputs": [
        {
          "internalType": "uint256",
          "name": "",
          "type": "uint256"
        }
      ],
      "stateMutability": "view",
      "type": "function"
    },
    {
      "inputs": [
        {
          "internalType": "address",
          "name": "spender",
          "type": "address"
        },
        {
          "internalType": "uint256",
          "name": "amount",
          "type": "uint256"
        }
      ],
      "name": "approve",
      "outputs": [
        {
          "internalType": "bool",
          "name": "",
          "type": "bool"
        }
      ],
      "stateMutability": "nonpayable",
      "type": "function"
    },
    {
      "inputs": [
        {
          "internalType": "address",
          "name": "account",
          "type": "address"
        }
      ],
      "name": "balanceOf",
      "outputs": [
        {
          "internalType": "uint256",
          "name": "",
          "type": "uint256"
        }
      ],
      "stateMutability": "view",
      "type": "function"
    },
    {
      "inputs": [],
      "name": "decimals",
      "outputs": [
        {
          "internalType": "uint8",
          "name": "",
          "type": "uint8"
        }
      ],
      "stateMutability": "view",
      "type": "function"
    },
    {
      "inputs": [
        {
          "internalType": "address",
          "name": "spender",
          "type": "address"
        },
        {
          "internalType": "uint256",
          "name": "subtractedValue",
          "type": "uint256"
        }
      ],
      "name": "decreaseAllowance",
      "outputs": [
        {
          "internalType": "bool",
          "name": "",
          "type": "bool"
        }
      ],
      "stateMutability": "nonpayable",
      "type": "function"
    },
    {
      "inputs": [
        {
          "internalType": "address",
          "name": "",
          "type": "address"
        }
      ],
      "name": "faucetCheck",
      "outputs": [
        {
          "internalType": "uint256",
          "name": "",
          "type": "uint256"
        }
      ],
      "stateMutability": "view",
      "type": "function"
    },
    {
      "inputs": [
        {
          "internalType": "address",
          "name": "spender",
          "type": "address"
        },
        {
          "internalType": "uint256",
          "name": "addedValue",
          "type": "uint256"
        }
      ],
      "name": "increaseAllowance",
      "outputs": [
        {
          "internalType": "bool",
          "name": "",
          "type": "bool"
        }
      ],
      "stateMutability": "nonpayable",
      "type": "function"
    },
    {
      "inputs": [],
      "name": "name",
      "outputs": [
        {
          "internalType": "string",
          "name": "",
          "type": "string"
        }
      ],
      "stateMutability": "view",
      "type": "function"
    },
    {
      "inputs": [],
      "name": "symbol",
      "outputs": [
        {
          "internalType": "string",
          "name": "",
          "type": "string"
        }
      ],
      "stateMutability": "view",
      "type": "function"
    },
    {
      "inputs": [],
      "name": "timeDelay",
      "outputs": [
        {
          "internalType": "uint256",
          "name": "",
          "type": "uint256"
        }
      ],
      "stateMutability": "view",
      "type": "function"
    },
    {
      "inputs": [],
      "name": "totalSupply",
      "outputs": [
        {
          "internalType": "uint256",
          "name": "",
          "type": "uint256"
        }
      ],
      "stateMutability": "view",
      "type": "function"
    },
    {
      "inputs": [
        {
          "internalType": "address",
          "name": "recipient",
          "type": "address"
        },
        {
          "internalType": "uint256",
          "name": "amount",
          "type": "uint256"
        }
      ],
      "name": "transfer",
      "outputs": [
        {
          "internalType": "bool",
          "name": "",
          "type": "bool"
        }
      ],
      "stateMutability": "nonpayable",
      "type": "function"
    },
    {
      "inputs": [
        {
          "internalType": "address",
          "name": "sender",
          "type": "address"
        },
        {
          "internalType": "address",
          "name": "recipient",
          "type": "address"
        },
        {
          "internalType": "uint256",
          "name": "amount",
          "type": "uint256"
        }
      ],
      "name": "transferFrom",
      "outputs": [
        {
          "internalType": "bool",
          "name": "",
          "type": "bool"
        }
      ],
      "stateMutability": "nonpayable",
      "type": "function"
    },
    {
      "inputs": [],
      "name": "version",
      "outputs": [
        {
          "internalType": "string",
          "name": "",
          "type": "string"
        }
      ],
      "stateMutability": "view",
      "type": "function"
    },
    {
      "inputs": [
        {
          "internalType": "address",
          "name": "",
          "type": "address"
        }
      ],
      "name": "wards",
      "outputs": [
        {
          "internalType": "uint256",
          "name": "",
          "type": "uint256"
        }
      ],
      "stateMutability": "view",
      "type": "function"
    },
    {
      "inputs": [],
      "name": "faucet",
      "outputs": [
        {
          "internalType": "bool",
          "name": "",
          "type": "bool"
        }
      ],
      "stateMutability": "nonpayable",
      "type": "function"
    },
    {
      "inputs": [],
      "name": "adminMint",
      "outputs": [],
      "stateMutability": "nonpayable",
      "type": "function"
    },
    {
      "inputs": [
        {
          "internalType": "uint256",
          "name": "_timeDelay",
          "type": "uint256"
        }
      ],
      "name": "setTimeDelay",
      "outputs": [],
      "stateMutability": "nonpayable",
      "type": "function"
    },
    {
      "inputs": [
        {
          "internalType": "address",
          "name": "usr",
          "type": "address"
        },
        {
          "internalType": "uint256",
          "name": "wad",
          "type": "uint256"
        }
      ],
      "name": "push",
      "outputs": [],
      "stateMutability": "nonpayable",
      "type": "function"
    },
    {
      "inputs": [
        {
          "internalType": "address",
          "name": "usr",
          "type": "address"
        },
        {
          "internalType": "uint256",
          "name": "wad",
          "type": "uint256"
        }
      ],
      "name": "pull",
      "outputs": [],
      "stateMutability": "nonpayable",
      "type": "function"
    },
    {
      "inputs": [
        {
          "internalType": "address",
          "name": "src",
          "type": "address"
        },
        {
          "internalType": "address",
          "name": "dst",
          "type": "address"
        },
        {
          "internalType": "uint256",
          "name": "wad",
          "type": "uint256"
        }
      ],
      "name": "move",
      "outputs": [],
      "stateMutability": "nonpayable",
      "type": "function"
    }
  ],
  "bytecode": "0x60806040523480156200001157600080fd5b506040516200124d3803806200124d833981810160405260808110156200003757600080fd5b8151602083018051604051929492938301929190846401000000008211156200005f57600080fd5b9083019060208201858111156200007557600080fd5b82516401000000008111828201881017156200009057600080fd5b82525081516020918201929091019080838360005b83811015620000bf578181015183820152602001620000a5565b50505050905090810190601f168015620000ed5780820380516001836020036101000a031916815260200191505b50604052602001805160405193929190846401000000008211156200011157600080fd5b9083019060208201858111156200012757600080fd5b82516401000000008111828201881017156200014257600080fd5b82525081516020918201929091019080838360005b838110156200017157818101518382015260200162000157565b50505050905090810190601f1680156200019f5780820380516001836020036101000a031916815260200191505b50604052602090810151855190935085925084918491620001c79160039190860190620003c2565b508151620001dd906004906020850190620003c2565b50620001e98162000236565b5050600780546001600160a01b0319166001600160a01b0387811691909117918290556200022492501660ff8316600a0a6103e8026200024c565b505062069780600855506200046e9050565b6005805460ff191660ff92909216919091179055565b6001600160a01b038216620002a8576040805162461bcd60e51b815260206004820152601f60248201527f45524332303a206d696e7420746f20746865207a65726f206164647265737300604482015290519081900360640190fd5b620002b6600083836200035b565b620002d2816002546200036060201b620008651790919060201c565b6002556001600160a01b03821660009081526020818152604090912054620003059183906200086562000360821b17901c565b6001600160a01b0383166000818152602081815260408083209490945583518581529351929391927fddf252ad1be2c89b69c2b068fc378daa952ba7f163c4a11628f55a4df523b3ef9281900390910190a35050565b505050565b600082820183811015620003bb576040805162461bcd60e51b815260206004820152601b60248201527f536166654d6174683a206164646974696f6e206f766572666c6f770000000000604482015290519081900360640190fd5b9392505050565b828054600181600116156101000203166002900490600052602060002090601f016020900481019282620003fa576000855562000445565b82601f106200041557805160ff191683800117855562000445565b8280016001018555821562000445579182015b828111156200044557825182559160200191906001019062000428565b506200045392915062000457565b5090565b5b8082111562000453576000815560010162000458565b610dcf806200047e6000396000f3fe608060405234801561001057600080fd5b50600436106101425760003560e01c8063a457c2d7116100b8578063bf353dbb1161007c578063bf353dbb146103db578063c9dec36114610401578063dd62ed3e14610409578063de5f72fd14610437578063f2d5d56b1461043f578063f851a4401461046b57610142565b8063a457c2d7146102fb578063a9059cbb14610327578063b753a98c14610353578063bb35783b1461037f578063bd5c2b25146103b557610142565b8063395093511161010a578063395093511461027257806339af6ba91461029e57806354fd4d50146102bd57806370a08231146102c5578063895fc788146102eb57806395d89b41146102f357610142565b806306fdde0314610147578063095ea7b3146101c457806318160ddd1461020457806323b872dd1461021e578063313ce56714610254575b600080fd5b61014f61048f565b6040805160208082528351818301528351919283929083019185019080838360005b83811015610189578181015183820152602001610171565b50505050905090810190601f1680156101b65780820380516001836020036101000a031916815260200191505b509250505060405180910390f35b6101f0600480360360408110156101da57600080fd5b506001600160a01b038135169060200135610526565b604080519115158252519081900360200190f35b61020c610543565b60408051918252519081900360200190f35b6101f06004803603606081101561023457600080fd5b506001600160a01b03813581169160208101359091169060400135610549565b61025c6105d0565b6040805160ff9092168252519081900360200190f35b6101f06004803603604081101561028857600080fd5b506001600160a01b0381351690602001356105d9565b6102bb600480360360208110156102b457600080fd5b5035610627565b005b61014f610643565b61020c600480360360208110156102db57600080fd5b50356001600160a01b0316610660565b6102bb61067b565b61014f6106af565b6101f06004803603604081101561031157600080fd5b506001600160a01b038135169060200135610710565b6101f06004803603604081101561033d57600080fd5b506001600160a01b038135169060200135610778565b6102bb6004803603604081101561036957600080fd5b506001600160a01b03813516906020013561078c565b6102bb6004803603606081101561039557600080fd5b506001600160a01b0381358116916020810135909116906040013561079c565b61020c600480360360208110156103cb57600080fd5b50356001600160a01b03166107ad565b61020c600480360360208110156103f157600080fd5b50356001600160a01b03166107bf565b61020c6107d1565b61020c6004803603604081101561041f57600080fd5b506001600160a01b03813581169160200135166107d7565b6101f0610802565b6102bb6004803603604081101561045557600080fd5b506001600160a01b03813516906020013561084b565b610473610856565b604080516001600160a01b039092168252519081900360200190f35b60038054604080516020601f600260001961010060018816150201909516949094049384018190048102820181019092528281526060939092909183018282801561051b5780601f106104f05761010080835404028352916020019161051b565b820191906000526020600020905b8154815290600101906020018083116104fe57829003601f168201915b505050505090505b90565b600061053a6105336108c6565b84846108ca565b50600192915050565b60025490565b60006105568484846109b6565b6105c6846105626108c6565b6105c185604051806060016040528060288152602001610d04602891396001600160a01b038a166000908152600160205260408120906105a06108c6565b6001600160a01b031681526020810191909152604001600020549190610b11565b6108ca565b5060019392505050565b60055460ff1690565b600061053a6105e66108c6565b846105c185600160006105f76108c6565b6001600160a01b03908116825260208083019390935260409182016000908120918c168152925290205490610865565b6007546001600160a01b0316331461063e57600080fd5b600855565b604051806040016040528060018152602001603160f81b81525081565b6001600160a01b031660009081526020819052604090205490565b6007546001600160a01b0316331461069257600080fd5b6106ad3361069e6105d0565b60ff16600a0a6103e802610ba8565b565b60048054604080516020601f600260001961010060018816150201909516949094049384018190048102820181019092528281526060939092909183018282801561051b5780601f106104f05761010080835404028352916020019161051b565b600061053a61071d6108c6565b846105c185604051806060016040528060258152602001610d7560259139600160006107476108c6565b6001600160a01b03908116825260208083019390935260409182016000908120918d16815292529020549190610b11565b600061053a6107856108c6565b84846109b6565b610797338383610549565b505050565b6107a7838383610549565b50505050565b60096020526000908152604090205481565b60066020526000908152604090205481565b60085481565b6001600160a01b03918216600090815260016020908152604080832093909416825291909152205490565b6008543360009081526009602052604081205490910142101561082757506000610523565b6108333361069e6105d0565b50336000908152600960205260409020429055600190565b610797823383610549565b6007546001600160a01b031681565b6000828201838110156108bf576040805162461bcd60e51b815260206004820152601b60248201527f536166654d6174683a206164646974696f6e206f766572666c6f770000000000604482015290519081900360640190fd5b9392505050565b3390565b6001600160a01b03831661090f5760405162461bcd60e51b8152600401808060200182810382526024815260200180610d516024913960400191505060405180910390fd5b6001600160a01b0382166109545760405162461bcd60e51b8152600401808060200182810382526022815260200180610cbc6022913960400191505060405180910390fd5b6001600160a01b03808416600081815260016020908152604080832094871680845294825291829020859055815185815291517f8c5be1e5ebec7d5bd14f71427d1e84f3dd0314c0f7b2291e5b200ac8c7c3b9259281900390910190a3505050565b6001600160a01b0383166109fb5760405162461bcd60e51b8152600401808060200182810382526025815260200180610d2c6025913960400191505060405180910390fd5b6001600160a01b038216610a405760405162461bcd60e51b8152600401808060200182810382526023815260200180610c996023913960400191505060405180910390fd5b610a4b838383610797565b610a8881604051806060016040528060268152602001610cde602691396001600160a01b0386166000908152602081905260409020549190610b11565b6001600160a01b038085166000908152602081905260408082209390935590841681522054610ab79082610865565b6001600160a01b038084166000818152602081815260409182902094909455805185815290519193928716927fddf252ad1be2c89b69c2b068fc378daa952ba7f163c4a11628f55a4df523b3ef92918290030190a3505050565b60008184841115610ba05760405162461bcd60e51b81526004018080602001828103825283818151815260200191508051906020019080838360005b83811015610b65578181015183820152602001610b4d565b50505050905090810190601f168015610b925780820380516001836020036101000a031916815260200191505b509250505060405180910390fd5b505050900390565b6001600160a01b038216610c03576040805162461bcd60e51b815260206004820152601f60248201527f45524332303a206d696e7420746f20746865207a65726f206164647265737300604482015290519081900360640190fd5b610c0f60008383610797565b600254610c1c9082610865565b6002556001600160a01b038216600090815260208190526040902054610c429082610865565b6001600160a01b0383166000818152602081815260408083209490945583518581529351929391927fddf252ad1be2c89b69c2b068fc378daa952ba7f163c4a11628f55a4df523b3ef9281900390910190a3505056fe45524332303a207472616e7366657220746f20746865207a65726f206164647265737345524332303a20617070726f766520746f20746865207a65726f206164647265737345524332303a207472616e7366657220616d6f756e7420657863656564732062616c616e636545524332303a207472616e7366657220616d6f756e74206578636565647320616c6c6f77616e636545524332303a207472616e736665722066726f6d20746865207a65726f206164647265737345524332303a20617070726f76652066726f6d20746865207a65726f206164647265737345524332303a2064656372656173656420616c6c6f77616e63652062656c6f77207a65726fa2646970667358221220259b1928c271d17cfce322e8ccc4987e7138a55c75652d28a0efab2f4299881b64736f6c63430007060033",
  "immutableReferences": {},
  "source": "// SPDX-License-Identifier: UNLICENSED\n\n// hevm: flattened sources of /nix/store/8xb41r4qd0cjb63wcrxf1qmfg88p0961-dss-6fd7de0/src/dai.sol\npragma solidity =0.7.6;\n\n// import \"./IERC20.sol\";\nimport \"./ERC20.sol\";\n\ncontract TokenWithFaucet is ERC20 {\n    // --- Auth ---\n    mapping(address => uint256) public wards;\n    address public admin;\n    uint256 public timeDelay;\n\n    // --- ERC20 Data ---\n    string public constant version = \"1\";\n    mapping(address => uint256) public faucetCheck;\n\n    // --- Math ---\n    function add(uint256 x, uint256 y) internal pure returns (uint256 z) {\n        require((z = x + y) >= x);\n    }\n\n    function sub(uint256 x, uint256 y) internal pure returns (uint256 z) {\n        require((z = x - y) <= x);\n    }\n\n    constructor(\n        address _admin,\n        string memory _name,\n        string memory _symbol,\n        uint8 _decimals\n    ) ERC20(_name, _symbol, _decimals) {\n        admin = _admin;\n        _mint(admin, 1000 * (10**_decimals));\n        timeDelay = 5 days;\n    }\n\n    // --- Token ---\n    function faucet() external returns (bool) {\n        if (block.timestamp < faucetCheck[msg.sender] + timeDelay) {\n            return false;\n        }\n        _mint(msg.sender, 1000 * (10**decimals()));\n        faucetCheck[msg.sender] = block.timestamp;\n        return true;\n    }\n\n    function adminMint() external {\n        require(admin == msg.sender);\n        _mint(msg.sender, 1000 * (10**decimals()));\n    }\n\n    function setTimeDelay(uint256 _timeDelay) external {\n        require(admin == msg.sender);\n        timeDelay = _timeDelay;\n    }\n\n    // --- Alias ---\n    function push(address usr, uint256 wad) external {\n        transferFrom(msg.sender, usr, wad);\n    }\n\n    function pull(address usr, uint256 wad) external {\n        transferFrom(usr, msg.sender, wad);\n    }\n\n    function move(\n        address src,\n        address dst,\n        uint256 wad\n    ) external {\n        transferFrom(src, dst, wad);\n    }\n}\n",
  "sourcePath": "/Users/bghughes/workspace/2022-05-rubicon/contracts/peripheral_contracts/TokenWithFaucet.sol",
  "compiler": {
    "name": "solc",
    "version": "0.7.6+commit.7338295f.Emscripten.clang"
  },
  "schemaVersion": "3.3.4",
  "updatedAt": "2022-05-20T22:17:11.903Z",
  "devdoc": {
    "kind": "dev",
    "methods": {
      "allowance(address,address)": {
        "details": "See {IERC20-allowance}."
      },
      "approve(address,uint256)": {
        "details": "See {IERC20-approve}. Requirements: - `spender` cannot be the zero address."
      },
      "balanceOf(address)": {
        "details": "See {IERC20-balanceOf}."
      },
      "decimals()": {
        "details": "Returns the number of decimals used to get its user representation. For example, if `decimals` equals `2`, a balance of `505` tokens should be displayed to a user as `5,05` (`505 / 10 ** 2`). Tokens usually opt for a value of 18, imitating the relationship between Ether and Wei. This is the value {ERC20} uses, unless {_setupDecimals} is called. NOTE: This information is only used for _display_ purposes: it in no way affects any of the arithmetic of the contract, including {IERC20-balanceOf} and {IERC20-transfer}."
      },
      "decreaseAllowance(address,uint256)": {
        "details": "Atomically decreases the allowance granted to `spender` by the caller. This is an alternative to {approve} that can be used as a mitigation for problems described in {IERC20-approve}. Emits an {Approval} event indicating the updated allowance. Requirements: - `spender` cannot be the zero address. - `spender` must have allowance for the caller of at least `subtractedValue`."
      },
      "increaseAllowance(address,uint256)": {
        "details": "Atomically increases the allowance granted to `spender` by the caller. This is an alternative to {approve} that can be used as a mitigation for problems described in {IERC20-approve}. Emits an {Approval} event indicating the updated allowance. Requirements: - `spender` cannot be the zero address."
      },
      "name()": {
        "details": "Returns the name of the token."
      },
      "symbol()": {
        "details": "Returns the symbol of the token, usually a shorter version of the name."
      },
      "totalSupply()": {
        "details": "See {IERC20-totalSupply}."
      },
      "transfer(address,uint256)": {
        "details": "See {IERC20-transfer}. Requirements: - `recipient` cannot be the zero address. - the caller must have a balance of at least `amount`."
      },
      "transferFrom(address,address,uint256)": {
        "details": "See {IERC20-transferFrom}. Emits an {Approval} event indicating the updated allowance. This is not required by the EIP. See the note at the beginning of {ERC20}. Requirements: - `sender` and `recipient` cannot be the zero address. - `sender` must have a balance of at least `amount`. - the caller must have allowance for ``sender``'s tokens of at least `amount`."
      }
    },
    "version": 1
  },
  "userdoc": {
    "kind": "user",
    "methods": {},
    "version": 1
  }
}